{
  "_format": "hh-sol-artifact-1",
  "contractName": "DvpEscort",
  "sourceName": "contracts/hamsa/ucl/DvpEscort.sol",
  "abi": [
    {
      "inputs": [],
      "stateMutability": "nonpayable",
      "type": "constructor"
    },
    {
      "anonymous": false,
      "inputs": [
        {
          "indexed": true,
          "internalType": "address",
          "name": "burner",
          "type": "address"
        },
        {
          "indexed": true,
          "internalType": "address",
          "name": "account",
          "type": "address"
        },
        {
          "indexed": false,
          "internalType": "uint256",
          "name": "value",
          "type": "uint256"
        },
        {
          "indexed": false,
          "internalType": "uint256",
          "name": "addressBalance",
          "type": "uint256"
        },
        {
          "indexed": true,
          "internalType": "address",
          "name": "tokenAddress",
          "type": "address"
        }
      ],
      "name": "EscrowBurn",
      "type": "event"
    },
    {
      "anonymous": false,
      "inputs": [
        {
          "indexed": true,
          "internalType": "address",
          "name": "account",
          "type": "address"
        },
        {
          "indexed": true,
          "internalType": "address",
          "name": "minter",
          "type": "address"
        },
        {
          "indexed": false,
          "internalType": "uint256",
          "name": "value",
          "type": "uint256"
        },
        {
          "indexed": false,
          "internalType": "uint256",
          "name": "addressBalance",
          "type": "uint256"
        },
        {
          "indexed": true,
          "internalType": "address",
          "name": "tokenAddress",
          "type": "address"
        }
      ],
      "name": "EscrowMint",
      "type": "event"
    },
    {
      "anonymous": false,
      "inputs": [
        {
          "indexed": true,
          "internalType": "address",
          "name": "burner",
          "type": "address"
        },
        {
          "indexed": true,
          "internalType": "address",
          "name": "account",
          "type": "address"
        },
        {
          "indexed": false,
          "internalType": "uint256",
          "name": "value",
          "type": "uint256"
        },
        {
          "indexed": false,
          "internalType": "uint256",
          "name": "addressBalance",
          "type": "uint256"
        }
      ],
      "name": "EscrowScheduleBurn",
      "type": "event"
    },
    {
      "anonymous": false,
      "inputs": [
        {
          "indexed": true,
          "internalType": "address",
          "name": "account",
          "type": "address"
        },
        {
          "indexed": true,
          "internalType": "address",
          "name": "minter",
          "type": "address"
        },
        {
          "indexed": false,
          "internalType": "uint256",
          "name": "value",
          "type": "uint256"
        },
        {
          "indexed": false,
          "internalType": "uint256",
          "name": "addressBalance",
          "type": "uint256"
        }
      ],
      "name": "EscrowScheduleMint",
      "type": "event"
    },
    {
      "anonymous": false,
      "inputs": [
        {
          "indexed": true,
          "internalType": "address",
          "name": "from",
          "type": "address"
        },
        {
          "indexed": true,
          "internalType": "address",
          "name": "to",
          "type": "address"
        },
        {
          "indexed": false,
          "internalType": "uint256",
          "name": "value",
          "type": "uint256"
        },
        {
          "indexed": false,
          "internalType": "uint256",
          "name": "addressBalance",
          "type": "uint256"
        }
      ],
      "name": "EscrowScheduleTransfer",
      "type": "event"
    },
    {
      "anonymous": false,
      "inputs": [
        {
          "indexed": true,
          "internalType": "address",
          "name": "from",
          "type": "address"
        },
        {
          "indexed": true,
          "internalType": "address",
          "name": "to",
          "type": "address"
        },
        {
          "indexed": false,
          "internalType": "uint256",
          "name": "value",
          "type": "uint256"
        },
        {
          "indexed": false,
          "internalType": "uint256",
          "name": "addressBalance",
          "type": "uint256"
        },
        {
          "indexed": true,
          "internalType": "address",
          "name": "tokenAddress",
          "type": "address"
        }
      ],
      "name": "EscrowTransfer",
      "type": "event"
    },
    {
      "inputs": [],
      "name": "Admin",
      "outputs": [
        {
          "internalType": "address",
          "name": "",
          "type": "address"
        }
      ],
      "stateMutability": "view",
      "type": "function"
    },
    {
      "inputs": [
        {
          "internalType": "bytes32",
          "name": "",
          "type": "bytes32"
        }
      ],
      "name": "Transactions",
      "outputs": [
        {
          "internalType": "address",
          "name": "token",
          "type": "address"
        },
        {
          "internalType": "bytes32",
          "name": "chunkHash",
          "type": "bytes32"
        },
        {
          "internalType": "bytes32",
          "name": "bundleHash",
          "type": "bytes32"
        },
        {
          "internalType": "enum DvpEscort.EscortingType",
          "name": "txType",
          "type": "uint8"
        },
        {
          "internalType": "address",
          "name": "to",
          "type": "address"
        },
        {
          "internalType": "address",
          "name": "from",
          "type": "address"
        },
        {
          "internalType": "uint256",
          "name": "amount",
          "type": "uint256"
        },
        {
          "internalType": "uint256",
          "name": "expireTime",
          "type": "uint256"
        },
        {
          "internalType": "bool",
          "name": "pending",
          "type": "bool"
        }
      ],
      "stateMutability": "view",
      "type": "function"
    },
    {
      "inputs": [
        {
          "internalType": "bytes32",
          "name": "bundleHash",
          "type": "bytes32"
        }
      ],
      "name": "cancel",
      "outputs": [],
      "stateMutability": "nonpayable",
      "type": "function"
    },
    {
      "inputs": [
        {
          "internalType": "address",
          "name": "account",
          "type": "address"
        },
        {
          "internalType": "uint256",
          "name": "amount",
          "type": "uint256"
        }
      ],
      "name": "deposit",
      "outputs": [],
      "stateMutability": "payable",
      "type": "function"
    },
    {
      "inputs": [
        {
          "internalType": "bytes32",
          "name": "bundleHash",
          "type": "bytes32"
        }
      ],
      "name": "execute",
      "outputs": [],
      "stateMutability": "nonpayable",
      "type": "function"
    },
    {
      "inputs": [
        {
          "internalType": "address",
          "name": "account",
          "type": "address"
        }
      ],
      "name": "getBalance",
      "outputs": [
        {
          "internalType": "uint256",
          "name": "",
          "type": "uint256"
        }
      ],
      "stateMutability": "view",
      "type": "function"
    },
    {
      "inputs": [
        {
          "internalType": "address",
          "name": "tokenAddress",
          "type": "address"
        },
        {
          "internalType": "uint256",
          "name": "amount",
          "type": "uint256"
        },
        {
          "internalType": "bytes32",
          "name": "chunkHash",
          "type": "bytes32"
        },
        {
          "internalType": "bytes32",
          "name": "bundleHash",
          "type": "bytes32"
        },
        {
          "internalType": "uint256",
          "name": "expireTime",
          "type": "uint256"
        }
      ],
      "name": "scheduleBurn",
      "outputs": [
        {
          "internalType": "bool",
          "name": "",
          "type": "bool"
        }
      ],
      "stateMutability": "nonpayable",
      "type": "function"
    },
    {
      "inputs": [
        {
          "internalType": "address",
          "name": "tokenAddress",
          "type": "address"
        },
        {
          "internalType": "address",
          "name": "to",
          "type": "address"
        },
        {
          "internalType": "uint256",
          "name": "amount",
          "type": "uint256"
        },
        {
          "internalType": "bytes32",
          "name": "chunkHash",
          "type": "bytes32"
        },
        {
          "internalType": "bytes32",
          "name": "bundleHash",
          "type": "bytes32"
        },
        {
          "internalType": "uint256",
          "name": "expireTime",
          "type": "uint256"
        }
      ],
      "name": "scheduleMint",
      "outputs": [
        {
          "internalType": "bool",
          "name": "",
          "type": "bool"
        }
      ],
      "stateMutability": "nonpayable",
      "type": "function"
    },
    {
      "inputs": [
        {
          "internalType": "address",
          "name": "tokenAddress",
          "type": "address"
        },
        {
          "internalType": "address",
          "name": "to",
          "type": "address"
        },
        {
          "internalType": "uint256",
          "name": "amount",
          "type": "uint256"
        },
        {
          "internalType": "bytes32",
          "name": "chunkHash",
          "type": "bytes32"
        },
        {
          "internalType": "bytes32",
          "name": "bundleHash",
          "type": "bytes32"
        },
        {
          "internalType": "uint256",
          "name": "expireTime",
          "type": "uint256"
        }
      ],
      "name": "scheduleTransfer",
      "outputs": [
        {
          "internalType": "bool",
          "name": "",
          "type": "bool"
        }
      ],
      "stateMutability": "nonpayable",
      "type": "function"
    },
    {
      "inputs": [
        {
          "internalType": "address",
          "name": "account",
          "type": "address"
        },
        {
          "internalType": "uint256",
          "name": "amount",
          "type": "uint256"
        }
      ],
      "name": "withdraw",
      "outputs": [],
      "stateMutability": "nonpayable",
      "type": "function"
    }
  ],
  "bytecode": "0x608060405234601f57600e607f565b60405161150161008b823961150190f35b600080fd5b6036906039906001600160a01b031682565b90565b6001600160a01b031690565b6036906024565b6036906045565b90605f6036607b92604c565b82546001600160a01b0319166001600160a01b03919091161790565b9055565b60883360006053565b56fe6080604052600436101561001257600080fd5b60003560e01c806314c7f396146100b25780633902ec32146100ad57806347e7ef24146100a857806348d2b4e3146100a3578063aecbb6b91461009e578063c4d252f514610099578063e751f27114610094578063f3fef3a31461008f578063f8b2cb4f1461008a5763ff1b636d036100d8576104c2565b610469565b61043c565b610424565b61040c565b6103ed565b610371565b6101d3565b610195565b61015d565b6001600160a01b031690565b90565b6001600160a01b0381165b036100d857565b600080fd5b905035906100ea826100c6565b565b806100d1565b905035906100ea826100ec565b909160c0828403126100d85761011583836100dd565b9261012381602085016100dd565b9261013182604083016100f2565b926100c361014284606085016100f2565b9360a061015282608087016100f2565b94016100f2565b9052565b346100d85761019161017f6101733660046100ff565b94939093929192610ac7565b60405191829182901515815260200190565b0390f35b346100d85761019161017f6101ab3660046100ff565b94939093929192610be3565b91906040838203126100d8576100c390602061015282866100dd565b6101e76101e13660046101b7565b90610c69565b604051005b906020828203126100d8576100c3916100f2565b905b600052602052604060002090565b6100c39081565b6100c39054610210565b6100c39060081c6100b7565b6100c39054610221565b610242906001610200565b80546001600160a01b03169161025a60018301610217565b9161026760028201610217565b91610276600383015460ff1690565b916102836003820161022d565b9161029860048301546001600160a01b031690565b916102a560058201610217565b916100c360076102b760068501610217565b93015460ff1690565b634e487b7160e01b600052602160045260246000fd5b600311156102e057565b6102c0565b906100ea826102d6565b6100c3906102e5565b610159906102ef565b9694929099989795939161012088019a60008901610326916001600160a01b03169052565b602088015260408701526060860161033d916102f8565b6001600160a01b031660808501526001600160a01b031660a084015260c083015260e0820152610100016100ea9115159052565b346100d85761019161038c6103873660046101ec565b610237565b9561039f99979995919594929460405190565b998a998a610301565b919060a0838203126100d8576103be81846100dd565b926103cc82602083016100f2565b926100c36103dd84604085016100f2565b93608061015282606087016100f2565b346100d85761019161017f6104033660046103a8565b93929092610de6565b346100d8576101e761041f3660046101ec565b610f10565b346100d8576101e76104373660046101ec565b610fc8565b346100d8576101e761044f3660046101b7565b906110cb565b906020828203126100d8576100c3916100dd565b346100d85761019161048461047f366004610455565b611110565b6040519182918290815260200190565b60009103126100d857565b6100c3916008021c6100b7565b906100c3915461049f565b6100c36000806104ac565b346100d8576104d2366004610494565b6101916104dd6104b7565b604051918291826001600160a01b03909116815260200190565b634e487b7160e01b600052604160045260246000fd5b90601f01601f1916810190811067ffffffffffffffff82111761052f57604052565b6104f7565b906100ea61054160405190565b928361050d565b67ffffffffffffffff811161052f57602090601f01601f19160190565b0190565b9061057b61057683610548565b610534565b918252565b61058a6020610569565b7f696e76616c696420746f6b656e416464726573732069732070726f7669646564602082015290565b6100c3610580565b6100b76100c36100c39290565b6100c3906105bb565b60005b8381106105e45750506000910152565b81810151838201526020016105d4565b61061561061e60209361056593610609815190565b80835293849260200190565b958691016105d1565b601f01601f191690565b60208082526100c3929101906105f4565b156106415750565b6106639061064e60405190565b62461bcd60e51b815291829160048301610628565b0390fd5b906100c396959493929161069b61067c6105b3565b6106896100b760006105c8565b6001600160a01b0385165b1415610639565b6106e8565b6106aa601d610569565b7f616d6f756e74206d7573742062652067726561746572207468616e2030000000602082015290565b6100c36106a0565b6100c36100c36100c39290565b906100c396959493929161070f6106fd6106d3565b61070760006106db565b865b11610639565b610748565b61071e6016610569565b75062756e646c6520686173682063616e277420626520360541b602082015290565b6100c3610714565b906100c396959493929161077061075d610740565b61076a6100c360006106db565b88610694565b610928565b1561077c57565b60405162461bcd60e51b815260206004820152603360248201527f7472616e73616374696f6e2077697468207468652073616d652062756e646c656044820152724861736820616c72656164792065786973747360681b6064820152608490fd5b6100c3906100b7906001600160a01b031682565b6100c3906107dd565b6100c3906107f1565b8015156100d1565b905051906100ea82610803565b906020828203126100d8576100c39161080b565b6001600160a01b039182168152911660208201526060810192916100ea9160400152565b6040513d6000823e3d90fd5b906001600160a01b03905b9181191691161790565b906108816100c3610888926107fa565b825461085c565b9055565b9060001990610867565b906108a46100c36108889290565b825461088c565b9060ff90610867565b906108c46100c3610888926102ef565b82546108ab565b90610100600160a81b039060081b610867565b906108ee6100c3610888926107fa565b82546108cb565b906108a46100c3610888926106db565b906108c46100c361088892151590565b9081526040810192916100ea9160200152565b946109b495969394919296506001966109446100c3838a610200565b600581019361096c61095586610217565b61096661096260006106db565b9190565b14610775565b61097d610978876107fa565b6107fa565b966020610989306107fa565b9a8b998b600061099860405190565b9e8f94859384926323b872dd60e01b5b8452336004850161082c565b03925af1918215610ac25789610a3a97610a266007978f996100c39f956109fd610a05928f6109f49060008e610a2b9c610a349f610a95575b5001610871565b60028c01610896565b8b8a01610896565b60038801610a146000826108b4565b610a213360048b01610871565b6108de565b6108f5565b600683016108f5565b01610905565b610a4c610a4683611110565b916107fa565b7f75481a497d8415f17e2319fa807891164be92bc2cc4f110a82491873a3d173f5610a8d610a79856107fa565b93610a8360405190565b9182918883610915565b0390a3610c69565b610ab69060203d602011610abb575b610aae818361050d565b810190610818565b6109ed565b503d610aa4565b610850565b6100c39594939291906000610667565b906100c3969594939291610aec61067c6105b3565b906100c3969594939291610b016106fd6106d3565b906100c3969594939291610b1661075d610740565b6100c395610b8d8584610a26610ba0976006969c97999a9c50610b7160019d8e610b6a610b466100c38b84610200565b99610b6160058c0198610b5b6109558b610217565b8c610871565b60028b01610896565b8801610896565b60038601610b806002826108b4565b610a213360048901610871565b610b9a8860078301610905565b016108f5565b610ba9306107fa565b90610bb6610a4683611110565b7fbed2f4e92ee9f6275d2d22ff8ce5cf197df5e80951c107b2c1adc5cba5e16b6c610a8d610a79856107fa565b6100c39594939291906000610ad7565b15610bfa57565b60405162461bcd60e51b8152602060048201526015602482015274135d5cdd081cd95b99081cdbdb5948185b5bdd5b9d605a1b6044820152606490fd5b90610202906107fa565b634e487b7160e01b600052601160045260246000fd5b91908201809211610c6457565b610c41565b90610c9f610c906100ea93610c89610c8160006106db565b851015610bf3565b6002610c37565b91610c9a83610217565b610c57565b906108f5565b906100c39594939291610cb961067c6105b3565b906100c39594939291610cdd610ccd6106d3565b610cd760006106db565b85610709565b906100c39594939291610d04610cf1610740565b610cfe6100c360006106db565b87610694565b5060019493919291610d196100c38288610200565b610d676005820191610d2d61095584610217565b610d39610978866107fa565b95602088610d46306107fa565b98896000610d5360405190565b8098819582946109a86323b872dd60e01b90565b03925af1988915610ac257610a2b898c96610daf610a3495610da76100c39f9b610d9e8e60079c610a3a9f610dc9575b508b610871565b60028a01610896565b898801610896565b610dbc88600388016108b4565b610a263360048801610871565b610de19060203d602011610abb57610aae818361050d565b610d97565b6100c394939291906000610ca5565b90610159906102e5565b6100c3610120610534565b906100ea610efd6007610e1b610dff565b94610e3d610e3082546001600160a01b031690565b6001600160a01b03168752565b610e53610e4c60018301610217565b6020880152565b610e69610e6260028301610217565b6040880152565b610e83610e7a600383015460ff1690565b60608801610df5565b610ea2610e926003830161022d565b6001600160a01b03166080880152565b610ec9610eb960048301546001600160a01b031690565b6001600160a01b031660a0880152565b610edf610ed860058301610217565b60c0880152565b610ef5610eee60068301610217565b60e0880152565b015460ff1690565b1515610100840152565b6100c390610e0a565b6100c3610f1e916001610200565b6007810190610f2e825460ff1690565b60009190610f3d835b91151590565b14610fc35760038101805460ff16610f5d610f57856102e5565b916102e5565b148015610faa575b15610f85575091610f80610f7b6100ea94610f07565b611144565b610905565b5460ff169050610f98610f5760026102e5565b14610fa1575050565b6100ea91610905565b50805460ff16610fbd610f5760016102e5565b14610f65565b505050565b6100c3610fd6916001610200565b60078101805460ff1660009190610fec83610f37565b14610fc35760038301805460ff16611006610f57856102e5565b036110205750610f8061101b6100ea94610f07565b6113f3565b805460ff16611032610f5760016102e5565b0361104c5750610f806110476100ea94610f07565b611310565b5460ff1661105d610f5760026102e5565b1461106757505050565b610f806110766100ea94610f07565b6111d6565b1561108257565b60405162461bcd60e51b8152602060048201526014602482015273496e73756666696369656e742062616c616e636560601b6044820152606490fd5b91908203918211610c6457565b90610c9f6111016100ea936110e3610c8160006106db565b610c896110f96110f4836002610c37565b610217565b85111561107b565b9161110b83610217565b6110be565b6110f46100c39161111f600090565b506002610c37565b6001600160a01b0390911681526040810192916100ea9160200152565b6111aa906020906111606109788083516001600160a01b031690565b61117f60c061117960a08501516001600160a01b031690565b93015190565b91600061118b60405190565b80968195829461119f63a9059cbb60e01b90565b845260048401611127565b03925af18015610ac2576111bb5750565b6111d39060203d602011610abb57610aae818361050d565b50565b806111ec6109788083516001600160a01b031690565b91608082019160c061120584516001600160a01b031690565b910190611210825190565b853b156100d85761123c956000928361122860405190565b80998195829461119f6340c10f1960e01b90565b03925af1918215610ac2576100ea9461044f936112f2575b5061126f611261306107fa565b94516001600160a01b031690565b90611278835190565b917fef0ae3b86171d5c9ce0e607686dd51fce50680353a555916b29ee7d3ea0ba7ba6112bf6112b161047f85516001600160a01b031690565b93516001600160a01b031690565b926112d56112cf6112cf8a6107fa565b946107fa565b946112eb6112e260405190565b92839283610915565b0390a45190565b61130a906000611302818361050d565b810190610494565b38611254565b6113256109788083516001600160a01b031690565b9060c08101611332815190565b92803b156100d85761136b60009491859261134c60405190565b9687938492839190630852cd8d60e31b83526004830190815260200190565b03925af1908115610ac2576100ea9361044f926113dd575b5061138d306107fa565b9261139860006105c8565b60006113a2845190565b9201907fee7e2ab422d5d85e28b1766f37afa78c5e01ffe05bcd038aa75789b0198fc3286112bf6112b161047f85516001600160a01b031690565b6113ed906000611302818361050d565b38611383565b611452908061140d6109788083516001600160a01b031690565b6020608084019360c061142786516001600160a01b031690565b910192611432845190565b91600061143e60405190565b80998195829461119f63a9059cbb60e01b90565b03925af1918215610ac2576100ea9461044f936114ae575b50611477611261306107fa565b90611480835190565b917f2207eb01e60333905340e342576fd8bc7c00e6643140fe501da591942c8113046112bf6112b188611110565b6114c69060203d602011610abb57610aae818361050d565b61146a56fea2646970667358221220193390c81b8e32a631cfa16d410c23c95d71c4b2fd8b2a0aa3c36089b3909b5464736f6c63430008190033",
  "linkReferences": {},
  "deployedLinkReferences": {}
}