{
  "_format": "hh-sol-artifact-1",
  "contractName": "Simple",
  "sourceName": "contracts/nova/Simple.sol",
  "abi": [
    {
      "inputs": [
        {
          "internalType": "string",
          "name": "name",
          "type": "string"
        },
        {
          "internalType": "string",
          "name": "symbol",
          "type": "string"
        }
      ],
      "stateMutability": "nonpayable",
      "type": "constructor"
    },
    {
      "inputs": [
        {
          "internalType": "address",
          "name": "spender",
          "type": "address"
        },
        {
          "internalType": "uint256",
          "name": "allowance",
          "type": "uint256"
        },
        {
          "internalType": "uint256",
          "name": "needed",
          "type": "uint256"
        }
      ],
      "name": "ERC20InsufficientAllowance",
      "type": "error"
    },
    {
      "inputs": [
        {
          "internalType": "address",
          "name": "sender",
          "type": "address"
        },
        {
          "internalType": "uint256",
          "name": "balance",
          "type": "uint256"
        },
        {
          "internalType": "uint256",
          "name": "needed",
          "type": "uint256"
        }
      ],
      "name": "ERC20InsufficientBalance",
      "type": "error"
    },
    {
      "inputs": [
        {
          "internalType": "address",
          "name": "approver",
          "type": "address"
        }
      ],
      "name": "ERC20InvalidApprover",
      "type": "error"
    },
    {
      "inputs": [
        {
          "internalType": "address",
          "name": "receiver",
          "type": "address"
        }
      ],
      "name": "ERC20InvalidReceiver",
      "type": "error"
    },
    {
      "inputs": [
        {
          "internalType": "address",
          "name": "sender",
          "type": "address"
        }
      ],
      "name": "ERC20InvalidSender",
      "type": "error"
    },
    {
      "inputs": [
        {
          "internalType": "address",
          "name": "spender",
          "type": "address"
        }
      ],
      "name": "ERC20InvalidSpender",
      "type": "error"
    },
    {
      "anonymous": false,
      "inputs": [
        {
          "indexed": true,
          "internalType": "address",
          "name": "owner",
          "type": "address"
        },
        {
          "indexed": true,
          "internalType": "address",
          "name": "spender",
          "type": "address"
        },
        {
          "indexed": false,
          "internalType": "uint256",
          "name": "value",
          "type": "uint256"
        }
      ],
      "name": "Approval",
      "type": "event"
    },
    {
      "anonymous": false,
      "inputs": [
        {
          "indexed": true,
          "internalType": "address",
          "name": "from",
          "type": "address"
        },
        {
          "indexed": true,
          "internalType": "address",
          "name": "to",
          "type": "address"
        },
        {
          "indexed": false,
          "internalType": "uint256",
          "name": "value",
          "type": "uint256"
        }
      ],
      "name": "Transfer",
      "type": "event"
    },
    {
      "inputs": [
        {
          "internalType": "address",
          "name": "owner",
          "type": "address"
        },
        {
          "internalType": "address",
          "name": "spender",
          "type": "address"
        }
      ],
      "name": "allowance",
      "outputs": [
        {
          "internalType": "uint256",
          "name": "",
          "type": "uint256"
        }
      ],
      "stateMutability": "view",
      "type": "function"
    },
    {
      "inputs": [
        {
          "internalType": "address",
          "name": "spender",
          "type": "address"
        },
        {
          "internalType": "uint256",
          "name": "value",
          "type": "uint256"
        }
      ],
      "name": "approve",
      "outputs": [
        {
          "internalType": "bool",
          "name": "",
          "type": "bool"
        }
      ],
      "stateMutability": "nonpayable",
      "type": "function"
    },
    {
      "inputs": [
        {
          "internalType": "address",
          "name": "account",
          "type": "address"
        }
      ],
      "name": "balanceOf",
      "outputs": [
        {
          "internalType": "uint256",
          "name": "",
          "type": "uint256"
        }
      ],
      "stateMutability": "view",
      "type": "function"
    },
    {
      "inputs": [],
      "name": "brand",
      "outputs": [
        {
          "internalType": "string",
          "name": "",
          "type": "string"
        }
      ],
      "stateMutability": "view",
      "type": "function"
    },
    {
      "inputs": [
        {
          "internalType": "uint256",
          "name": "value",
          "type": "uint256"
        }
      ],
      "name": "burn",
      "outputs": [],
      "stateMutability": "nonpayable",
      "type": "function"
    },
    {
      "inputs": [
        {
          "internalType": "address",
          "name": "account",
          "type": "address"
        },
        {
          "internalType": "uint256",
          "name": "value",
          "type": "uint256"
        }
      ],
      "name": "burnFrom",
      "outputs": [],
      "stateMutability": "nonpayable",
      "type": "function"
    },
    {
      "inputs": [],
      "name": "decimals",
      "outputs": [
        {
          "internalType": "uint8",
          "name": "",
          "type": "uint8"
        }
      ],
      "stateMutability": "view",
      "type": "function"
    },
    {
      "inputs": [
        {
          "internalType": "address",
          "name": "account",
          "type": "address"
        },
        {
          "internalType": "uint256",
          "name": "amount",
          "type": "uint256"
        }
      ],
      "name": "mint",
      "outputs": [],
      "stateMutability": "nonpayable",
      "type": "function"
    },
    {
      "inputs": [],
      "name": "name",
      "outputs": [
        {
          "internalType": "string",
          "name": "",
          "type": "string"
        }
      ],
      "stateMutability": "view",
      "type": "function"
    },
    {
      "inputs": [
        {
          "internalType": "string",
          "name": "_brand",
          "type": "string"
        }
      ],
      "name": "setBrand",
      "outputs": [],
      "stateMutability": "nonpayable",
      "type": "function"
    },
    {
      "inputs": [],
      "name": "symbol",
      "outputs": [
        {
          "internalType": "string",
          "name": "",
          "type": "string"
        }
      ],
      "stateMutability": "view",
      "type": "function"
    },
    {
      "inputs": [],
      "name": "totalSupply",
      "outputs": [
        {
          "internalType": "uint256",
          "name": "",
          "type": "uint256"
        }
      ],
      "stateMutability": "view",
      "type": "function"
    },
    {
      "inputs": [
        {
          "internalType": "address",
          "name": "to",
          "type": "address"
        },
        {
          "internalType": "uint256",
          "name": "value",
          "type": "uint256"
        }
      ],
      "name": "transfer",
      "outputs": [
        {
          "internalType": "bool",
          "name": "",
          "type": "bool"
        }
      ],
      "stateMutability": "nonpayable",
      "type": "function"
    },
    {
      "inputs": [
        {
          "internalType": "address",
          "name": "from",
          "type": "address"
        },
        {
          "internalType": "address",
          "name": "to",
          "type": "address"
        },
        {
          "internalType": "uint256",
          "name": "value",
          "type": "uint256"
        }
      ],
      "name": "transferFrom",
      "outputs": [
        {
          "internalType": "bool",
          "name": "",
          "type": "bool"
        }
      ],
      "stateMutability": "nonpayable",
      "type": "function"
    }
  ],
  "bytecode": "0x60806040523461002b5761001a610014610156565b90610185565b604051610d916106378239610d9190f35b600080fd5b634e487b7160e01b600052604160045260246000fd5b90601f01601f191681019081106001600160401b0382111761006757604052565b610030565b9061008061007960405190565b9283610046565b565b6001600160401b03811161006757602090601f01601f19160190565b60005b8381106100b15750506000910152565b81810151838201526020016100a1565b909291926100d66100d182610082565b61006c565b938185528183011161002b5761008091602085019061009e565b9080601f8301121561002b57815161010a926020016100c1565b90565b91909160408184031261002b5780516001600160401b03811161002b57836101369183016100f0565b60208201519093906001600160401b03811161002b5761010a92016100f0565b6101746113e8803803806101698161006c565b92833981019061010d565b9091565b61010a61010a61010a9290565b9061018f916101a6565b6100806101a064174876e800610178565b336103d0565b906100809161037b565b634e487b7160e01b600052602260045260246000fd5b90600160028304921680156101e6575b60208310146101e157565b6101b0565b91607f16916101d6565b9160001960089290920291821b911b5b9181191691161790565b919061021b61010a61022393610178565b9083546101f0565b9055565b6100809160009161020a565b81811061023e575050565b8061024c6000600193610227565b01610233565b9190601f811161026157505050565b61027361008093600052602060002090565b906020601f840181900483019310610295575b6020601f909101040190610233565b9091508190610286565b906102a8815190565b906001600160401b038211610067576102cb826102c585546101c6565b85610252565b602090601f8311600114610306576102239291600091836102fb575b5050600019600883021c1916906002021790565b0151905038806102e7565b601f1983169161031b85600052602060002090565b9260005b81811061035957509160029391856001969410610340575b50505002019055565b01516000196008601f8516021c19169055388080610337565b9193602060018192878701518155019501920161031f565b906100809161029f565b9061038a610080926003610371565b6004610371565b61039e61010a61010a9290565b6001600160a01b031690565b61010a90610391565b6103bc9061039e565b9052565b60208101929161008091906103b3565b91906103dc60006103aa565b926103e68461039e565b6103ef8261039e565b146103fe5761008092936104e8565b6104218461040b60405190565b63ec442f0560e01b8152918291600483016103c0565b0390fd5b61010a9061039e906001600160a01b031682565b61010a90610425565b61010a90610439565b9061045590610442565b600052602052604060002090565b61010a9081565b61010a9054610463565b60409061049b6100809496959396610494606084019860008501906103b3565b6020830152565b0152565b9060001990610200565b906104b961010a61022392610178565b825461049f565b634e487b7160e01b600052601160045260246000fd5b919082018092116104e357565b6104c0565b8160006104f4816103aa565b6104fd8161039e565b6105068561039e565b036105bc576000805160206113c8833981519152936105939361057c9361054c610576946105476105408c61053b600261046a565b6104d6565b60026104a9565b61039e565b6105558361039e565b036105985750506105716105408861056d600261046a565b0390565b610442565b93610442565b9361058660405190565b9182918290815260200190565b0390a3565b610571916105a59161044b565b6105b6896105b28361046a565b0190565b906104a9565b9091506105d16105cc848461044b565b61046a565b858110610612576000805160206113c883398151915293856105939461054c61057c956105476106038c610576980390565b61060d878661044b565b6104a9565b836104218761062060405190565b63391434e360e21b81529384936004850161047456fe6080604052600436101561001257600080fd5b60003560e01c806306fdde03146100f2578063095ea7b3146100ed57806318160ddd146100e857806323b872dd146100e35780632d9fff01146100de578063313ce567146100d957806340c10f19146100d457806342966c68146100cf57806370a08231146100ca57806379cc6790146100c557806395d89b41146100c0578063a9059cbb146100bb578063c1fd4137146100b65763dd62ed3e0361010257610602565b6105c7565b6104fe565b6104e3565b6104ca565b6104af565b610483565b610451565b610422565b610407565b610287565b610232565b610204565b610176565b600091031261010257565b600080fd5b60005b83811061011a5750506000910152565b818101518382015260200161010a565b61014b61015460209361015e9361013f815190565b80835293849260200190565b95869101610107565b601f01601f191690565b0190565b60208082526101739291019061012a565b90565b34610102576101863660046100f7565b61019d610191610627565b60405191829182610162565b0390f35b6001600160a01b031690565b6001600160a01b0381165b0361010257565b905035906101cc826101ad565b565b806101b8565b905035906101cc826101ce565b9190604083820312610102576101739060206101fd82866101bf565b94016101d4565b346101025761019d61022061021a3660046101e1565b90610631565b60405191829182901515815260200190565b34610102576102423660046100f7565b61019d61024d610652565b6040515b9182918290815260200190565b90916060828403126101025761017361027784846101bf565b9360406101fd82602087016101bf565b346101025761019d61022061029d36600461025e565b9161065c565b634e487b7160e01b600052600060045260246000fd5b634e487b7160e01b600052602260045260246000fd5b90600160028304921680156102ef575b60208310146102ea57565b6102b9565b91607f16916102df565b8054600093929161031661030c836102cf565b8085529360200190565b9160018116908115610368575060011461032f57505050565b6103429192939450600052602060002090565b916000925b8184106103545750500190565b805484840152602090930192600101610347565b92949550505060ff1916825215156020020190565b90610173916102f9565b634e487b7160e01b600052604160045260246000fd5b90601f01601f1916810190811067ffffffffffffffff8211176103bf57604052565b610387565b906101cc6103de926103d560405190565b9384809261037d565b038361039d565b906000106103f657610173906103c4565b6102a3565b610173600060056103e5565b34610102576104173660046100f7565b61019d6101916103fb565b34610102576104323660046100f7565b61019d61043d610686565b6040519182918260ff909116815260200190565b346101025761046a6104643660046101e1565b90610690565b604051005b9060208282031261010257610173916101d4565b346101025761046a61049636600461046f565b61069a565b9060208282031261010257610173916101bf565b346101025761019d61024d6104c536600461049b565b6106e7565b346101025761046a6104dd3660046101e1565b90610703565b34610102576104f33660046100f7565b61019d610191610712565b346101025761019d6102206105143660046101e1565b9061071c565b906101cc61052760405190565b928361039d565b67ffffffffffffffff81116103bf57602090601f01601f19160190565b90826000939282370152565b9092919261056c6105678261052e565b61051a565b9381855281830111610102576101cc91602085019061054b565b9080601f830112156101025781602061017393359101610557565b9060208282031261010257813567ffffffffffffffff8111610102576101739201610586565b346101025761046a6105da3660046105a1565b6108c0565b9190604083820312610102576101739060206105fb82866101bf565b94016101bf565b346101025761019d61024d6106183660046105df565b906108cb565b610173906103c4565b610173600361061e565b61063c9190336108eb565b600190565b6101739081565b6101739054610641565b6101736002610648565b61063c92919061066e83335b83610923565b6109a2565b6106806101736101739290565b60ff1690565b6101736012610673565b906101cc91610a4f565b6101cc9033610a8c565b610a8c565b610173906101a1906001600160a01b031682565b610173906106a9565b610173906106bd565b906106d9906106c6565b600052602052604060002090565b6106fe610173916106f6600090565b5060006106cf565b610648565b6101cc91906106a48233610668565b610173600461061e565b61063c9190336109a2565b9160001960089290920291821b911b5b9181191691161790565b6101736101736101739290565b919061075f61017361076793610741565b908354610727565b9055565b6101cc9160009161074e565b818110610782575050565b80610790600060019361076b565b01610777565b9190601f81116107a557505050565b6107b76101cc93600052602060002090565b906020601f8401819004830193106107d9575b6020601f909101040190610777565b90915081906107ca565b906107ec815190565b9067ffffffffffffffff82116103bf576108108261080a85546102cf565b85610796565b602090601f831160011461084b57610767929160009183610840575b5050600019600883021c1916906002021790565b01519050388061082c565b601f1983169161086085600052602060002090565b9260005b81811061089e57509160029391856001969410610885575b50505002019055565b01516000196008601f8516021c1916905538808061087c565b91936020600181928787015181550195019201610864565b906101cc916107e3565b6101cc9060056108b6565b610173916108e66106fe926108de600090565b5060016106cf565b6106cf565b916001916101cc93610aeb565b6001600160a01b0390911681526060810193926101cc92909160409161091f906020830152565b0152565b9161092e82846108cb565b600019810361093e575b50505050565b818110610964579161095561095b94926000940390565b91610aeb565b38808080610938565b826109888361097260405190565b637dc7a0d960e11b8152938493600485016108f8565b0390fd5b6101a16101736101739290565b6101739061098c565b9291906109af6000610999565b936001600160a01b0385166001600160a01b03821614610a1e576001600160a01b0385166001600160a01b038316146109ed576101cc939450610c1b565b610988856109fa60405190565b63ec442f0560e01b8152918291600483016001600160a01b03909116815260200190565b61098885610a2b60405190565b634b637e8f60e11b8152918291600483016001600160a01b03909116815260200190565b9190610a5b6000610999565b926001600160a01b0384166001600160a01b03821614610a7f576101cc9293610c1b565b610988846109fa60405190565b9190610a986000610999565b926001600160a01b0384166001600160a01b03821614610abd57926101cc9293610c1b565b61098884610a2b60405190565b9060001990610737565b90610ae461017361076792610741565b8254610aca565b909192610af86000610999565b6001600160a01b0381166001600160a01b03841614610bc2576001600160a01b0381166001600160a01b03851614610b915750610b4384610b3e856108e68660016106cf565b610ad4565b610b4c57505050565b610b8c610b82610b7c7f8c5be1e5ebec7d5bd14f71427d1e84f3dd0314c0f7b2291e5b200ac8c7c3b925936106c6565b936106c6565b9361025160405190565b0390a3565b61098890610b9e60405190565b634a1406b160e11b8152918291600483016001600160a01b03909116815260200190565b61098890610bcf60405190565b63e602df0560e01b8152918291600483016001600160a01b03909116815260200190565b634e487b7160e01b600052601160045260246000fd5b91908201809211610c1657565b610bf3565b816000610c2781610999565b6001600160a01b0381166001600160a01b03851603610cd9577fddf252ad1be2c89b69c2b068fc378daa952ba7f163c4a11628f55a4df523b3ef93610b8c93610b8293610c8e610b7c946101a1610c878c610c826002610648565b610c09565b6002610ad4565b6001600160a01b03831603610cb9575050610cb4610c8788610cb06002610648565b0390565b6106c6565b610cb491610cc6916106cf565b610cd38961015e83610648565b90610ad4565b909150610ce96106fe84846106cf565b858110610d37577fddf252ad1be2c89b69c2b068fc378daa952ba7f163c4a11628f55a4df523b3ef9385610b8c94610c8e610b82956101a1610d2d8c610b7c980390565b610b3e87866106cf565b8361098887610d4560405190565b63391434e360e21b8152938493600485016108f856fea2646970667358221220d91a3c478b6e2888ed4e02e68759c74060ed774452d518b316dfee2f8832a3bc64736f6c63430008190033ddf252ad1be2c89b69c2b068fc378daa952ba7f163c4a11628f55a4df523b3ef",
  "linkReferences": {},
  "deployedLinkReferences": {}
}