{
  "_format": "hh-sol-artifact-1",
  "contractName": "SimplePoseidon",
  "sourceName": "contracts/hamsa/poseidon/SimplePoseidon.sol",
  "abi": [
    {
      "inputs": [
        {
          "internalType": "bytes32",
          "name": "input0",
          "type": "bytes32"
        },
        {
          "internalType": "bytes32",
          "name": "input1",
          "type": "bytes32"
        }
      ],
      "name": "hash2",
      "outputs": [
        {
          "internalType": "bytes32",
          "name": "",
          "type": "bytes32"
        }
      ],
      "stateMutability": "pure",
      "type": "function"
    }
  ],
  "bytecode": "0x6080604052346019576040516101b061001f82396101b090f35b600080fdfe6080604052600436101561001257600080fd5b63b30c0b6a60003560e01c14610055575b600080fd5b905035905b565b91906040838203126100235761005290602061004b8286610028565b9401610028565b90565b346100235761008161007161006b36600461002f565b906100f1565b6040519182918290815260200190565b0390f35b634e487b7160e01b600052604160045260246000fd5b90601f01601f1916810190811067ffffffffffffffff8211176100bd57604052565b610085565b9060208282031261002357505190565b90815260408101929161002d9160200152565b6040513d6000823e3d90fd5b6101369160209173__$3fefee019f64847f75333f15ea599696ab$__9061011760405190565b80958194829361012b63b30c0b6a60e01b90565b8452600484016100d2565b03915af49081156101755760009161014c575090565b610052915060203d60201161016e575b610166818361009b565b8101906100c2565b503d61015c565b6100e556fea2646970667358221220c07b5dc817c4f8b27f531fef11abb85e18b2da53d59b27ff15830eeb437ac70264736f6c63430008190033",
  "linkReferences": {
    "contracts/hamsa/poseidon/PoseidonHasher.sol": {
      "PoseidonU2bn256Hasher": [
        {
          "length": 20,
          "start": 281
        }
      ]
    }
  },
  "deployedLinkReferences": {
    "contracts/hamsa/poseidon/PoseidonHasher.sol": {
      "PoseidonU2bn256Hasher": [
        {
          "length": 20,
          "start": 250
        }
      ]
    }
  }
}