{
  "_format": "hh-sol-artifact-1",
  "contractName": "HamsaToken",
  "sourceName": "contracts/hamsa/ucl/HamsaToken.sol",
  "abi": [
    {
      "inputs": [],
      "stateMutability": "nonpayable",
      "type": "constructor"
    },
    {
      "inputs": [
        {
          "internalType": "address",
          "name": "spender",
          "type": "address"
        },
        {
          "internalType": "uint256",
          "name": "allowance",
          "type": "uint256"
        },
        {
          "internalType": "uint256",
          "name": "needed",
          "type": "uint256"
        }
      ],
      "name": "ERC20InsufficientAllowance",
      "type": "error"
    },
    {
      "inputs": [
        {
          "internalType": "address",
          "name": "sender",
          "type": "address"
        },
        {
          "internalType": "uint256",
          "name": "balance",
          "type": "uint256"
        },
        {
          "internalType": "uint256",
          "name": "needed",
          "type": "uint256"
        }
      ],
      "name": "ERC20InsufficientBalance",
      "type": "error"
    },
    {
      "inputs": [
        {
          "internalType": "address",
          "name": "approver",
          "type": "address"
        }
      ],
      "name": "ERC20InvalidApprover",
      "type": "error"
    },
    {
      "inputs": [
        {
          "internalType": "address",
          "name": "receiver",
          "type": "address"
        }
      ],
      "name": "ERC20InvalidReceiver",
      "type": "error"
    },
    {
      "inputs": [
        {
          "internalType": "address",
          "name": "sender",
          "type": "address"
        }
      ],
      "name": "ERC20InvalidSender",
      "type": "error"
    },
    {
      "inputs": [
        {
          "internalType": "address",
          "name": "spender",
          "type": "address"
        }
      ],
      "name": "ERC20InvalidSpender",
      "type": "error"
    },
    {
      "anonymous": false,
      "inputs": [
        {
          "indexed": true,
          "internalType": "address",
          "name": "owner",
          "type": "address"
        },
        {
          "indexed": true,
          "internalType": "address",
          "name": "spender",
          "type": "address"
        },
        {
          "indexed": false,
          "internalType": "uint256",
          "name": "value",
          "type": "uint256"
        }
      ],
      "name": "Approval",
      "type": "event"
    },
    {
      "anonymous": false,
      "inputs": [
        {
          "indexed": true,
          "internalType": "address",
          "name": "burner",
          "type": "address"
        },
        {
          "indexed": true,
          "internalType": "address",
          "name": "account",
          "type": "address"
        },
        {
          "indexed": false,
          "internalType": "uint256",
          "name": "value",
          "type": "uint256"
        },
        {
          "indexed": false,
          "internalType": "uint256",
          "name": "fromBalance",
          "type": "uint256"
        },
        {
          "indexed": false,
          "internalType": "uint256",
          "name": "toBalance",
          "type": "uint256"
        }
      ],
      "name": "HamsaBurnMade",
      "type": "event"
    },
    {
      "anonymous": false,
      "inputs": [
        {
          "indexed": true,
          "internalType": "address",
          "name": "account",
          "type": "address"
        },
        {
          "indexed": true,
          "internalType": "address",
          "name": "minter",
          "type": "address"
        },
        {
          "indexed": false,
          "internalType": "uint256",
          "name": "value",
          "type": "uint256"
        },
        {
          "indexed": false,
          "internalType": "uint256",
          "name": "fromBalance",
          "type": "uint256"
        },
        {
          "indexed": false,
          "internalType": "uint256",
          "name": "toBalance",
          "type": "uint256"
        }
      ],
      "name": "HamsaMintMade",
      "type": "event"
    },
    {
      "anonymous": false,
      "inputs": [
        {
          "indexed": true,
          "internalType": "address",
          "name": "from",
          "type": "address"
        },
        {
          "indexed": true,
          "internalType": "address",
          "name": "to",
          "type": "address"
        },
        {
          "indexed": false,
          "internalType": "uint256",
          "name": "value",
          "type": "uint256"
        },
        {
          "indexed": false,
          "internalType": "uint256",
          "name": "fromBalance",
          "type": "uint256"
        },
        {
          "indexed": false,
          "internalType": "uint256",
          "name": "toBalance",
          "type": "uint256"
        }
      ],
      "name": "HamsaTransferMade",
      "type": "event"
    },
    {
      "anonymous": false,
      "inputs": [
        {
          "indexed": true,
          "internalType": "address",
          "name": "from",
          "type": "address"
        },
        {
          "indexed": true,
          "internalType": "address",
          "name": "to",
          "type": "address"
        },
        {
          "indexed": false,
          "internalType": "uint256",
          "name": "value",
          "type": "uint256"
        }
      ],
      "name": "Transfer",
      "type": "event"
    },
    {
      "inputs": [],
      "name": "admin",
      "outputs": [
        {
          "internalType": "address",
          "name": "",
          "type": "address"
        }
      ],
      "stateMutability": "view",
      "type": "function"
    },
    {
      "inputs": [
        {
          "internalType": "address",
          "name": "",
          "type": "address"
        }
      ],
      "name": "allDeposit",
      "outputs": [
        {
          "internalType": "address",
          "name": "account",
          "type": "address"
        },
        {
          "internalType": "uint256",
          "name": "value",
          "type": "uint256"
        }
      ],
      "stateMutability": "view",
      "type": "function"
    },
    {
      "inputs": [
        {
          "internalType": "address",
          "name": "owner",
          "type": "address"
        },
        {
          "internalType": "address",
          "name": "spender",
          "type": "address"
        }
      ],
      "name": "allowance",
      "outputs": [
        {
          "internalType": "uint256",
          "name": "",
          "type": "uint256"
        }
      ],
      "stateMutability": "view",
      "type": "function"
    },
    {
      "inputs": [
        {
          "internalType": "address",
          "name": "spender",
          "type": "address"
        },
        {
          "internalType": "uint256",
          "name": "amount",
          "type": "uint256"
        }
      ],
      "name": "approve",
      "outputs": [
        {
          "internalType": "bool",
          "name": "",
          "type": "bool"
        }
      ],
      "stateMutability": "nonpayable",
      "type": "function"
    },
    {
      "inputs": [
        {
          "internalType": "address",
          "name": "account",
          "type": "address"
        }
      ],
      "name": "balanceOf",
      "outputs": [
        {
          "internalType": "uint256",
          "name": "",
          "type": "uint256"
        }
      ],
      "stateMutability": "view",
      "type": "function"
    },
    {
      "inputs": [
        {
          "internalType": "uint256",
          "name": "amount",
          "type": "uint256"
        }
      ],
      "name": "burn",
      "outputs": [],
      "stateMutability": "nonpayable",
      "type": "function"
    },
    {
      "inputs": [
        {
          "internalType": "address",
          "name": "account",
          "type": "address"
        },
        {
          "internalType": "uint256",
          "name": "value",
          "type": "uint256"
        }
      ],
      "name": "burnFrom",
      "outputs": [],
      "stateMutability": "nonpayable",
      "type": "function"
    },
    {
      "inputs": [],
      "name": "decimals",
      "outputs": [
        {
          "internalType": "uint8",
          "name": "",
          "type": "uint8"
        }
      ],
      "stateMutability": "view",
      "type": "function"
    },
    {
      "inputs": [
        {
          "internalType": "address",
          "name": "depositor",
          "type": "address"
        },
        {
          "internalType": "address",
          "name": "account",
          "type": "address"
        },
        {
          "internalType": "uint256",
          "name": "amount",
          "type": "uint256"
        }
      ],
      "name": "deposit",
      "outputs": [],
      "stateMutability": "nonpayable",
      "type": "function"
    },
    {
      "inputs": [
        {
          "internalType": "address",
          "name": "account",
          "type": "address"
        },
        {
          "internalType": "address",
          "name": "freezer",
          "type": "address"
        },
        {
          "internalType": "uint256",
          "name": "amount",
          "type": "uint256"
        }
      ],
      "name": "freezeAccount",
      "outputs": [],
      "stateMutability": "nonpayable",
      "type": "function"
    },
    {
      "inputs": [
        {
          "internalType": "address",
          "name": "",
          "type": "address"
        }
      ],
      "name": "frozen",
      "outputs": [
        {
          "internalType": "address",
          "name": "account",
          "type": "address"
        },
        {
          "internalType": "uint256",
          "name": "value",
          "type": "uint256"
        }
      ],
      "stateMutability": "view",
      "type": "function"
    },
    {
      "inputs": [
        {
          "internalType": "address",
          "name": "from",
          "type": "address"
        },
        {
          "internalType": "address",
          "name": "to",
          "type": "address"
        }
      ],
      "name": "getFromAndToBalance",
      "outputs": [
        {
          "internalType": "uint256",
          "name": "",
          "type": "uint256"
        },
        {
          "internalType": "uint256",
          "name": "",
          "type": "uint256"
        }
      ],
      "stateMutability": "view",
      "type": "function"
    },
    {
      "inputs": [
        {
          "internalType": "address",
          "name": "account",
          "type": "address"
        },
        {
          "internalType": "uint256",
          "name": "amount",
          "type": "uint256"
        }
      ],
      "name": "mint",
      "outputs": [],
      "stateMutability": "nonpayable",
      "type": "function"
    },
    {
      "inputs": [],
      "name": "name",
      "outputs": [
        {
          "internalType": "string",
          "name": "",
          "type": "string"
        }
      ],
      "stateMutability": "view",
      "type": "function"
    },
    {
      "inputs": [],
      "name": "symbol",
      "outputs": [
        {
          "internalType": "string",
          "name": "",
          "type": "string"
        }
      ],
      "stateMutability": "view",
      "type": "function"
    },
    {
      "inputs": [],
      "name": "totalSupply",
      "outputs": [
        {
          "internalType": "uint256",
          "name": "",
          "type": "uint256"
        }
      ],
      "stateMutability": "view",
      "type": "function"
    },
    {
      "inputs": [
        {
          "internalType": "address",
          "name": "to",
          "type": "address"
        },
        {
          "internalType": "uint256",
          "name": "amount",
          "type": "uint256"
        }
      ],
      "name": "transfer",
      "outputs": [
        {
          "internalType": "bool",
          "name": "",
          "type": "bool"
        }
      ],
      "stateMutability": "nonpayable",
      "type": "function"
    },
    {
      "inputs": [
        {
          "internalType": "address",
          "name": "from",
          "type": "address"
        },
        {
          "internalType": "address",
          "name": "to",
          "type": "address"
        },
        {
          "internalType": "uint256",
          "name": "value",
          "type": "uint256"
        }
      ],
      "name": "transferFrom",
      "outputs": [
        {
          "internalType": "bool",
          "name": "",
          "type": "bool"
        }
      ],
      "stateMutability": "nonpayable",
      "type": "function"
    },
    {
      "inputs": [
        {
          "internalType": "address",
          "name": "account",
          "type": "address"
        },
        {
          "internalType": "address",
          "name": "unfreezer",
          "type": "address"
        },
        {
          "internalType": "uint256",
          "name": "amount",
          "type": "uint256"
        }
      ],
      "name": "unfreezeAccount",
      "outputs": [],
      "stateMutability": "nonpayable",
      "type": "function"
    },
    {
      "inputs": [
        {
          "internalType": "address",
          "name": "withdrawer",
          "type": "address"
        },
        {
          "internalType": "address",
          "name": "account",
          "type": "address"
        },
        {
          "internalType": "uint256",
          "name": "amount",
          "type": "uint256"
        }
      ],
      "name": "withdraw",
      "outputs": [],
      "stateMutability": "nonpayable",
      "type": "function"
    }
  ],
  "bytecode": "0x60806040523461002257610011610167565b6040516110746105f7823961107490f35b600080fd5b634e487b7160e01b600052604160045260246000fd5b90601f01601f191681019081106001600160401b0382111761005e57604052565b610027565b9061007761007060405190565b928361003d565b565b6001600160401b03811161005e57602090601f01601f19160190565b906100a76100a283610079565b610063565b918252565b6100b6600a610095565b692430b6b9b0aa37b5b2b760b11b602082015290565b6100d46100ac565b90565b6100e16003610095565b6212135560ea1b602082015290565b6100d46100d7565b906001600160a01b03905b9181191691161790565b6100d490610121906001600160a01b031682565b6001600160a01b031690565b6100d49061010d565b6100d49061012d565b9061014f6100d461015692610136565b82546100f8565b9055565b6100d46100d46100d49290565b6101806101726100cc565b61017a6100f0565b906101a2565b61018b33600561013f565b61007761019c64174876e80061015a565b336103b6565b906100779161036d565b634e487b7160e01b600052602260045260246000fd5b90600160028304921680156101e2575b60208310146101dd57565b6101ac565b91607f16916101d2565b9160001960089290920291821b911b610103565b91906102116100d46101569361015a565b9083546101ec565b61007791600091610200565b818110610230575050565b8061023e6000600193610219565b01610225565b9190601f811161025357505050565b61026561007793600052602060002090565b906020601f840181900483019310610287575b6020601f909101040190610225565b9091508190610278565b9061029a815190565b906001600160401b03821161005e576102bd826102b785546101c2565b85610244565b602090601f83116001146102f8576101569291600091836102ed575b5050600019600883021c1916906002021790565b0151905038806102d9565b601f1983169161030d85600052602060002090565b9260005b81811061034b57509160029391856001969410610332575b50505002019055565b01516000196008601f8516021c19169055388080610329565b91936020600181928787015181550195019201610311565b9061007791610291565b9061037c610077926003610363565b6004610363565b6101216100d46100d49290565b6100d490610383565b6103a290610121565b9052565b6020810192916100779190610399565b91906103c26000610390565b926103cc84610121565b6103d582610121565b146103e45761007792936104a8565b610407846103f160405190565b63ec442f0560e01b8152918291600483016103a6565b0390fd5b9061041590610136565b600052602052604060002090565b6100d49081565b6100d49054610423565b60409061045b610077949695939661045460608401986000850190610399565b6020830152565b0152565b9060001990610103565b906104796100d46101569261015a565b825461045f565b634e487b7160e01b600052601160045260246000fd5b919082018092116104a357565b610480565b8160006104b481610390565b6104bd81610121565b6104c685610121565b0361057c5760008051602061166b833981519152936105539361053c9361050c610536946105076105008c6104fb600261042a565b610496565b6002610469565b610121565b61051583610121565b036105585750506105316105008861052d600261042a565b0390565b610136565b93610136565b9361054660405190565b9182918290815260200190565b0390a3565b610531916105659161040b565b610576896105728361042a565b0190565b90610469565b90915061059161058c848461040b565b61042a565b8581106105d25760008051602061166b83398151915293856105539461050c61053c956105076105c38c610536980390565b6105cd878661040b565b610469565b83610407876105e060405190565b63391434e360e21b81529384936004850161043456fe6080604052600436101561001257600080fd5b60003560e01c806306fdde0314610152578063095ea7b31461014d57806318160ddd1461014857806323b872dd14610143578063313ce5671461013e57806332af79081461013957806340c10f191461013457806342966c681461012f57806370a082311461012a57806374ea49fd1461012557806379cc6790146101205780637b479db01461011b5780638340f5491461011657806395d89b4114610111578063a9059cbb1461010c578063cb45d35214610107578063d051665014610102578063d9caed12146100fd578063dd62ed3e146100f85763f851a44003610162576105fd565b6105bd565b6105a4565b61058c565b610553565b610497565b61047c565b610463565b61044a565b610431565b610402565b6103ad565b610381565b610354565b610336565b610307565b6102eb565b610296565b610268565b6101d6565b600091031261016257565b600080fd5b60005b83811061017a5750506000910152565b818101518382015260200161016a565b6101ab6101b46020936101be9361019f815190565b80835293849260200190565b95869101610167565b601f01601f191690565b0190565b60208082526101d39291019061018a565b90565b34610162576101e6366004610157565b6101fd6101f1610767565b604051918291826101c2565b0390f35b6001600160a01b031690565b6001600160a01b0381165b0361016257565b9050359061022c8261020d565b565b80610218565b9050359061022c8261022e565b9190604083820312610162576101d390602061025d828661021f565b9401610234565b9052565b34610162576101fd61028461027e366004610241565b90610771565b60405191829182901515815260200190565b34610162576102a6366004610157565b6101fd6102b161078d565b6040515b9182918290815260200190565b9091606082840312610162576101d36102db848461021f565b93604061025d826020870161021f565b34610162576101fd6102846103013660046102c2565b91610797565b3461016257610317366004610157565b6101fd6103226107c1565b6040519182918260ff909116815260200190565b346101625761034f6103493660046102c2565b91610986565b604051005b346101625761034f610367366004610241565b906109d0565b90602082820312610162576101d391610234565b346101625761034f61039436600461036d565b610a61565b90602082820312610162576101d39161021f565b34610162576101fd6102b16103c3366004610399565b610ac9565b9190604083820312610162576101d39060206103e4828661021f565b940161021f565b90815260408101929161022c9160200152565b0152565b346101625761041b6104153660046103c8565b90610ae5565b906101fd61042860405190565b928392836103eb565b346101625761034f610444366004610241565b90610b2c565b346101625761034f61045d3660046102c2565b91610b40565b346101625761034f6104763660046102c2565b91610b5f565b346101625761048c366004610157565b6101fd6101f1610b76565b34610162576101fd6102846104ad366004610241565b90610b9b565b6101d390610201906001600160a01b031682565b6101d3906104b3565b6101d3906104c7565b906104e3906104d0565b600052602052604060002090565b6101d390610201565b6101d390546104f1565b6101d39081565b6101d39054610504565b6105209060066104d9565b906101d3600161052f846104fa565b930161050b565b6001600160a01b03909116815260408101929161022c9160200152565b346101625761056b610566366004610399565b610515565b906101fd61057860405190565b92839283610536565b6105209060076104d9565b346101625761056b61059f366004610399565b610581565b346101625761034f6105b73660046102c2565b91610bfc565b34610162576101fd6102b16105d33660046103c8565b90610c14565b6101d3916008021c610201565b906101d391546105d9565b6101d3600060056105e6565b346101625761060d366004610157565b6101fd6106186105f1565b604051918291826001600160a01b03909116815260200190565b634e487b7160e01b600052602260045260246000fd5b9060016002830492168015610668575b602083101461066357565b610632565b91607f1691610658565b8054600093929161068f61068583610648565b8085529360200190565b91600181169081156106e157506001146106a857505050565b6106bb9192939450600052602060002090565b916000925b8184106106cd5750500190565b8054848401526020909301926001016106c0565b92949550505060ff1916825215156020020190565b906101d391610672565b634e487b7160e01b600052604160045260246000fd5b90601f01601f1916810190811067ffffffffffffffff82111761073857604052565b610700565b9061022c6107579261074e60405190565b938480926106f6565b0383610716565b6101d39061073d565b6101d3600361075e565b61078891906107808133610ae5565b505033610c34565b600190565b6101d3600261050b565b6107889291906107a983335b83610c66565b610ccb565b6107bb6101d36101d39290565b60ff1690565b6101d360126107ae565b156107d257565b60405162461bcd60e51b815260206004820152602160248201527f4f6e6c792061646d696e2063616e2063616c6c20746869732066756e6374696f6044820152603760f91b6064820152608490fd5b0390fd5b9061022c929161084261083b61020160056104fa565b33146107cb565b610929565b634e487b7160e01b600052601160045260246000fd5b9190820391821161086a57565b610847565b9061022c61087c60405190565b9283610716565b6101d3604061086f565b906001600160a01b03905b9181191691161790565b906108b26101d36108b9926104d0565b825461088d565b9055565b9060001990610898565b6101d36101d36101d39290565b906108e46101d36108b9926108c7565b82546108bd565b6001610918602061022c9461091361090d60008301516001600160a01b031690565b866108a2565b015190565b91016108d4565b9061022c916108eb565b61095a61022c9361093d8461098194610ae5565b5050610955600161094f8660076104d9565b0161050b565b61085d565b9161097a610966610883565b6001600160a01b0383168152936020850152565b60076104d9565b61091f565b9061022c9291610825565b6102016101d36101d39290565b6101d390610991565b610264906108c7565b90815260608101939261022c9290916040916103fe9060208301906109a7565b7f4478062d19d94356eb43fbb12e9a9a000cd0ff0215a190bf50f7c77b986543a560006109fc83610ac9565b93610a078185610d78565b610a37610a24610a1e610a198561099e565b6104d0565b956104d0565b95610a2e60405190565b938493846109b0565b0390a3565b90815260608101939261022c929091604091610a5a905b6020830152565b01906109a7565b610a6a33610ac9565b610a7382610db5565b7f3dacbf7663256207552f3ac43a934b24090e458db526b6d5dc16070565e14d3c610a9e600061099e565b91610ab1610aab336104d0565b936104d0565b93610a376000610ac060405190565b93849384610a3c565b610ae06101d391610ad8600090565b5060006104d9565b61050b565b909190610af5610201600061099e565b6001600160a01b03841614610b1657610b106101d391610ac9565b92610ac9565b610b21919250610ac9565b906101d360006108c7565b61022c9190610b3b82336107a3565b610dbb565b81610b5261022c949361098193610ae5565b505061097a610966610883565b9061022c9291610b6f8282610ae5565b5050610ccb565b6101d3600461075e565b90815260608101939261022c9290916040916103fe90610a53565b7f96c30caa12e8db2ed81240b750fa268a5e0dd2f6d435caa442ba1bc54a439156610bc68233610ae5565b93610bd2818533610ccb565b610bf4610be1610a1e336104d0565b95610beb60405190565b93849384610b80565b0390a3600190565b61022c9291610b6f610c0e600061099e565b33610ae5565b6101d391610c2f610ae092610c27600090565b5060016104d9565b6104d9565b9160019161022c93610df9565b6001600160a01b03909116815260608101939261022c9290916040916103fe90610a53565b91610c718284610c14565b6000198103610c81575b50505050565b818110610ca75791610c98610c9e94926000940390565b91610df9565b38808080610c7b565b8261082183610cb560405190565b637dc7a0d960e11b815293849360048501610c41565b929190610cd8600061099e565b936001600160a01b0385166001600160a01b03821614610d47576001600160a01b0385166001600160a01b03831614610d165761022c939450610f03565b61082185610d2360405190565b63ec442f0560e01b8152918291600483016001600160a01b03909116815260200190565b61082185610d5460405190565b634b637e8f60e11b8152918291600483016001600160a01b03909116815260200190565b9190610d84600061099e565b926001600160a01b0384166001600160a01b03821614610da85761022c9293610f03565b61082184610d2360405190565b61022c90335b9190610dc7600061099e565b926001600160a01b0384166001600160a01b03821614610dec579261022c9293610f03565b61082184610d5460405190565b909192610e06600061099e565b6001600160a01b0381166001600160a01b03841614610ec5576001600160a01b0381166001600160a01b03851614610e945750610e5184610e4c85610c2f8660016104d9565b6108d4565b610e5a57505050565b610a37610e8a610aab7f8c5be1e5ebec7d5bd14f71427d1e84f3dd0314c0f7b2291e5b200ac8c7c3b925936104d0565b936102b560405190565b61082190610ea160405190565b634a1406b160e11b8152918291600483016001600160a01b03909116815260200190565b61082190610ed260405190565b63e602df0560e01b8152918291600483016001600160a01b03909116815260200190565b9190820180921161086a57565b816000610f0f8161099e565b6001600160a01b0381166001600160a01b03851603610fbc577fddf252ad1be2c89b69c2b068fc378daa952ba7f163c4a11628f55a4df523b3ef93610a3793610e8a93610f76610aab94610201610f6f8c610f6a600261050b565b610ef6565b60026108d4565b6001600160a01b03831603610f9c575050610a19610f6f88610f98600261050b565b0390565b610a1991610fa9916104d9565b610fb6896101be8361050b565b906108d4565b909150610fcc610ae084846104d9565b85811061101a577fddf252ad1be2c89b69c2b068fc378daa952ba7f163c4a11628f55a4df523b3ef9385610a3794610f76610e8a956102016110108c610aab980390565b610e4c87866104d9565b836108218761102860405190565b63391434e360e21b815293849360048501610c4156fea2646970667358221220af9b5a12ec6eebd5852bffea7e0eb56a19c04638a01ad9b5cd3a63811e0da74764736f6c63430008190033ddf252ad1be2c89b69c2b068fc378daa952ba7f163c4a11628f55a4df523b3ef",
  "linkReferences": {},
  "deployedLinkReferences": {}
}