{
  "_format": "hh-sol-artifact-1",
  "contractName": "RealTokenizadoFactory",
  "sourceName": "contracts/hamsa/drex-connect/RealTokenizadoFactory.sol",
  "abi": [
    {
      "anonymous": false,
      "inputs": [
        {
          "indexed": true,
          "internalType": "address",
          "name": "tokenAddress",
          "type": "address"
        }
      ],
      "name": "realTokenizadoCreated",
      "type": "event"
    },
    {
      "inputs": [],
      "name": "ACCESS_ROLE",
      "outputs": [
        {
          "internalType": "bytes32",
          "name": "",
          "type": "bytes32"
        }
      ],
      "stateMutability": "view",
      "type": "function"
    },
    {
      "inputs": [],
      "name": "BURNER_ROLE",
      "outputs": [
        {
          "internalType": "bytes32",
          "name": "",
          "type": "bytes32"
        }
      ],
      "stateMutability": "view",
      "type": "function"
    },
    {
      "inputs": [],
      "name": "FREEZER_ROLE",
      "outputs": [
        {
          "internalType": "bytes32",
          "name": "",
          "type": "bytes32"
        }
      ],
      "stateMutability": "view",
      "type": "function"
    },
    {
      "inputs": [],
      "name": "MINTER_ROLE",
      "outputs": [
        {
          "internalType": "bytes32",
          "name": "",
          "type": "bytes32"
        }
      ],
      "stateMutability": "view",
      "type": "function"
    },
    {
      "inputs": [],
      "name": "MOVER_ROLE",
      "outputs": [
        {
          "internalType": "bytes32",
          "name": "",
          "type": "bytes32"
        }
      ],
      "stateMutability": "view",
      "type": "function"
    },
    {
      "inputs": [],
      "name": "MaxUint256",
      "outputs": [
        {
          "internalType": "uint256",
          "name": "",
          "type": "uint256"
        }
      ],
      "stateMutability": "view",
      "type": "function"
    },
    {
      "inputs": [],
      "name": "PAUSER_ROLE",
      "outputs": [
        {
          "internalType": "bytes32",
          "name": "",
          "type": "bytes32"
        }
      ],
      "stateMutability": "view",
      "type": "function"
    },
    {
      "inputs": [
        {
          "internalType": "string",
          "name": "_name",
          "type": "string"
        },
        {
          "internalType": "string",
          "name": "_symbol",
          "type": "string"
        },
        {
          "internalType": "address",
          "name": "_authority",
          "type": "address"
        },
        {
          "internalType": "string",
          "name": "_participant",
          "type": "string"
        },
        {
          "internalType": "uint256",
          "name": "_cnpj8",
          "type": "uint256"
        },
        {
          "internalType": "address",
          "name": "_reserve",
          "type": "address"
        }
      ],
      "name": "createRealTokenizado",
      "outputs": [
        {
          "internalType": "address",
          "name": "",
          "type": "address"
        }
      ],
      "stateMutability": "nonpayable",
      "type": "function"
    }
  ],
  "bytecode": "0x608060405234601f57600e6041565b604051612f2e61004f8239612f2e90f35b600080fd5b602e602e602e9290565b90565b90602e602e603d926024565b9055565b604c60001960006031565b56fe6080604052600436101561001257600080fd5b60003560e01c806306a85f0f14610092578063282c51f31461008d578063286041bd146100885780633c806be0146100835780633cd94f2a1461007e57806356b855aa14610079578063d5391393146100745763e63ab1e9036100a2576103ef565b6103b6565b61037d565b610362565b610313565b61012e565b6100f5565b6100ac565b60009103126100a257565b600080fd5b90565b565b346100a2576100bc366004610097565b6100f17f92de27771f92d6942691d73358b3a4673e4880de8356f8f2cf452be87e02d3635b6040519182918290815260200190565b0390f35b346100a257610105366004610097565b6100f17f3c11d16cbaffd01df69ce1c404f6340ee057498f5f00246190ea54220576a8486100e1565b346100a25761013e366004610097565b6100f17fe5ed70e23144309ce456cb48bf5e6d0d8e160f094a6d65ecf1d5b03cf292d8e66100e1565b634e487b7160e01b600052604160045260246000fd5b90601f01601f1916810190811067ffffffffffffffff82111761019f57604052565b610167565b906100aa6101b160405190565b928361017d565b67ffffffffffffffff811161019f57602090601f01601f19160190565b0190565b90826000939282370152565b909291926101fa6101f5826101b8565b6101a4565b93818552818301116100a2576100aa9160208501906101d9565b9080601f830112156100a2578160206100a7933591016101e5565b6001600160a01b031690565b6001600160a01b0381165b036100a257565b905035906100aa8261023b565b80610246565b905035906100aa8261025a565b909160c0828403126100a257813567ffffffffffffffff81116100a25783610296918401610214565b92602083013567ffffffffffffffff81116100a257816102b7918501610214565b926102c5826040830161024d565b92606082013567ffffffffffffffff81116100a2576102e9846100a7928501610214565b9360a06102f98260808701610260565b940161024d565b6001600160a01b03909116815260200190565b346100a2576100f161033561032936600461026d565b94939093929192610523565b60405191829182610300565b6100a7916008021c81565b906100a79154610341565b6100a760008061034c565b346100a257610372366004610097565b6100f16100e1610357565b346100a25761038d366004610097565b6100f17f7def632d64a7259044c921303d544f945a340c8d4334adc0e0bd830a54deb5286100e1565b346100a2576103c6366004610097565b6100f17f9f2df0fed2c77648de5860a4cc508cd0818c85b8b8a1ab4ceeef8d981c8956a66100e1565b346100a2576103ff366004610097565b6100f17f65d7a28e3265b37a6474929f336521b332c1681b933f6cb9f3376673440d862a6100e1565b60005b83811061043b5750506000910152565b818101518382015260200161042b565b61046c6104756020936101d593610460815190565b80835293849260200190565b95869101610428565b601f01601f191690565b9160a0936100aa969897956104cd6104bb6104da946104ad6104e29760c08a01908a820360008c015261044b565b9088820360208a015261044b565b6001600160a01b039093166040870152565b848203606086015261044b565b966080830152565b01906001600160a01b03169052565b6040513d6000823e3d90fd5b6100a79061022f906001600160a01b031682565b6100a7906104fd565b6100a790610511565b9194919390926040519561294c87019487861067ffffffffffffffff87111761019f5787966105599661294c6105ad8a3961047f565b03906000f080156105a75761056d9061051a565b6105768161051a565b7f735de45afcc846ea4c4a850e8d25dd9eb80d28d7226cddb094eae38c4411b5e46105a060405190565b600090a290565b6104f156fe608060405234610031576100206100146101e5565b94939093929192610450565b6040516121736107d9823961217390f35b600080fd5b634e487b7160e01b600052604160045260246000fd5b90601f01601f191681019081106001600160401b0382111761006d57604052565b610036565b9061008661007f60405190565b928361004c565b565b6001600160401b03811161006d57602090601f01601f19160190565b60005b8381106100b75750506000910152565b81810151838201526020016100a7565b909291926100dc6100d782610088565b610072565b9381855281830111610031576100869160208501906100a4565b9080601f83011215610031578151610110926020016100c7565b90565b6001600160a01b031690565b6001600160a01b0381165b0361003157565b905051906100868261011f565b8061012a565b905051906100868261013e565b909160c0828403126100315781516001600160401b03811161003157836101799184016100f6565b60208301519093906001600160401b038111610031578161019b9185016100f6565b926101a98260408301610131565b60608201519093906001600160401b038111610031576101ce846101109285016100f6565b9360a06101de8260808701610144565b9401610131565b61020361294c803803806101f881610072565b928339810190610151565b909192939495565b634e487b7160e01b600052602260045260246000fd5b9060016002830492168015610241575b602083101461023c57565b61020b565b91607f1691610231565b9160001960089290920291821b911b5b9181191691161790565b6101106101106101109290565b919061028361011061028b93610265565b90835461024b565b9055565b61008691600091610272565b8181106102a6575050565b806102b4600060019361028f565b0161029b565b9190601f81116102c957505050565b6102db61008693600052602060002090565b906020601f8401819004830193106102fd575b6020601f90910104019061029b565b90915081906102ee565b90610310815190565b906001600160401b03821161006d576103338261032d8554610221565b856102ba565b602090601f831160011461036e5761028b929160009183610363575b5050600019600883021c1916906002021790565b01519050388061034f565b601f1983169161038385600052602060002090565b9260005b8181106103c1575091600293918560019694106103a8575b50505002019055565b01516000196008601f8516021c1916905538808061039f565b91936020600181928787015181550195019201610387565b9061008691610307565b906000199061025b565b906103fd61011061028b92610265565b82546103e3565b906001600160a01b039061025b565b61011090610113906001600160a01b031682565b61011090610413565b61011090610427565b9061044961011061028b92610430565b8254610404565b92610467610086969593610499936104a0966104a7565b610491857fbf575aa07286781f90c1bdc8f4940c6c29874a0c25a1f1fe7661650b409c01ff61068e565b5060096103d9565b600a6103ed565b600b610439565b610086926104d0565b9060ff9061025b565b906104c961011061028b92151590565b82546104b0565b906104db92916104f1565b610086600060076104b9565b6101106000610265565b916104fb91610655565b6105036104e7565b61050d338261068e565b507f7def632d64a7259044c921303d544f945a340c8d4334adc0e0bd830a54deb5289161053a818461068e565b50817f9f2df0fed2c77648de5860a4cc508cd0818c85b8b8a1ab4ceeef8d981c8956a6610567838261068e565b50817f3c11d16cbaffd01df69ce1c404f6340ee057498f5f00246190ea54220576a848610594858261068e565b50817fe5ed70e23144309ce456cb48bf5e6d0d8e160f094a6d65ecf1d5b03cf292d8e6936105c2878661068e565b507f92de27771f92d6942691d73358b3a4673e4880de8356f8f2cf452be87e02d363966105ef908861068e565b50817f65d7a28e3265b37a6474929f336521b332c1681b933f6cb9f3376673440d862a998161061e338d61068e565b506106289161072c565b6106319161072c565b61063a9161072c565b6106439161072c565b61064c9161072c565b6100869161072c565b6100869182918291829182919061066d9060036103d9565b60046103d9565b905b600052602052604060002090565b9061067690610430565b61069f61069b838361078c565b1590565b15610717576106c560016106c08460006106ba866005610674565b01610684565b6104b9565b6106e36106dd6106d7339390565b9390565b93610430565b91610430565b917f2f8788117e7eff1d82e926ec794901d17c78024a50270940304540a733656f0d61070e60405190565b600090a4600190565b5050600090565b906103fd61011061028b9290565b9061075b6107576106d361073f856107c1565b94610110856001610751846005610674565b0161071e565b9190565b917fbd79b86ffe0ab8e8776151514217cd7cacd52c909f66475c3af44e129f0b00ff61078660405190565b600090a4565b6101109160006106ba6107a9936107a1600090565b506005610674565b5460ff1690565b6101109081565b61011090546107b0565b60016107d2610110926107a1600090565b016107b756fe6080604052600436101561001257600080fd5b60003560e01c806301ffc9a71461030257806306a85f0f146102fd57806306fdde03146102f8578063095ea7b3146102f357806316df06c4146102ee57806318160ddd146102e9578063191fd57d146102e45780631a3f5152146102df57806323b872dd146102da578063248a9ca3146102d5578063282c51f3146102d0578063286041bd146102cb5780632b218c6a146102c65780632f2ff15d146102c1578063313ce567146102bc57806336568abe146102b757806337a6d42b146102b257806339509351146102ad5780633f4ba83a146102a857806340c10f19146102a357806342966c681461029e5780634a3fba0e1461029957806356b855aa146102945780635c975abb1461028f57806370a082311461028a57806375b238fc1461028557806379cc6790146102805780638456cb591461027b57806384b61581146102765780638c79ba3a1461027157806391d148541461026c57806395d89b4114610267578063a217fddf14610262578063a457c2d71461025d578063a9059cbb14610258578063b4a4ed3914610253578063bb35783b1461024e578063be91de5314610249578063c634b78e14610244578063cd3293de1461023f578063d53913931461023a578063d547741f14610235578063dd62ed3e14610230578063e63ab1e91461022b578063ee742b6b14610226578063f16dfbe9146102215763ffa8e9ab0361031a57610c93565b610c56565b610c3e565b610c05565b610be9565b610bd0565b610b97565b610b62565b610b1f565b610b04565b610aeb565b610ad2565b610ab6565b610a9a565b610a7f565b610a45565b610a29565b610a11565b6109f9565b6109e1565b6109c8565b61098f565b610974565b610945565b61091e565b6108e5565b6108cd565b6108b4565b61089c565b610880565b610865565b6106e8565b6106b9565b6106a0565b61066b565b610632565b6105f9565b6105de565b6105ae565b610567565b61052e565b610513565b6104f7565b6104b8565b610433565b610381565b610345565b6001600160e01b031981165b0361031a57565b600080fd5b9050359061032c82610307565b565b9060208282031261031a576103429161031f565b90565b3461031a5761037261036061035b36600461032e565b610cae565b60405191829182901515815260200190565b0390f35b600091031261031a57565b3461031a57610391366004610376565b6103727f92de27771f92d6942691d73358b3a4673e4880de8356f8f2cf452be87e02d3635b6040515b9182918290815260200190565b60005b8381106103da5750506000910152565b81810151838201526020016103ca565b61040b61041460209361041e936103ff815190565b80835293849260200190565b958691016103c7565b601f01601f191690565b0190565b6020808252610342929101906103ea565b3461031a57610443366004610376565b61037261044e610cf1565b60405191829182610422565b6001600160a01b031690565b6001600160a01b038116610313565b9050359061032c82610466565b80610313565b9050359061032c82610482565b919060408382031261031a576103429060206104b18286610475565b9401610488565b3461031a576103726103606104ce366004610495565b90610d84565b919060408382031261031a576103429060206104f08286610475565b9401610475565b3461031a576103726103b661050d3660046104d4565b90610e19565b3461031a57610523366004610376565b6103726103b6610e36565b3461031a5761053e366004610376565b6103727fbf575aa07286781f90c1bdc8f4940c6c29874a0c25a1f1fe7661650b409c01ff6103b6565b3461031a5761058061057a366004610495565b90610ec9565b604051005b909160608284031261031a5761034261059e8484610475565b9360406104b18260208701610475565b3461031a576103726103606105c4366004610585565b9161104e565b9060208282031261031a5761034291610488565b3461031a576103726103b66105f43660046105ca565b61106b565b3461031a57610609366004610376565b6103727f3c11d16cbaffd01df69ce1c404f6340ee057498f5f00246190ea54220576a8486103b6565b3461031a57610642366004610376565b6103727fe5ed70e23144309ce456cb48bf5e6d0d8e160f094a6d65ecf1d5b03cf292d8e66103b6565b3461031a5761058061067e366004610495565b90611183565b919060408382031261031a576103429060206104f08286610488565b3461031a576105806106b3366004610684565b906111ab565b3461031a576106c9366004610376565b6103726106d46111c8565b6040519182918260ff909116815260200190565b3461031a576105806106fb366004610684565b906111d2565b634e487b7160e01b600052600060045260246000fd5b634e487b7160e01b600052602260045260246000fd5b906001600283049216801561074d575b602083101461074857565b610717565b91607f169161073d565b8054600093929161077461076a8361072d565b8085529360200190565b91600181169081156107c6575060011461078d57505050565b6107a09192939450600052602060002090565b916000925b8184106107b25750500190565b8054848401526020909301926001016107a5565b92949550505060ff1916825215156020020190565b9061034291610757565b634e487b7160e01b600052604160045260246000fd5b90601f01601f1916810190811067ffffffffffffffff82111761081d57604052565b6107e5565b9061032c61083c9261083360405190565b938480926107db565b03836107fb565b906000106108545761034290610822565b610701565b61034260006009610843565b3461031a57610875366004610376565b61037261044e610859565b3461031a57610372610360610896366004610495565b90611290565b3461031a576108ac366004610376565b6105806112db565b3461031a576105806108c7366004610495565b90611357565b3461031a576105806108e03660046105ca565b6113b4565b3461031a576108f5366004610376565b6103727fd565e3fc066df348a5cbc05a8d6323e00552838041cea2d84cc59876ba37735d6103b6565b3461031a5761092e366004610376565b61037260008051602061211e8339815191526103b6565b3461031a57610955366004610376565b6103726103606113d0565b9060208282031261031a5761034291610475565b3461031a576103726103b661098a366004610960565b6113da565b3461031a5761099f366004610376565b6103727fa49807205ce4d355092ef5a8a18f56e8913cf4a201fbe287825b095693c217756103b6565b3461031a576105806109db366004610495565b90611481565b3461031a576109f1366004610376565b6105806114ca565b3461031a57610580610a0c366004610960565b611561565b3461031a57610580610a24366004610960565b6115c3565b3461031a57610372610360610a3f366004610684565b906115cc565b3461031a57610a55366004610376565b61037261044e6115ec565b6103426103426103429290565b6103426000610a60565b610342610a6d565b3461031a57610a8f366004610376565b6103726103b6610a77565b3461031a57610372610360610ab0366004610495565b90611698565b3461031a57610372610360610acc366004610495565b90611737565b3461031a57610580610ae5366004610495565b90611839565b3461031a57610580610afe366004610585565b91611896565b3461031a576103726103b6610b1a366004610960565b6118a1565b3461031a57610580610b32366004610960565b6118d8565b610342916008021c6001600160a01b031690565b906103429154610b37565b6103426000600b610b4b565b3461031a57610b72366004610376565b610372610b7d610b56565b604051918291826001600160a01b03909116815260200190565b3461031a57610ba7366004610376565b6103727f9f2df0fed2c77648de5860a4cc508cd0818c85b8b8a1ab4ceeef8d981c8956a66103b6565b3461031a57610580610be3366004610684565b906118fc565b3461031a576103726103b6610bff3660046104d4565b90611906565b3461031a57610c15366004610376565b6103727f65d7a28e3265b37a6474929f336521b332c1681b933f6cb9f3376673440d862a6103b6565b3461031a57610580610c51366004610960565b6119ce565b3461031a57610372610360610c6c366004610960565b6119d7565b610342916008021c81565b906103429154610c71565b6103426000600a610c7c565b3461031a57610ca3366004610376565b6103726103b6610c87565b637965db0b60e01b6001600160e01b0319821614908115610ccd575090565b61034291506001600160e01b0319166301ffc9a760e01b1490565b61034290610822565b6103426003610ce8565b906103429291610d096119ee565b610d62565b15610d1557565b60405162461bcd60e51b815280610d5e600482016020808252818101527f53656e646572206163636f756e74206973206e6f7420617574686f72697a6564604082015260600190565b0390fd5b50610d7f9190610d79610d74336119d7565b610d0e565b33611a0e565b600190565b61034291906000610cfb565b15610d9757565b60405162461bcd60e51b815260206004820152600d60248201526c1058d8d95cdcc819195b9a5959609a1b6044820152606490fd5b906103429291610de382610dde610a6d565b6115cc565b8015610df8575b610df390610d90565b610e0d565b506001600160a01b0382811690841614610dea565b61034292915050611a1b565b61034291906000610dcc565b6103429081565b6103429054610e25565b6103426002610e2c565b9061032c91610e4d6119ee565b61032c9190610e807fe5ed70e23144309ce456cb48bf5e6d0d8e160f094a6d65ecf1d5b03cf292d8e6611a32565b611a32565b610eab565b6103429061045a906001600160a01b031682565b61034290610e85565b61034290610e99565b9061032c91610ec482610ebd30610ea2565b8093611896565b611a3d565b9061032c91610e40565b90610342939291610ee26119ee565b610fcc565b15610eee57565b60405162461bcd60e51b815260206004820152602860248201527f45524332303a207472616e7366657220616d6f756e74206578636565647320616044820152676c6c6f77616e636560c01b6064820152608490fd5b15610f4b57565b60405162461bcd60e51b815260206004820152602b60248201527f4569746865722066726f6d206f7220746f206163636f756e74206973206e6f7460448201526a08185d5d1a1bdc9a5e995960aa1b6064820152608490fd5b634e487b7160e01b600052601160045260246000fd5b91908203918211610fc757565b610fa4565b926110108161101f9394610d7f9650610ff2610fe83388611906565b83905b1015610ee7565b610ffb866119d7565b8061103a575b61100a90610f44565b85611896565b61101a3384611906565b610fba565b9061103361102d6000610a60565b83610feb565b3390611a0e565b5061100a611047826119d7565b9050611001565b6103429291906000610ed3565b905b600052602052604060002090565b60016110846103429261107c600090565b50600561105b565b01610e2c565b9061032c916110976119ee565b61032c91906110c57f92de27771f92d6942691d73358b3a4673e4880de8356f8f2cf452be87e02d363611a32565b61110c565b9061105d90610ea2565b91908201809211610fc757565b90600019905b9181191691161790565b9061110161034261110892610a60565b82546110e1565b9055565b906111349061112e61111f8460086110ca565b9161112983610e2c565b6110d4565b906110f1565b7fd2dc74064ce9979876047afc7922931592038bce8a7fbaf28417799c138e4e4d61117e61117461116e6111698560086110ca565b610e2c565b93610ea2565b926103ba60405190565b0390a2565b9061032c9161108a565b9061032c9161119e610e7b8261106b565b906111a891611a9f565b50565b9061032c9161118d565b6111c26103426103429290565b60ff1690565b61034260026111b5565b906111dc3361045a565b6001600160a01b038216036111f4576111a891611b1a565b60405163334bd91960e11b8152600490fd5b9061034292916112146119ee565b611265565b1561122057565b60405162461bcd60e51b815260206004820152601960248201527f4163636f756e74206973206e6f7420617574686f72697a6564000000000000006044820152606490fd5b50610d7f916112899061127f61127a336119d7565b611219565b6111298333611906565b9033611a0e565b61034291906000611206565b6112a4611b77565b61032c6112d07f65d7a28e3265b37a6474929f336521b332c1681b933f6cb9f3376673440d862a611a32565b61032c61032c611be0565b61032c61129c565b9061032c916112f06119ee565b61032c919061131e7f9f2df0fed2c77648de5860a4cc508cd0818c85b8b8a1ab4ceeef8d981c8956a6611a32565b611339565b61045a6103426103429290565b61034290611323565b9061032c91611352828261134d6000611330565b611d51565b611d5c565b9061032c916112e3565b61032c9061138e7f3c11d16cbaffd01df69ce1c404f6340ee057498f5f00246190ea54220576a848611a32565b61032c9061139a6119ee565b61032c90335b610ec4826113ae6000611330565b83611d51565b61032c90611361565b610342906111c2565b61034290546113bd565b61034260076113c6565b6103429033610e19565b9061032c916113f16119ee565b61144e565b156113fd57565b60405162461bcd60e51b8152602060048201526024808201527f45524332303a206275726e20616d6f756e74206578636565647320616c6c6f77604482015263616e636560e01b6064820152608490fd5b61032c91906113a03361146c6114648285611906565b8511156113f6565b61147a8461101a8386611906565b9083611a0e565b9061032c916113e4565b6114936119ee565b61032c6114bf7f65d7a28e3265b37a6474929f336521b332c1681b933f6cb9f3376673440d862a611a32565b61032c61032c611dfe565b61032c61148b565b61032c906114ed60008051602061211e833981519152611a32565b611512565b9060ff906110e7565b9061150b61034261110892151590565b82546114f2565b6115309061152b60016115268360066110ca565b6114fb565b610ea2565b7f0211b3717a1e4e9d5dbd306d57337bd16341444ff1a3ca9d920060322b1aa64061155a60405190565b808061117e565b61032c906114d2565b61032c9061158560008051602061211e833981519152611a32565b6115999061152b60006115268360066110ca565b7fa1505d69e69c406db19c16f3ec0bf25ae47eefb6ae68ab936d75df946fcd14cf61155a60405190565b61032c9061156a565b6103429160006115e16115e79361107c600090565b016110ca565b6113c6565b6103426004610ce8565b9061034292916116046119ee565b611663565b1561161057565b60405162461bcd60e51b815260206004820152602560248201527f45524332303a2064656372656173656420616c6c6f77616e63652062656c6f77604482015264207a65726f60d81b6064820152608490fd5b50610d7f916116829061167861127a336119d7565b61101a8333611906565b90610d796116906000610a60565b831015611609565b610342919060006115f6565b9061034292916116b26119ee565b61170e565b156116be57565b60405162461bcd60e51b815260206004820152602260248201527f5265636569766572206163636f756e74206973206e6f7420617574686f72697a604482015261195960f21b6064820152608490fd5b50610d7f9190611720610d74336119d7565b61173161172c826119d7565b6116b7565b33611896565b610342919060006116a4565b9061032c916117506119ee565b61032c919061177e7f92de27771f92d6942691d73358b3a4673e4880de8356f8f2cf452be87e02d363611a32565b6117cf565b1561178a57565b60405162461bcd60e51b815260206004820152601c60248201527f46726f7a656e2062616c616e6365206973206e6f7420656e6f756768000000006044820152606490fd5b9061117e61117461116e611169857fd2dc74064ce9979876047afc7922931592038bce8a7fbaf28417799c138e4e4d9561183460089161181d61181561116986866110ca565b821115611783565b61112e61182a85856110ca565b9161101a83610e2c565b6110ca565b9061032c91611743565b9061032c92916118516119ee565b61032c9291906118807fe5ed70e23144309ce456cb48bf5e6d0d8e160f094a6d65ecf1d5b03cf292d8e6611a32565b9061032c9291611891838383611d51565b611e06565b9061032c9291611843565b611169610342916118b0600090565b5060086110ca565b61032c906118c7610e7b610a6d565b6111a8906118d3610a6d565b611a9f565b61032c906118b8565b9061032c916118f2610e7b8261106b565b906111a891611b1a565b9061032c916118e1565b6103429161183461116992611919600090565b5060016110ca565b61032c9061192d6119ee565b61032c9061194860008051602061211e833981519152611a32565b611986565b6103429061045a565b610342905461194d565b906001600160a01b03906110e7565b9061197f61034261110892610ea2565b8254611960565b61032c906119c7817fbf575aa07286781f90c1bdc8f4940c6c29874a0c25a1f1fe7661650b409c01ff6119c26119bc600b611956565b826118fc565b6111ab565b600b61196f565b61032c90611921565b6115e7610342916119e6600090565b5060066110ca565b6119f66113d0565b6119fc57565b60405163d93c066560e01b8152600490fd5b9160019161032c93611e6b565b61116961034291611a2a600090565b5060006110ca565b61032c903390611f8e565b9190611a496000611330565b926001600160a01b0384166001600160a01b03821614611a6e579261032c9293611fed565b610d5e84611a7b60405190565b634b637e8f60e11b8152918291600483016001600160a01b03909116815260200190565b611ab0611aac83836115cc565b1590565b15611b1357611acb60016115268460006115e186600561105b565b611adf611ad961116e339390565b91610ea2565b917f2f8788117e7eff1d82e926ec794901d17c78024a50270940304540a733656f0d611b0a60405190565b600090a4600190565b5050600090565b611b2482826115cc565b15611b1357611b3e600061152684826115e186600561105b565b611b4c611ad961116e339390565b917ff6391f5c32d9c69d2a47ea670b442974b53935d1edc7fd64eb21e047a839171b611b0a60405190565b611b82611aac6113d0565b611b8857565b604051638dfc202b60e01b8152600490fd5b611ba2611b77565b61032c611bb1600060076114fb565b7f5db9ee0a495bf2e6ff9c91a7834c1ba4fdd244a5e8aa4e537bd38aeae4b073aa611bdb33610b7d565b0390a1565b61032c611b9a565b9061032c9291611bf66119ee565b611c51565b15611c0257565b60405162461bcd60e51b815260206004820152602160248201527f5265616c4469676974616c3a20696e73756666696369656e742062616c616e636044820152606560f81b6064820152608490fd5b9061032c9291611c6461045a6000611330565b6001600160a01b03821614611c9a57611c9a611c92611c838380610e19565b611c8c846118a1565b90610fba565b841115611bfb565b9150611ca66000611330565b6001600160a01b0381166001600160a01b03841614158080611d35575b15611cf3575050611cd661032c926119d7565b9081611ce3575b50610d90565b611ced91506119d7565b38611cdd565b15611d0b575050611d0661032c916119d7565b610d90565b9091506001600160a01b03166001600160a01b03821603611d295750565b611d0661032c916119d7565b506001600160a01b0382166001600160a01b0384161415611cc3565b9061032c9291611be8565b9190611d686000611330565b926001600160a01b0384166001600160a01b03821614611d8c5761032c9293611fed565b610d5e84611d9960405190565b63ec442f0560e01b8152918291600483016001600160a01b03909116815260200190565b611dc56119ee565b61032c611dd4600160076114fb565b7f62e78cea01bee320cd4e420270b5ea74000d11b0c9f74754ebdbfc544b05a258611bdb33610b7d565b61032c611dbd565b929190611e136000611330565b936001600160a01b0385166001600160a01b03821614611e5e576001600160a01b0385166001600160a01b03831614611e515761032c939450611fed565b610d5e85611d9960405190565b610d5e85611a7b60405190565b909192611e786000611330565b6001600160a01b0381166001600160a01b03841614611f3c576001600160a01b0381166001600160a01b03851614611f0b5750611ec384611ebe856118348660016110ca565b6110f1565b611ecc57505050565b611f06611efc61116e7f8c5be1e5ebec7d5bd14f71427d1e84f3dd0314c0f7b2291e5b200ac8c7c3b92593610ea2565b936103ba60405190565b0390a3565b610d5e90611f1860405190565b634a1406b160e11b8152918291600483016001600160a01b03909116815260200190565b610d5e90611f4960405190565b63e602df0560e01b8152918291600483016001600160a01b03909116815260200190565b6001600160a01b03909116815260408101929161032c9160200152565b0152565b90611f9c611aac82846115cc565b611fa4575050565b610d5e611fb060405190565b63e2517d3f60e01b815292839260048401611f6d565b6001600160a01b03909116815260608101939261032c929091604091611f8a906020830152565b816000611ff981611330565b6001600160a01b0381166001600160a01b0385160361209b577fddf252ad1be2c89b69c2b068fc378daa952ba7f163c4a11628f55a4df523b3ef93611f0693611efc9361205b61116e9461045a6120548c6111296002610e2c565b60026110f1565b6001600160a01b0383160361208157505061152b6120548861207d6002610e2c565b0390565b61152b9161208e916110ca565b61112e8961041e83610e2c565b9091506120ab61116984846110ca565b8581106120f9577fddf252ad1be2c89b69c2b068fc378daa952ba7f163c4a11628f55a4df523b3ef9385611f069461205b611efc9561045a6120ef8c61116e980390565b611ebe87866110ca565b83610d5e8761210760405190565b63391434e360e21b815293849360048501611fc656fe7def632d64a7259044c921303d544f945a340c8d4334adc0e0bd830a54deb528a26469706673582212200a2215810324858ef0a39862d3da5846b94908bd779e352691e19ebaf80b2e5364736f6c63430008190033a2646970667358221220b995525bf41837d7ec9561d6c29cd0e43ed2195a60739cc8aa57ec0bf246fd6664736f6c63430008190033",
  "linkReferences": {},
  "deployedLinkReferences": {}
}