{
  "_format": "hh-sol-artifact-1",
  "contractName": "TPFtAccessControl",
  "sourceName": "contracts/hamsa/drex-connect/TPFtAccessControl.sol",
  "abi": [
    {
      "inputs": [],
      "stateMutability": "nonpayable",
      "type": "constructor"
    },
    {
      "inputs": [],
      "name": "AccessControlBadConfirmation",
      "type": "error"
    },
    {
      "inputs": [
        {
          "internalType": "address",
          "name": "account",
          "type": "address"
        },
        {
          "internalType": "bytes32",
          "name": "neededRole",
          "type": "bytes32"
        }
      ],
      "name": "AccessControlUnauthorizedAccount",
      "type": "error"
    },
    {
      "anonymous": false,
      "inputs": [
        {
          "indexed": true,
          "internalType": "bytes32",
          "name": "role",
          "type": "bytes32"
        },
        {
          "indexed": true,
          "internalType": "bytes32",
          "name": "previousAdminRole",
          "type": "bytes32"
        },
        {
          "indexed": true,
          "internalType": "bytes32",
          "name": "newAdminRole",
          "type": "bytes32"
        }
      ],
      "name": "RoleAdminChanged",
      "type": "event"
    },
    {
      "anonymous": false,
      "inputs": [
        {
          "indexed": true,
          "internalType": "bytes32",
          "name": "role",
          "type": "bytes32"
        },
        {
          "indexed": true,
          "internalType": "address",
          "name": "account",
          "type": "address"
        },
        {
          "indexed": true,
          "internalType": "address",
          "name": "sender",
          "type": "address"
        }
      ],
      "name": "RoleGranted",
      "type": "event"
    },
    {
      "anonymous": false,
      "inputs": [
        {
          "indexed": true,
          "internalType": "bytes32",
          "name": "role",
          "type": "bytes32"
        },
        {
          "indexed": true,
          "internalType": "address",
          "name": "account",
          "type": "address"
        },
        {
          "indexed": true,
          "internalType": "address",
          "name": "sender",
          "type": "address"
        }
      ],
      "name": "RoleRevoked",
      "type": "event"
    },
    {
      "inputs": [],
      "name": "AUCTION_PLACEMENT_ROLE",
      "outputs": [
        {
          "internalType": "bytes32",
          "name": "",
          "type": "bytes32"
        }
      ],
      "stateMutability": "view",
      "type": "function"
    },
    {
      "inputs": [],
      "name": "DEFAULT_ADMIN_ROLE",
      "outputs": [
        {
          "internalType": "bytes32",
          "name": "",
          "type": "bytes32"
        }
      ],
      "stateMutability": "view",
      "type": "function"
    },
    {
      "inputs": [],
      "name": "DIRECT_PLACEMENT_ROLE",
      "outputs": [
        {
          "internalType": "bytes32",
          "name": "",
          "type": "bytes32"
        }
      ],
      "stateMutability": "view",
      "type": "function"
    },
    {
      "inputs": [],
      "name": "FREEZER_ROLE",
      "outputs": [
        {
          "internalType": "bytes32",
          "name": "",
          "type": "bytes32"
        }
      ],
      "stateMutability": "view",
      "type": "function"
    },
    {
      "inputs": [],
      "name": "MINTER_ROLE",
      "outputs": [
        {
          "internalType": "bytes32",
          "name": "",
          "type": "bytes32"
        }
      ],
      "stateMutability": "view",
      "type": "function"
    },
    {
      "inputs": [
        {
          "internalType": "address",
          "name": "member",
          "type": "address"
        }
      ],
      "name": "allowAuctionPlacement",
      "outputs": [],
      "stateMutability": "nonpayable",
      "type": "function"
    },
    {
      "inputs": [
        {
          "internalType": "address",
          "name": "member",
          "type": "address"
        }
      ],
      "name": "allowDirectPlacement",
      "outputs": [],
      "stateMutability": "nonpayable",
      "type": "function"
    },
    {
      "inputs": [
        {
          "internalType": "address",
          "name": "member",
          "type": "address"
        }
      ],
      "name": "allowFreezingPlacement",
      "outputs": [],
      "stateMutability": "nonpayable",
      "type": "function"
    },
    {
      "inputs": [
        {
          "internalType": "address",
          "name": "member",
          "type": "address"
        }
      ],
      "name": "allowTPFtMint",
      "outputs": [],
      "stateMutability": "nonpayable",
      "type": "function"
    },
    {
      "inputs": [
        {
          "internalType": "address",
          "name": "member",
          "type": "address"
        }
      ],
      "name": "disableAddress",
      "outputs": [],
      "stateMutability": "nonpayable",
      "type": "function"
    },
    {
      "inputs": [
        {
          "internalType": "address",
          "name": "member",
          "type": "address"
        }
      ],
      "name": "enableAddress",
      "outputs": [],
      "stateMutability": "nonpayable",
      "type": "function"
    },
    {
      "inputs": [
        {
          "internalType": "bytes32",
          "name": "role",
          "type": "bytes32"
        }
      ],
      "name": "getRoleAdmin",
      "outputs": [
        {
          "internalType": "bytes32",
          "name": "",
          "type": "bytes32"
        }
      ],
      "stateMutability": "view",
      "type": "function"
    },
    {
      "inputs": [
        {
          "internalType": "address",
          "name": "account",
          "type": "address"
        }
      ],
      "name": "grantAdminRole",
      "outputs": [],
      "stateMutability": "nonpayable",
      "type": "function"
    },
    {
      "inputs": [
        {
          "internalType": "bytes32",
          "name": "role",
          "type": "bytes32"
        },
        {
          "internalType": "address",
          "name": "account",
          "type": "address"
        }
      ],
      "name": "grantRole",
      "outputs": [],
      "stateMutability": "nonpayable",
      "type": "function"
    },
    {
      "inputs": [
        {
          "internalType": "bytes32",
          "name": "role",
          "type": "bytes32"
        },
        {
          "internalType": "address",
          "name": "account",
          "type": "address"
        }
      ],
      "name": "hasRole",
      "outputs": [
        {
          "internalType": "bool",
          "name": "",
          "type": "bool"
        }
      ],
      "stateMutability": "view",
      "type": "function"
    },
    {
      "inputs": [
        {
          "internalType": "address",
          "name": "member",
          "type": "address"
        }
      ],
      "name": "isEnabledAddress",
      "outputs": [
        {
          "internalType": "bool",
          "name": "",
          "type": "bool"
        }
      ],
      "stateMutability": "view",
      "type": "function"
    },
    {
      "inputs": [
        {
          "internalType": "bytes32",
          "name": "role",
          "type": "bytes32"
        },
        {
          "internalType": "address",
          "name": "callerConfirmation",
          "type": "address"
        }
      ],
      "name": "renounceRole",
      "outputs": [],
      "stateMutability": "nonpayable",
      "type": "function"
    },
    {
      "inputs": [
        {
          "internalType": "bytes32",
          "name": "role",
          "type": "bytes32"
        },
        {
          "internalType": "address",
          "name": "account",
          "type": "address"
        }
      ],
      "name": "revokeRole",
      "outputs": [],
      "stateMutability": "nonpayable",
      "type": "function"
    },
    {
      "inputs": [
        {
          "internalType": "bytes4",
          "name": "interfaceId",
          "type": "bytes4"
        }
      ],
      "name": "supportsInterface",
      "outputs": [
        {
          "internalType": "bool",
          "name": "",
          "type": "bool"
        }
      ],
      "stateMutability": "view",
      "type": "function"
    }
  ],
  "bytecode": "0x60806040523461002257610011610041565b604051610bc96101928239610bc990f35b600080fd5b6100346100346100349290565b90565b6100346000610027565b61005361004c610037565b33906100d3565b50565b9061006090610034565b600052602052604060002090565b61003490610082906001600160a01b031682565b6001600160a01b031690565b6100349061006e565b6100349061008e565b9061006090610097565b151590565b906100bf6100346100cf926100aa565b825460ff191660ff919091161790565b9055565b6100e46100e08383610170565b1590565b156101595761010960016101048460006100fe8682610056565b016100a0565b6100af565b61012561011f6101193393610034565b93610097565b91610097565b917f2f8788117e7eff1d82e926ec794901d17c78024a50270940304540a733656f0d61015060405190565b600090a4600190565b5050600090565b60ff1690565b6100349054610160565b6100349160006100fe61018c93610185600090565b5082610056565b61016656fe6080604052600436101561001257600080fd5b60003560e01c806301ffc9a71461014257806306a85f0f1461013d5780632365a35e14610138578063248a9ca3146101335780632f2ff15d1461012e57806336568abe146101295780633b260563146101245780635036258b1461011f5780635f9e640f1461011a57806391d14854146101155780639eefdd8714610110578063a217fddf1461010b578063b9ca482114610106578063c634b78e14610101578063cc8f0795146100fc578063d5391393146100f7578063d547741f146100f2578063e29874b7146100ed5763e8d5a48a0361015a576104a0565b610488565b61046f565b610436565b61041e565b610406565b6103cd565b6103b2565b61037b565b61035f565b610347565b61032f565b6102f6565b6102dd565b6102c4565b610286565b610242565b6101c1565b610185565b6001600160e01b031981165b0361015a57565b600080fd5b9050359061016c82610147565b565b9060208282031261015a576101829161015f565b90565b3461015a576101b26101a061019b36600461016e565b6104bb565b60405191829182901515815260200190565b0390f35b600091031261015a57565b3461015a576101d13660046101b6565b6101b27f92de27771f92d6942691d73358b3a4673e4880de8356f8f2cf452be87e02d3635b6040519182918290815260200190565b6001600160a01b031690565b6001600160a01b038116610153565b9050359061016c82610212565b9060208282031261015a5761018291610221565b3461015a5761025a61025536600461022e565b610563565b604051005b80610153565b9050359061016c8261025f565b9060208282031261015a5761018291610265565b3461015a576101b26101f661029c366004610272565b6105c8565b919060408382031261015a576101829060206102bd8286610265565b9401610221565b3461015a5761025a6102d73660046102a1565b9061060a565b3461015a5761025a6102f03660046102a1565b90610614565b3461015a576103063660046101b6565b6101b27fda77f6231fec42b4d28b0cb4169b6957269348cad2424fc7119fb6ab7cf4f0f06101f6565b3461015a5761025a61034236600461022e565b610720565b3461015a5761025a61035a36600461022e565b6107a7565b3461015a576101b26101a06103753660046102a1565b906107e4565b3461015a5761025a61038e36600461022e565b610888565b6101826101826101829290565b6101826000610393565b6101826103a0565b3461015a576103c23660046101b6565b6101b26101f66103aa565b3461015a576103dd3660046101b6565b6101b27f95879078ac5f9ef2655935a8a313c87a55cd3739fa85c7b76890b7dbcd26b36b6101f6565b3461015a5761025a61041936600461022e565b6108cf565b3461015a5761025a61043136600461022e565b610938565b3461015a576104463660046101b6565b6101b27f9f2df0fed2c77648de5860a4cc508cd0818c85b8b8a1ab4ceeef8d981c8956a66101f6565b3461015a5761025a6104823660046102a1565b90610990565b3461015a5761025a61049b36600461022e565b610a03565b3461015a576101b26101a06104b636600461022e565b610a40565b637965db0b60e01b6001600160e01b03198216149081156104da575090565b61018291506001600160e01b0319166301ffc9a760e01b1490565b156104fc57565b60405162461bcd60e51b815260206004820152603560248201527f4d75737420686176652061646d696e20726f6c6520746f2061737369676e2061604482015274756374696f6e20706c6163656d656e7420726f6c6560581b6064820152608490fd5b0390fd5b61016c9061058161057c6105756103a0565b33906107e4565b6104f5565b7fda77f6231fec42b4d28b0cb4169b6957269348cad2424fc7119fb6ab7cf4f0f061060a565b905b600052602052604060002090565b6101829081565b61018290546105b7565b60016105e1610182926105d9600090565b5060006105a7565b016105be565b9061016c916105fd6105f8826105c8565b610a57565b9061060791610a62565b50565b9061016c916105e7565b9061061e33610206565b6001600160a01b038216036106365761060791610ae2565b60405163334bd91960e11b8152600490fd5b1561064f57565b60405162461bcd60e51b815260206004820152602760248201527f4d75737420686176652061646d696e20726f6c6520746f2064697361626c65206044820152666164647265737360c81b6064820152608490fd5b61018290610206906001600160a01b031682565b610182906106a4565b610182906106b8565b906105a9906106c1565b919060086106ed9102916106e860ff841b90565b921b90565b9181191691161790565b919061070861018261071093151590565b9083546106d4565b9055565b61016c916000916106f7565b600061074361016c9261073c6107376105756103a0565b610648565b60016106ca565b610714565b1561074f57565b60405162461bcd60e51b815260206004820152602a60248201527f4d75737420686176652061646d696e20726f6c6520746f2061737369676e206d604482015269696e74657220726f6c6560b01b6064820152608490fd5b61016c906107be6107b96105756103a0565b610748565b7f9f2df0fed2c77648de5860a4cc508cd0818c85b8b8a1ab4ceeef8d981c8956a661060a565b610182916000610800610806936107f9600090565b50826105a7565b016106ca565b5460ff1690565b1561081457565b60405162461bcd60e51b815260206004820152602660248201527f4d75737420686176652061646d696e20726f6c6520746f20656e61626c65206160448201526564647265737360d01b6064820152608490fd5b9060ff906106ed565b9061088161018261071092151590565b8254610868565b60016108aa61016c926108a461089f6105756103a0565b61080d565b826106ca565b610871565b61016c906108be6105f86103a0565b610607906108ca6103a0565b610a62565b61016c906108af565b156108df57565b60405162461bcd60e51b815260206004820152602b60248201527f4d75737420686176652061646d696e20726f6c6520746f2061737369676e206660448201526a7265657a657220726f6c6560a81b6064820152608490fd5b61016c9061094f61094a6105756103a0565b6108d8565b7f92de27771f92d6942691d73358b3a4673e4880de8356f8f2cf452be87e02d36361060a565b9061016c916109866105f8826105c8565b9061060791610ae2565b9061016c91610975565b156109a157565b60405162461bcd60e51b815260206004820152603460248201527f4d75737420686176652061646d696e20726f6c6520746f2061737369676e2064604482015273697265637420706c6163656d656e7420726f6c6560601b6064820152608490fd5b61016c90610a1a610a156105756103a0565b61099a565b7f95879078ac5f9ef2655935a8a313c87a55cd3739fa85c7b76890b7dbcd26b36b61060a565b61080661018291610a4f600090565b5060016106ca565b61016c903390610b5b565b610a73610a6f83836107e4565b1590565b15610adb57610a8d60016108aa84600061080086826105a7565b610aa7610aa1610a9b339390565b936106c1565b916106c1565b917f2f8788117e7eff1d82e926ec794901d17c78024a50270940304540a733656f0d610ad260405190565b600090a4600190565b5050600090565b610aec82826107e4565b15610adb57610b0560006108aa848261080086826105a7565b610b13610aa1610a9b339390565b917ff6391f5c32d9c69d2a47ea670b442974b53935d1edc7fd64eb21e047a839171b610ad260405190565b6001600160a01b03909116815260408101929161016c9160200152565b90610b69610a6f82846107e4565b610b71575050565b61055f610b7d60405190565b63e2517d3f60e01b815292839260048401610b3e56fea2646970667358221220bcc2ef0593b8312f086bb881c12741487842eed2fb5a27ace89a2e00503bf5ca64736f6c63430008190033",
  "linkReferences": {},
  "deployedLinkReferences": {}
}