{
  "_format": "hh-sol-artifact-1",
  "contractName": "DvpEscrow",
  "sourceName": "contracts/hamsa/ucl/DvpEscrow.sol",
  "abi": [
    {
      "inputs": [],
      "stateMutability": "nonpayable",
      "type": "constructor"
    },
    {
      "anonymous": false,
      "inputs": [
        {
          "indexed": true,
          "internalType": "address",
          "name": "burner",
          "type": "address"
        },
        {
          "indexed": true,
          "internalType": "address",
          "name": "account",
          "type": "address"
        },
        {
          "indexed": false,
          "internalType": "address",
          "name": "tokenAddress",
          "type": "address"
        },
        {
          "indexed": false,
          "internalType": "uint256",
          "name": "value",
          "type": "uint256"
        },
        {
          "indexed": false,
          "internalType": "uint256",
          "name": "fromBalance",
          "type": "uint256"
        },
        {
          "indexed": false,
          "internalType": "uint256",
          "name": "toBalance",
          "type": "uint256"
        }
      ],
      "name": "EscrowBurn",
      "type": "event"
    },
    {
      "anonymous": false,
      "inputs": [
        {
          "indexed": true,
          "internalType": "address",
          "name": "burner",
          "type": "address"
        },
        {
          "indexed": true,
          "internalType": "address",
          "name": "account",
          "type": "address"
        },
        {
          "indexed": false,
          "internalType": "address",
          "name": "tokenAddress",
          "type": "address"
        },
        {
          "indexed": false,
          "internalType": "uint256",
          "name": "tokenType",
          "type": "uint256"
        },
        {
          "indexed": false,
          "internalType": "uint256",
          "name": "value",
          "type": "uint256"
        },
        {
          "indexed": false,
          "internalType": "uint256",
          "name": "fromBalance",
          "type": "uint256"
        },
        {
          "indexed": false,
          "internalType": "uint256",
          "name": "toBalance",
          "type": "uint256"
        }
      ],
      "name": "EscrowBurn1155",
      "type": "event"
    },
    {
      "anonymous": false,
      "inputs": [
        {
          "indexed": true,
          "internalType": "address",
          "name": "account",
          "type": "address"
        },
        {
          "indexed": true,
          "internalType": "address",
          "name": "minter",
          "type": "address"
        },
        {
          "indexed": false,
          "internalType": "address",
          "name": "tokenAddress",
          "type": "address"
        },
        {
          "indexed": false,
          "internalType": "uint256",
          "name": "value",
          "type": "uint256"
        },
        {
          "indexed": false,
          "internalType": "uint256",
          "name": "fromBalance",
          "type": "uint256"
        },
        {
          "indexed": false,
          "internalType": "uint256",
          "name": "toBalance",
          "type": "uint256"
        }
      ],
      "name": "EscrowMint",
      "type": "event"
    },
    {
      "anonymous": false,
      "inputs": [
        {
          "indexed": true,
          "internalType": "address",
          "name": "account",
          "type": "address"
        },
        {
          "indexed": true,
          "internalType": "address",
          "name": "minter",
          "type": "address"
        },
        {
          "indexed": false,
          "internalType": "address",
          "name": "tokenAddress",
          "type": "address"
        },
        {
          "indexed": false,
          "internalType": "uint256",
          "name": "tokenType",
          "type": "uint256"
        },
        {
          "indexed": false,
          "internalType": "uint256",
          "name": "value",
          "type": "uint256"
        },
        {
          "indexed": false,
          "internalType": "uint256",
          "name": "fromBalance",
          "type": "uint256"
        },
        {
          "indexed": false,
          "internalType": "uint256",
          "name": "toBalance",
          "type": "uint256"
        }
      ],
      "name": "EscrowMint1155",
      "type": "event"
    },
    {
      "anonymous": false,
      "inputs": [
        {
          "indexed": true,
          "internalType": "address",
          "name": "escrow",
          "type": "address"
        },
        {
          "indexed": true,
          "internalType": "address",
          "name": "account",
          "type": "address"
        },
        {
          "indexed": false,
          "internalType": "address",
          "name": "tokenAddress",
          "type": "address"
        },
        {
          "indexed": false,
          "internalType": "uint256",
          "name": "value",
          "type": "uint256"
        },
        {
          "indexed": false,
          "internalType": "uint256",
          "name": "fromBalance",
          "type": "uint256"
        },
        {
          "indexed": false,
          "internalType": "uint256",
          "name": "toBalance",
          "type": "uint256"
        }
      ],
      "name": "EscrowReturn",
      "type": "event"
    },
    {
      "anonymous": false,
      "inputs": [
        {
          "indexed": true,
          "internalType": "address",
          "name": "escrow",
          "type": "address"
        },
        {
          "indexed": true,
          "internalType": "address",
          "name": "account",
          "type": "address"
        },
        {
          "indexed": false,
          "internalType": "address",
          "name": "tokenAddress",
          "type": "address"
        },
        {
          "indexed": false,
          "internalType": "uint256",
          "name": "tokenType",
          "type": "uint256"
        },
        {
          "indexed": false,
          "internalType": "uint256",
          "name": "value",
          "type": "uint256"
        },
        {
          "indexed": false,
          "internalType": "uint256",
          "name": "fromBalance",
          "type": "uint256"
        },
        {
          "indexed": false,
          "internalType": "uint256",
          "name": "toBalance",
          "type": "uint256"
        }
      ],
      "name": "EscrowReturn1155",
      "type": "event"
    },
    {
      "anonymous": false,
      "inputs": [
        {
          "indexed": true,
          "internalType": "address",
          "name": "burner",
          "type": "address"
        },
        {
          "indexed": true,
          "internalType": "address",
          "name": "account",
          "type": "address"
        },
        {
          "indexed": false,
          "internalType": "address",
          "name": "tokenAddress",
          "type": "address"
        },
        {
          "indexed": false,
          "internalType": "uint256",
          "name": "value",
          "type": "uint256"
        },
        {
          "indexed": false,
          "internalType": "uint256",
          "name": "fromBalance",
          "type": "uint256"
        },
        {
          "indexed": false,
          "internalType": "uint256",
          "name": "toBalance",
          "type": "uint256"
        }
      ],
      "name": "EscrowScheduleBurn",
      "type": "event"
    },
    {
      "anonymous": false,
      "inputs": [
        {
          "indexed": true,
          "internalType": "address",
          "name": "burner",
          "type": "address"
        },
        {
          "indexed": true,
          "internalType": "address",
          "name": "account",
          "type": "address"
        },
        {
          "indexed": false,
          "internalType": "address",
          "name": "tokenAddress",
          "type": "address"
        },
        {
          "indexed": false,
          "internalType": "uint256",
          "name": "tokenType",
          "type": "uint256"
        },
        {
          "indexed": false,
          "internalType": "uint256",
          "name": "value",
          "type": "uint256"
        },
        {
          "indexed": false,
          "internalType": "uint256",
          "name": "fromBalance",
          "type": "uint256"
        },
        {
          "indexed": false,
          "internalType": "uint256",
          "name": "toBalance",
          "type": "uint256"
        }
      ],
      "name": "EscrowScheduleBurn1155",
      "type": "event"
    },
    {
      "anonymous": false,
      "inputs": [
        {
          "indexed": true,
          "internalType": "address",
          "name": "account",
          "type": "address"
        },
        {
          "indexed": true,
          "internalType": "address",
          "name": "minter",
          "type": "address"
        },
        {
          "indexed": false,
          "internalType": "address",
          "name": "tokenAddress",
          "type": "address"
        },
        {
          "indexed": false,
          "internalType": "uint256",
          "name": "value",
          "type": "uint256"
        },
        {
          "indexed": false,
          "internalType": "uint256",
          "name": "fromBalance",
          "type": "uint256"
        },
        {
          "indexed": false,
          "internalType": "uint256",
          "name": "toBalance",
          "type": "uint256"
        }
      ],
      "name": "EscrowScheduleMint",
      "type": "event"
    },
    {
      "anonymous": false,
      "inputs": [
        {
          "indexed": true,
          "internalType": "address",
          "name": "account",
          "type": "address"
        },
        {
          "indexed": true,
          "internalType": "address",
          "name": "minter",
          "type": "address"
        },
        {
          "indexed": false,
          "internalType": "address",
          "name": "tokenAddress",
          "type": "address"
        },
        {
          "indexed": false,
          "internalType": "uint256",
          "name": "TokenType",
          "type": "uint256"
        },
        {
          "indexed": false,
          "internalType": "uint256",
          "name": "value",
          "type": "uint256"
        },
        {
          "indexed": false,
          "internalType": "uint256",
          "name": "fromBalance",
          "type": "uint256"
        },
        {
          "indexed": false,
          "internalType": "uint256",
          "name": "toBalance",
          "type": "uint256"
        }
      ],
      "name": "EscrowScheduleMint1155",
      "type": "event"
    },
    {
      "anonymous": false,
      "inputs": [
        {
          "indexed": true,
          "internalType": "address",
          "name": "from",
          "type": "address"
        },
        {
          "indexed": true,
          "internalType": "address",
          "name": "to",
          "type": "address"
        },
        {
          "indexed": false,
          "internalType": "address",
          "name": "tokenAddress",
          "type": "address"
        },
        {
          "indexed": false,
          "internalType": "uint256",
          "name": "value",
          "type": "uint256"
        },
        {
          "indexed": false,
          "internalType": "uint256",
          "name": "fromBalance",
          "type": "uint256"
        },
        {
          "indexed": false,
          "internalType": "uint256",
          "name": "toBalance",
          "type": "uint256"
        }
      ],
      "name": "EscrowScheduleTransfer",
      "type": "event"
    },
    {
      "anonymous": false,
      "inputs": [
        {
          "indexed": true,
          "internalType": "address",
          "name": "from",
          "type": "address"
        },
        {
          "indexed": true,
          "internalType": "address",
          "name": "to",
          "type": "address"
        },
        {
          "indexed": false,
          "internalType": "address",
          "name": "tokenAddress",
          "type": "address"
        },
        {
          "indexed": false,
          "internalType": "uint256",
          "name": "tokenType",
          "type": "uint256"
        },
        {
          "indexed": false,
          "internalType": "uint256",
          "name": "value",
          "type": "uint256"
        },
        {
          "indexed": false,
          "internalType": "uint256",
          "name": "fromBalance",
          "type": "uint256"
        },
        {
          "indexed": false,
          "internalType": "uint256",
          "name": "toBalance",
          "type": "uint256"
        }
      ],
      "name": "EscrowScheduleTransfer1155",
      "type": "event"
    },
    {
      "anonymous": false,
      "inputs": [
        {
          "indexed": true,
          "internalType": "address",
          "name": "from",
          "type": "address"
        },
        {
          "indexed": true,
          "internalType": "address",
          "name": "to",
          "type": "address"
        },
        {
          "indexed": false,
          "internalType": "address",
          "name": "tokenAddress",
          "type": "address"
        },
        {
          "indexed": false,
          "internalType": "uint256",
          "name": "value",
          "type": "uint256"
        },
        {
          "indexed": false,
          "internalType": "uint256",
          "name": "fromBalance",
          "type": "uint256"
        },
        {
          "indexed": false,
          "internalType": "uint256",
          "name": "toBalance",
          "type": "uint256"
        }
      ],
      "name": "EscrowTransfer",
      "type": "event"
    },
    {
      "anonymous": false,
      "inputs": [
        {
          "indexed": true,
          "internalType": "address",
          "name": "from",
          "type": "address"
        },
        {
          "indexed": true,
          "internalType": "address",
          "name": "to",
          "type": "address"
        },
        {
          "indexed": false,
          "internalType": "address",
          "name": "tokenAddress",
          "type": "address"
        },
        {
          "indexed": false,
          "internalType": "uint256",
          "name": "tokenType",
          "type": "uint256"
        },
        {
          "indexed": false,
          "internalType": "uint256",
          "name": "value",
          "type": "uint256"
        },
        {
          "indexed": false,
          "internalType": "uint256",
          "name": "fromBalance",
          "type": "uint256"
        },
        {
          "indexed": false,
          "internalType": "uint256",
          "name": "toBalance",
          "type": "uint256"
        }
      ],
      "name": "EscrowTransfer1155",
      "type": "event"
    },
    {
      "inputs": [],
      "name": "Admin",
      "outputs": [
        {
          "internalType": "address",
          "name": "",
          "type": "address"
        }
      ],
      "stateMutability": "view",
      "type": "function"
    },
    {
      "inputs": [
        {
          "internalType": "uint256",
          "name": "",
          "type": "uint256"
        }
      ],
      "name": "Transactions",
      "outputs": [
        {
          "internalType": "address",
          "name": "tokenAddress",
          "type": "address"
        },
        {
          "internalType": "uint256",
          "name": "index",
          "type": "uint256"
        },
        {
          "internalType": "uint256",
          "name": "chunkHash",
          "type": "uint256"
        },
        {
          "internalType": "uint256",
          "name": "bundleHash",
          "type": "uint256"
        },
        {
          "internalType": "enum DvpEscrow.EscortingType",
          "name": "txType",
          "type": "uint8"
        },
        {
          "internalType": "address",
          "name": "to",
          "type": "address"
        },
        {
          "internalType": "address",
          "name": "from",
          "type": "address"
        },
        {
          "internalType": "enum DvpEscrow.TokenStandard",
          "name": "tokenStandard",
          "type": "uint8"
        },
        {
          "internalType": "uint256",
          "name": "tokenType",
          "type": "uint256"
        },
        {
          "internalType": "uint256",
          "name": "amount",
          "type": "uint256"
        },
        {
          "internalType": "uint256",
          "name": "expireTime",
          "type": "uint256"
        },
        {
          "internalType": "bool",
          "name": "pending",
          "type": "bool"
        }
      ],
      "stateMutability": "view",
      "type": "function"
    },
    {
      "inputs": [
        {
          "internalType": "uint256",
          "name": "bundleHash",
          "type": "uint256"
        }
      ],
      "name": "cancel",
      "outputs": [],
      "stateMutability": "nonpayable",
      "type": "function"
    },
    {
      "inputs": [
        {
          "internalType": "uint256",
          "name": "bundleHash",
          "type": "uint256"
        }
      ],
      "name": "cancelERC1155",
      "outputs": [],
      "stateMutability": "nonpayable",
      "type": "function"
    },
    {
      "inputs": [
        {
          "internalType": "uint256",
          "name": "bundleHash",
          "type": "uint256"
        }
      ],
      "name": "cancelERC20",
      "outputs": [],
      "stateMutability": "nonpayable",
      "type": "function"
    },
    {
      "inputs": [
        {
          "internalType": "address",
          "name": "account",
          "type": "address"
        },
        {
          "internalType": "uint256",
          "name": "amount",
          "type": "uint256"
        }
      ],
      "name": "deposit",
      "outputs": [],
      "stateMutability": "nonpayable",
      "type": "function"
    },
    {
      "inputs": [
        {
          "internalType": "uint256",
          "name": "bundleHash",
          "type": "uint256"
        }
      ],
      "name": "execute",
      "outputs": [],
      "stateMutability": "nonpayable",
      "type": "function"
    },
    {
      "inputs": [
        {
          "internalType": "uint256",
          "name": "bundleHash",
          "type": "uint256"
        }
      ],
      "name": "executeERC1155",
      "outputs": [],
      "stateMutability": "nonpayable",
      "type": "function"
    },
    {
      "inputs": [
        {
          "internalType": "uint256",
          "name": "bundleHash",
          "type": "uint256"
        }
      ],
      "name": "executeERC20",
      "outputs": [],
      "stateMutability": "nonpayable",
      "type": "function"
    },
    {
      "inputs": [
        {
          "internalType": "address",
          "name": "account",
          "type": "address"
        }
      ],
      "name": "getBalance",
      "outputs": [
        {
          "internalType": "uint256",
          "name": "",
          "type": "uint256"
        }
      ],
      "stateMutability": "view",
      "type": "function"
    },
    {
      "inputs": [
        {
          "internalType": "address",
          "name": "account",
          "type": "address"
        },
        {
          "internalType": "uint256",
          "name": "tokenType",
          "type": "uint256"
        }
      ],
      "name": "getBalance1155",
      "outputs": [
        {
          "internalType": "uint256",
          "name": "",
          "type": "uint256"
        }
      ],
      "stateMutability": "view",
      "type": "function"
    },
    {
      "inputs": [
        {
          "internalType": "address",
          "name": "operator",
          "type": "address"
        },
        {
          "internalType": "address",
          "name": "from",
          "type": "address"
        },
        {
          "internalType": "uint256[]",
          "name": "ids",
          "type": "uint256[]"
        },
        {
          "internalType": "uint256[]",
          "name": "values",
          "type": "uint256[]"
        },
        {
          "internalType": "bytes",
          "name": "data",
          "type": "bytes"
        }
      ],
      "name": "onERC1155BatchReceived",
      "outputs": [
        {
          "internalType": "bytes4",
          "name": "",
          "type": "bytes4"
        }
      ],
      "stateMutability": "nonpayable",
      "type": "function"
    },
    {
      "inputs": [
        {
          "internalType": "address",
          "name": "operator",
          "type": "address"
        },
        {
          "internalType": "address",
          "name": "from",
          "type": "address"
        },
        {
          "internalType": "uint256",
          "name": "id",
          "type": "uint256"
        },
        {
          "internalType": "uint256",
          "name": "value",
          "type": "uint256"
        },
        {
          "internalType": "bytes",
          "name": "data",
          "type": "bytes"
        }
      ],
      "name": "onERC1155Received",
      "outputs": [
        {
          "internalType": "bytes4",
          "name": "",
          "type": "bytes4"
        }
      ],
      "stateMutability": "nonpayable",
      "type": "function"
    },
    {
      "inputs": [
        {
          "components": [
            {
              "internalType": "address",
              "name": "tokenAddress",
              "type": "address"
            },
            {
              "internalType": "address",
              "name": "to",
              "type": "address"
            },
            {
              "internalType": "uint256",
              "name": "tokenType",
              "type": "uint256"
            },
            {
              "internalType": "uint256",
              "name": "amount",
              "type": "uint256"
            },
            {
              "internalType": "uint256",
              "name": "index",
              "type": "uint256"
            },
            {
              "internalType": "uint256",
              "name": "chunkHash",
              "type": "uint256"
            },
            {
              "internalType": "uint256",
              "name": "bundleHash",
              "type": "uint256"
            },
            {
              "internalType": "uint256",
              "name": "expireTime",
              "type": "uint256"
            }
          ],
          "internalType": "struct DvpEscrow.ScheduleRequest",
          "name": "request",
          "type": "tuple"
        }
      ],
      "name": "scheduleBurn",
      "outputs": [
        {
          "internalType": "bool",
          "name": "",
          "type": "bool"
        }
      ],
      "stateMutability": "nonpayable",
      "type": "function"
    },
    {
      "inputs": [
        {
          "components": [
            {
              "internalType": "address",
              "name": "tokenAddress",
              "type": "address"
            },
            {
              "internalType": "address",
              "name": "to",
              "type": "address"
            },
            {
              "internalType": "uint256",
              "name": "tokenType",
              "type": "uint256"
            },
            {
              "internalType": "uint256",
              "name": "amount",
              "type": "uint256"
            },
            {
              "internalType": "uint256",
              "name": "index",
              "type": "uint256"
            },
            {
              "internalType": "uint256",
              "name": "chunkHash",
              "type": "uint256"
            },
            {
              "internalType": "uint256",
              "name": "bundleHash",
              "type": "uint256"
            },
            {
              "internalType": "uint256",
              "name": "expireTime",
              "type": "uint256"
            }
          ],
          "internalType": "struct DvpEscrow.ScheduleRequest",
          "name": "request",
          "type": "tuple"
        }
      ],
      "name": "scheduleBurn1155",
      "outputs": [
        {
          "internalType": "bool",
          "name": "",
          "type": "bool"
        }
      ],
      "stateMutability": "nonpayable",
      "type": "function"
    },
    {
      "inputs": [
        {
          "components": [
            {
              "internalType": "address",
              "name": "tokenAddress",
              "type": "address"
            },
            {
              "internalType": "address",
              "name": "to",
              "type": "address"
            },
            {
              "internalType": "uint256",
              "name": "tokenType",
              "type": "uint256"
            },
            {
              "internalType": "uint256",
              "name": "amount",
              "type": "uint256"
            },
            {
              "internalType": "uint256",
              "name": "index",
              "type": "uint256"
            },
            {
              "internalType": "uint256",
              "name": "chunkHash",
              "type": "uint256"
            },
            {
              "internalType": "uint256",
              "name": "bundleHash",
              "type": "uint256"
            },
            {
              "internalType": "uint256",
              "name": "expireTime",
              "type": "uint256"
            }
          ],
          "internalType": "struct DvpEscrow.ScheduleRequest",
          "name": "request",
          "type": "tuple"
        }
      ],
      "name": "scheduleMint",
      "outputs": [
        {
          "internalType": "bool",
          "name": "",
          "type": "bool"
        }
      ],
      "stateMutability": "nonpayable",
      "type": "function"
    },
    {
      "inputs": [
        {
          "components": [
            {
              "internalType": "address",
              "name": "tokenAddress",
              "type": "address"
            },
            {
              "internalType": "address",
              "name": "to",
              "type": "address"
            },
            {
              "internalType": "uint256",
              "name": "tokenType",
              "type": "uint256"
            },
            {
              "internalType": "uint256",
              "name": "amount",
              "type": "uint256"
            },
            {
              "internalType": "uint256",
              "name": "index",
              "type": "uint256"
            },
            {
              "internalType": "uint256",
              "name": "chunkHash",
              "type": "uint256"
            },
            {
              "internalType": "uint256",
              "name": "bundleHash",
              "type": "uint256"
            },
            {
              "internalType": "uint256",
              "name": "expireTime",
              "type": "uint256"
            }
          ],
          "internalType": "struct DvpEscrow.ScheduleRequest",
          "name": "request",
          "type": "tuple"
        }
      ],
      "name": "scheduleMint1155",
      "outputs": [
        {
          "internalType": "bool",
          "name": "",
          "type": "bool"
        }
      ],
      "stateMutability": "nonpayable",
      "type": "function"
    },
    {
      "inputs": [
        {
          "components": [
            {
              "internalType": "address",
              "name": "tokenAddress",
              "type": "address"
            },
            {
              "internalType": "address",
              "name": "to",
              "type": "address"
            },
            {
              "internalType": "uint256",
              "name": "tokenType",
              "type": "uint256"
            },
            {
              "internalType": "uint256",
              "name": "amount",
              "type": "uint256"
            },
            {
              "internalType": "uint256",
              "name": "index",
              "type": "uint256"
            },
            {
              "internalType": "uint256",
              "name": "chunkHash",
              "type": "uint256"
            },
            {
              "internalType": "uint256",
              "name": "bundleHash",
              "type": "uint256"
            },
            {
              "internalType": "uint256",
              "name": "expireTime",
              "type": "uint256"
            }
          ],
          "internalType": "struct DvpEscrow.ScheduleRequest",
          "name": "request",
          "type": "tuple"
        }
      ],
      "name": "scheduleTransfer",
      "outputs": [
        {
          "internalType": "bool",
          "name": "",
          "type": "bool"
        }
      ],
      "stateMutability": "nonpayable",
      "type": "function"
    },
    {
      "inputs": [
        {
          "components": [
            {
              "internalType": "address",
              "name": "tokenAddress",
              "type": "address"
            },
            {
              "internalType": "address",
              "name": "to",
              "type": "address"
            },
            {
              "internalType": "uint256",
              "name": "tokenType",
              "type": "uint256"
            },
            {
              "internalType": "uint256",
              "name": "amount",
              "type": "uint256"
            },
            {
              "internalType": "uint256",
              "name": "index",
              "type": "uint256"
            },
            {
              "internalType": "uint256",
              "name": "chunkHash",
              "type": "uint256"
            },
            {
              "internalType": "uint256",
              "name": "bundleHash",
              "type": "uint256"
            },
            {
              "internalType": "uint256",
              "name": "expireTime",
              "type": "uint256"
            }
          ],
          "internalType": "struct DvpEscrow.ScheduleRequest",
          "name": "request",
          "type": "tuple"
        }
      ],
      "name": "scheduleTransfer1155",
      "outputs": [
        {
          "internalType": "bool",
          "name": "",
          "type": "bool"
        }
      ],
      "stateMutability": "nonpayable",
      "type": "function"
    },
    {
      "inputs": [
        {
          "internalType": "bytes4",
          "name": "interfaceId",
          "type": "bytes4"
        }
      ],
      "name": "supportsInterface",
      "outputs": [
        {
          "internalType": "bool",
          "name": "",
          "type": "bool"
        }
      ],
      "stateMutability": "view",
      "type": "function"
    },
    {
      "inputs": [
        {
          "internalType": "address",
          "name": "account",
          "type": "address"
        },
        {
          "internalType": "uint256",
          "name": "amount",
          "type": "uint256"
        }
      ],
      "name": "withdraw",
      "outputs": [],
      "stateMutability": "nonpayable",
      "type": "function"
    }
  ],
  "bytecode": "0x608060405234601f57600e607f565b60405161284a61008b823961284a90f35b600080fd5b6036906039906001600160a01b031682565b90565b6001600160a01b031690565b6036906024565b6036906045565b90605f6036607b92604c565b82546001600160a01b0319166001600160a01b03919091161790565b9055565b60883360006053565b56fe6080604052600436101561001257600080fd5b60003560e01c806301ffc9a7146101625780631dbc4f021461015d578063256b60e31461015857806334008b161461015357806340e58ee51461014e57806340ea86581461014957806343b173911461014457806347e7ef241461013f5780636a2b45231461013a5780637550415a146101355780638e98bd8c146101305780639cfe3ed11461012b578063a746301d14610126578063bc197c8114610121578063eb2b96761461011c578063f1962bcf14610117578063f23a6e6114610112578063f3fef3a31461010d578063f8b2cb4f14610108578063fe0d94c1146101035763ff1b636d0361017a576109f0565b6109aa565b61098f565b610962565b610943565b6108ea565b6108cf565b610895565b6106fd565b6106e2565b6106ca565b61069e565b610686565b61066d565b61062f565b6105f0565b6105d8565b61059b565b610361565b610212565b6101a9565b6001600160e01b031981165b0361017a57565b600080fd5b9050359061018c82610167565b565b9060208282031261017a576101a29161017f565b90565b9052565b3461017a576101e76101d56101bf36600461018e565b6001600160e01b031916630271189760e51b1490565b60405191829182901515815260200190565b0390f35b80610173565b9050359061018c826101eb565b9060208282031261017a576101a2916101f1565b3461017a5761022a6102253660046101fe565b610bb7565b604051005b634e487b7160e01b600052604160045260246000fd5b90601f01601f1916810190811067ffffffffffffffff82111761026757604052565b61022f565b9061018c61027960405190565b9283610245565b6001600160a01b031690565b6001600160a01b038116610173565b9050359061018c8261028c565b91906101008382031261017a576103459060e06102c661010061026c565b946102d1838261029b565b86526102e0836020830161029b565b60208701526102f283604083016101f1565b604087015261030483606083016101f1565b606087015261031683608083016101f1565b60808701526103288360a083016101f1565b60a087015261033a8360c083016101f1565b60c0870152016101f1565b60e0830152565b906101008282031261017a576101a2916102a8565b3461017a576101e76101d561037736600461034c565b61113d565b6101a26101a26101a29290565b906103939061037c565b600052602052604060002090565b6101a29081565b6101a290546103a1565b6101a2905b60ff1690565b6101a290546103b2565b6101a29060081c610280565b6101a290546103c7565b6101a29060a01c6103b7565b6101a290546103dd565b6103fe906001610389565b9061041082546001600160a01b031690565b9161041d600182016103a8565b9161042a600283016103a8565b91610437600382016103a8565b91610444600483016103bd565b91610451600482016103d3565b9161046660058301546001600160a01b031690565b91610473600582016103e9565b91610480600683016103a8565b9161048d600782016103a8565b916101a2600961049f600885016103a8565b93016103bd565b634e487b7160e01b600052602160045260246000fd5b600311156104c657565b6104a6565b9061018c826104bc565b6101a2906104cb565b6101a5906104d5565b600211156104c657565b9061018c826104e7565b6101a2906104f1565b6101a5906104fb565b99979593919c9b9a98969492909c6101808b019d60008c01610536916001600160a01b03169052565b60208b015260408a0152606089015260808801610552916104de565b6001600160a01b031660a08701526001600160a01b031660c086015260e0850161057b91610504565b6101008401526101208301526101408201526101600161018c9115159052565b3461017a576101e76105b66105b13660046101fe565b6103f3565b986105cf9c9a9c98919897929796939695949560405190565b9c8d9c8d61050d565b3461017a5761022a6105eb3660046101fe565b611152565b3461017a576101e76101d561060636600461034c565b611350565b908161010091031261017a5790565b906101008282031261017a576101a29161060b565b3461017a576101e76101d561064536600461061a565b611559565b919060408382031261017a576101a2906020610666828661029b565b94016101f1565b3461017a5761022a61068036600461064a565b906115fb565b3461017a5761022a6106993660046101fe565b611638565b3461017a576101e76106ba6106b436600461064a565b906116d0565b6040519182918290815260200190565b3461017a5761022a6106dd3660046101fe565b6116f5565b3461017a576101e76101d56106f836600461061a565b6118d8565b3461017a576101e76101d561071336600461034c565b611a4a565b67ffffffffffffffff81116102675760208091020190565b9092919261074561074082610718565b61026c565b938185526020808601920283019281841161017a57915b8383106107695750505050565b6020809161077784866101f1565b81520192019161075c565b9080601f8301121561017a578160206101a293359101610730565b67ffffffffffffffff811161026757602090601f01601f19160190565b0190565b90826000939282370152565b909291926107da6107408261079d565b938185528183011161017a5761018c9160208501906107be565b9080601f8301121561017a578160206101a2933591016107ca565b91909160a08184031261017a57610826838261029b565b92610834816020840161029b565b92604083013567ffffffffffffffff811161017a5782610855918501610782565b92606081013567ffffffffffffffff811161017a5783610876918301610782565b92608082013567ffffffffffffffff811161017a576101a292016107f4565b3461017a576101e76108b46108ab36600461080f565b93929092611a7b565b604051918291826001600160e01b0319909116815260200190565b3461017a576101e76101d56108e536600461034c565b611b79565b3461017a5761022a6108fd3660046101fe565b611b84565b91909160a08184031261017a57610919838261029b565b92610927816020840161029b565b9261093582604085016101f1565b9261087683606083016101f1565b3461017a576101e76108b4610959366004610902565b93929092611c3e565b3461017a5761022a61097536600461064a565b90611ca9565b9060208282031261017a576101a29161029b565b3461017a576101e76106ba6109a536600461097b565b611ceb565b3461017a5761022a6109bd3660046101fe565b611d02565b600091031261017a57565b6101a2916008021c610280565b906101a291546109cd565b6101a26000806109da565b3461017a57610a003660046109c2565b6101e7610a0b6109e5565b604051918291826001600160a01b03909116815260200190565b906101a5906104cb565b906101a5906104f1565b6101a261018061026c565b9061018c610b7a6009610a55610a39565b94610a77610a6a82546001600160a01b031690565b6001600160a01b03168752565b610a8d610a86600183016103a8565b6020880152565b610aa3610a9c600283016103a8565b6040880152565b610ab9610ab2600383016103a8565b6060880152565b610ad1610ac8600483016103bd565b60808801610a25565b610af0610ae0600483016103d3565b6001600160a01b031660a0880152565b610b17610b0760058301546001600160a01b031690565b6001600160a01b031660c0880152565b610b2f610b26600583016103e9565b60e08801610a2f565b610b46610b3e600683016103a8565b610100880152565b610b5d610b55600783016103a8565b610120880152565b610b74610b6c600883016103a8565b610140880152565b016103bd565b1515610160840152565b6101a290610a44565b9060ff905b9181191691161790565b90610bac6101a2610bb392151590565b8254610b8d565b9055565b6101a2610bc5916001610389565b60048101610bd2816103bd565b90600091610be8610be2846104cb565b916104cb565b03610c0b5750600982610c05610c0061018c95610b84565b612027565b01610b9c565b610c14816103bd565b610c21610be260016104cb565b03610c3e5750600982610c05610c3961018c95610b84565b611f20565b610c47906103bd565b610c54610be260026104cb565b14610c5e575b5050565b600982610c05610c7061018c95610b84565b611dc3565b90610c826107408361079d565b918252565b610c916020610c75565b7f696e76616c696420746f6b656e416464726573732069732070726f7669646564602082015290565b6101a2610c87565b6102806101a26101a29290565b6101a290610cc2565b60005b838110610ceb5750506000910152565b8181015183820152602001610cdb565b610d1c610d256020936107ba93610d10815190565b80835293849260200190565b95869101610cd8565b601f01601f191690565b60208082526101a292910190610cfb565b15610d485750565b610d6a90610d5560405190565b62461bcd60e51b815291829160048301610d2f565b0390fd5b6101a29190610db4610d8783516001600160a01b031690565b610d8f610cba565b90610dad610da06102806000610ccf565b916001600160a01b031690565b1415610d40565b610df4565b610dc3601d610c75565b7f616d6f756e74206d7573742062652067726561746572207468616e2030000000602082015290565b6101a2610db9565b906101a291610e27610e07606084015190565b610e0f610dec565b90610e21610e1d600061037c565b9190565b11610d40565b610e60565b610e366016610c75565b75062756e646c6520686173682063616e277420626520360541b602082015290565b6101a2610e2c565b906101a291610e89610e7360c084015190565b610e7b610e58565b90610dad610e1d600061037c565b610fbd565b15610e9557565b60405162461bcd60e51b815260206004820152603360248201527f7472616e73616374696f6e2077697468207468652073616d652062756e646c656044820152724861736820616c72656164792065786973747360681b6064820152608490fd5b6101a290610280906001600160a01b031682565b6101a290610ef6565b6101a290610f0a565b801515610173565b9050519061018c82610f1c565b9060208282031261017a576101a291610f24565b6001600160a01b0391821681529116602082015260608101929161018c9160400152565b0152565b6040513d6000823e3d90fd5b6101a59061037c565b610f6961018c94610fb3606094989795610fac608086019a60008701906001600160a01b03169052565b6020850152565b6040830190610f79565b50600190610fe8610120610fe3610fde610fd860c086015190565b86610389565b610b84565b015190565b611000600091610ffa610e1d8461037c565b14610e8e565b8082019161102061101b61101b85516001600160a01b031690565b610f13565b9161102a30610f13565b9381602061105e606086019661103e885190565b60405196879384928391906323b872dd60e01b83528d3360048501610f45565b03925af19586156111385761108561068095611106956101a29961110b575b5089846121be565b7f8be353d3c6a773809a0533dfcfc649985fe4145e5ee815b5918155a96a8c94746110ba6109a585516001600160a01b031690565b84516001600160a01b03166110f66110d08a5190565b926110e36110dd33610f13565b96610f13565b966110ed60405190565b94859485610f82565b0390a3516001600160a01b031690565b915190565b61112c9060203d602011611131575b6111248183610245565b810190610f31565b61107d565b503d61111a565b610f6d565b6101a2906000610d6e565b6101a290516104f1565b611160610fde826001610389565b610160810151151561117460005b91151590565b14610c5a5760e06111a6910161118981611148565b61119c61119660006104f1565b916104f1565b146111c457611148565b6111b361119660016104f1565b146111bb5750565b61018c90611638565b6111cd83611b84565b611148565b6101a291906111eb610d8783516001600160a01b031690565b906101a2916111fe610e07606084015190565b906101a291611211610e7360c084015190565b61125d565b9095949261018c94611253610f699261124c60809661124560a088019c60008901906001600160a01b03169052565b6020870152565b6040850152565b6060830190610f79565b506101a2600191611291611284610120610fe3610fde61127e60c087015190565b88610389565b610ffa610e1d600061037c565b61129d816002856121be565b8061134a6111066113456112b884516001600160a01b031690565b946112c960408601966106b4885190565b6112d230610f13565b7faf8a3e347a1d39dc1d291f8d4272ad009ce8844d82000d2d2e6d69ed6e5140a661130484516001600160a01b031690565b97606061130f8b5190565b9101986110f661131d8b5190565b95600061133261132c33610f13565b97610f13565b9761133c60405190565b95869586611216565b935190565b916122b8565b6101a29060006111d2565b356101a28161028c565b6101a29190611376610d878361135b565b611385565b356101a2816101eb565b906101a291611399610e076060840161137b565b906101a2916113ad610e7360c0840161137b565b6113fe565b610f6961018c946113ec6060949897956113dc608086019a60008701906001600160a01b03169052565b6001600160a01b03166020850152565b6040830152565b6101a29036906102a8565b5060019061141a610120610fe3610fde610fd860c0860161137b565b61142c600091610ffa610e1d8461037c565b8082019061149361144261101b61101b8561135b565b9161144c30610f13565b946040810194602061145d8761137b565b606084019661146b8861137b565b91868b61147760405190565b998a9586948593636321005960e11b5b855233600486016113b2565b03925af1928315611138576101a2976114c66114bf6115309561134a986115369861153c575b506113f3565b838c6121be565b7fb64b2921cdd970311589fc48151c631c3a4ddf8d7dc80709a0106700898b990f6114fc6114f38561135b565b6106b48b61137b565b6115058561135b565b6115286115118c61137b565b9261151b8c61137b565b9661133261132c33610f13565b0390a361135b565b9361137b565b9161137b565b6115549060203d602011611131576111248183610245565b6114b9565b6101a2906000611365565b1561156b57565b60405162461bcd60e51b8152602060048201526015602482015274135d5cdd081cd95b99081cdbdb5948185b5bdd5b9d605a1b6044820152606490fd5b9061039390610f13565b634e487b7160e01b600052601160045260246000fd5b919082018092116115d557565b6115b2565b9060001990610b92565b906115f46101a2610bb39261037c565b82546115da565b9061163261162361018c9361161c611613600061037c565b855b1015611564565b60026115a8565b9161162d836103a8565b6115c8565b906115e4565b6101a2611646916001610389565b60048101611653816103bd565b611660610be260006104cb565b1480156116b3575b1561168757506000600982610c0561168261018c95610b84565b61233e565b611690906103bd565b61169d610be260026104cb565b146116a55750565b6000600961018c9201610b9c565b506116bd816103bd565b6116ca610be260016104cb565b14611668565b6101a2916116eb6116f0926116e3600090565b5060036115a8565b610389565b6103a8565b6101a2611703916001610389565b60048101611710816103bd565b90600091611720610be2846104cb565b0361173d5750600982610c0561173861018c95610b84565b612684565b611746816103bd565b611753610be260016104cb565b036117705750600982610c0561176b61018c95610b84565b612582565b611779906103bd565b611786610be260026104cb565b1461178f575050565b600982610c056117a161018c95610b84565b612485565b6101a291906117b7610d878361135b565b906101a2916117cb610e076060840161137b565b906101a2916117df610e7360c0840161137b565b506117ff610120610fe3610fde6117f860c0860161137b565b6001610389565b90611812600092610ffa610e1d8561037c565b81810161182461101b61101b8361135b565b9161182e30610f13565b9184602061186360608501966118438861137b565b604051998a9384928391906323b872dd60e01b83528b3360048501610f45565b03925af19384156111385761189161188a611536956118d3996106809861153c57506113f3565b83806121be565b7f8be353d3c6a773809a0533dfcfc649985fe4145e5ee815b5918155a96a8c94746118be6109a58561135b565b6118c78561135b565b6115286110d08a61137b565b600190565b6101a29060006117a6565b6101a291906118fc610d8783516001600160a01b031690565b906101a29161190f610e07606084015190565b906101a291611922610e7360c084015190565b50600190611946611284610120610fe3610fde61194060c087015190565b87610389565b8061195c61101b8083516001600160a01b031690565b61196530610f13565b9260408301926119a66020611978865190565b6060840195611985875190565b9160008a61199260405190565b96879586948593636321005960e11b611487565b03925af1928315611138576101a2966119d1611106946113459461134a97611a2d575b508a806121be565b6119ec6119e583516001600160a01b031690565b88516106b4565b907fb64b2921cdd970311589fc48151c631c3a4ddf8d7dc80709a0106700898b990f611a1f84516001600160a01b031690565b8951906110f661131d8b5190565b611a459060203d602011611131576111248183610245565b6119c9565b6101a29060006118e3565b611a6e611a686101a29263ffffffff1690565b60e01b90565b6001600160e01b03191690565b5050505050611a88600090565b506101a263bc197c81611a55565b6101a29190611aaf610d8783516001600160a01b031690565b906101a291611ac2610e07606084015190565b906101a291611ad5610e7360c084015190565b506118d390610680611106611af7610120610fe3610fde6117f860c088015190565b611b09600091610ffa610e1d8461037c565b611b15846002836121be565b80840190611b2d6109a583516001600160a01b031690565b7f7caf1d1e6a13b721c9665f2adf921aff907338c6de1d9943aec1b35cebb85801611b5730610f13565b916060611b6b86516001600160a01b031690565b9801976110f66110d08a5190565b6101a2906000611a96565b6101a2611b92916001610389565b6009810190611ba0826103bd565b60009190611bad8361116e565b14611c395760048101611bbf816103bd565b611bcb610be2856104cb565b148015611c1c575b15611bf3575091611bee611be961018c94610b84565b612738565b610b9c565b611bfd91506103bd565b611c0a610be260026104cb565b14611c13575050565b61018c91610b9c565b50611c26816103bd565b611c33610be260016104cb565b14611bd3565b505050565b5050505050611c4b600090565b506101a263f23a6e61611a55565b15611c6057565b60405162461bcd60e51b8152602060048201526014602482015273496e73756666696369656e742062616c616e636560601b6044820152606490fd5b919082039182116115d557565b90611632611cdc61018c93611cc1611613600061037c565b61161c611cd26116f08360026115a8565b85905b1015611c59565b91611ce6836103a8565b611c9c565b6116f06101a291611cfa600090565b5060026115a8565b611d10610fde826001610389565b6101608101511515611d22600061116e565b14610c5a5760e0611d4e9101611d3781611148565b611d4461119660006104f1565b14611d6c57611148565b611d5b61119660016104f1565b14611d635750565b61018c906116f5565b6111cd83610bb7565b6001600160a01b03909116815260408101929161018c9160200152565b611dbc61018c946113ec606094989795610fac608086019a60008701906001600160a01b03169052565b0190610f79565b80611dd961101b8083516001600160a01b031690565b9160a0820192611df084516001600160a01b031690565b92610120810193611dff855190565b833b1561017a57611e369360009283611e1760405190565b809781958294611e2b6340c10f1960e01b90565b845260048401611d75565b03925af19081156111385761018c956109759461110694600094611ef4575b507f8930357ea0b2f8645ab5c2e127c67f60a62ad7fb291cecd8a8bcb92cd545b2c7611e91611e8330610f13565b93516001600160a01b031690565b9188611ee387611ed06110dd611eca6109a5611ebc611eb789516001600160a01b031690565b975190565b97516001600160a01b031690565b98610f13565b96611eda60405190565b94859485611d92565b0390a301516001600160a01b031690565b611f1390853d8711611f19575b611f0b8183610245565b8101906109c2565b38611e55565b503d611f01565b80611f3661101b8083516001600160a01b031690565b91610120810191611f45835190565b93803b1561017a57611f7e600095918692611f5f60405190565b9788938492839190630852cd8d60e31b83526004830190815260200190565b03925af191821561113857611fae6109a56111069361018c9761097596612011575b50516001600160a01b031690565b611fb730610f13565b917f4920d29cca5e296dcd6551f08f22f44255c14c45133e34338c9eef31abb004866000611fe481610ccf565b920193611ff885516001600160a01b031690565b6110f66000611ed06110dd61200b8d5190565b95610f13565b612021906000611f0b8183610245565b38611fa0565b8061203d61101b8083516001600160a01b031690565b9061208760a0840193602061205986516001600160a01b031690565b610120830195612067875190565b91600061207360405190565b809781958294611e2b63a9059cbb60e01b90565b03925af19081156111385761018c95610975946111069460009461211b575b507f7ca0f7c6a8bb4cf2adeb7f49a76dccee517862e11550f3d9c65413ae76a63d526120dc6109a583516001600160a01b031690565b9288611ee387611ed06110dd61200b6121166121086120fa30610f13565b98516001600160a01b031690565b99516001600160a01b031690565b955190565b6121339060203d602011611131576111248183610245565b6120a6565b906001600160a01b0390610b92565b906121576101a2610bb392610f13565b8254612138565b90610bac6101a2610bb3926104d5565b90610100600160a81b039060081b610b92565b906121916101a2610bb392610f13565b825461216e565b9060ff60a01b9060a01b610b92565b906121b76101a2610bb3926104fb565b8254612198565b6122b160e061018c9461227560089460c083019661220e6122056121e66101a26117f88c5190565b996122016121fb88516001600160a01b031690565b8c612147565b5190565b60038a016115e4565b61222561221c60a086015190565b60028a016115e4565b61223360048901918261215e565b61225960058901916122453384612147565b60208601516001600160a01b031690612181565b612270612267608086015190565b60018a016115e4565b6121a7565b61228c612283604083015190565b600687016115e4565b6122a361229a606083015190565b600787016115e4565b610fe3600160098701610b9c565b91016115e4565b61162361018c93926116eb611632936122da6122d4600061037c565b87611615565b60036115a8565b6001600160a01b03909116815260608101939261018c929091604091610f69906020830152565b9095949261018c94612337611dbc9261124c60809661124560a088019c60008901906001600160a01b03169052565b6060830152565b8061235461101b8083516001600160a01b031690565b60c0830180516001600160a01b0316926123ad6020610100870195612377875190565b956101208901966000612388895190565b9361239260405190565b9687958694859363cdb7c81d60e01b5b8552600485016122e1565b03925af180156111385761018c96612462946111069461134594600094612468575b507f6e7591cf24ed7b5acabd1b007bd1b126bffcc41bdf50c369d8da45561adb114d888a611ee38761241261240b87516001600160a01b031690565b84516106b4565b61244f61132c612449611eb7611eb761243b61242d30610f13565b9d516001600160a01b031690565b9b516001600160a01b031690565b99610f13565b9761245960405190565b95869586612308565b916127dc565b6124809060203d602011611131576111248183610245565b6123cf565b8061249b61101b8083516001600160a01b031690565b60a0830180516001600160a01b0316926101008501936124b9855190565b906101208701946124c8865190565b90803b1561017a576124f593600080946124e160405190565b96879586948593637d13ce5560e11b6123a2565b03925af180156111385761018c96612462946111069461134594600094612553575b507f42aa4dcf632702235c26d3ce702973ba15d0ff2840b5d495a2ddb85d5cd9cd5a888a611ee38761241261240b87516001600160a01b031690565b61256990853d8711611f1957611f0b8183610245565b38612517565b90815260408101929161018c9160200152565b8061259861101b8083516001600160a01b031690565b906101008301916125a7835190565b916101208501926125b6845190565b833b1561017a576125ed93600092836125ce60405190565b8097819582946125e263dabd050460e01b90565b84526004840161256f565b03925af19081156111385761018c956126276126206113459361246296611106966120115750516001600160a01b031690565b87516106b4565b9061263130610f13565b907f3b27b01f09f3a0fbf25dc103a8a9da3784fccc4938b03d95a806762aec9158c187896110f660008061266481610ccf565b96019761244f61132c612449611eb7611eb78d516001600160a01b031690565b8061269a61101b8083516001600160a01b031690565b60a0830180516001600160a01b0316926126bd6020610100870195612377875190565b03925af180156111385761018c9661246294611106946113459460009461271b575b507f3e4ace5b04d11d3cf157a917bacefb225bd4a74aca20e21029fec459f893388b888a611ee38761241261240b87516001600160a01b031690565b6127339060203d602011611131576111248183610245565b6126df565b8061274e61101b8083516001600160a01b031690565b9061276a60c0840193602061205986516001600160a01b031690565b03925af19081156111385761018c9561097594611106946000946127bf575b507f9101c2322dc98ec098c62b4ec9a68831b01ff1df2a589ad0f2160b0b2fc2c74a6120dc6109a583516001600160a01b031690565b6127d79060203d602011611131576111248183610245565b612789565b611cdc61018c93926116eb611632936127f86122d4600061037c565b6122da61280d6116f0856116eb8560036115a8565b8790611cd556fea2646970667358221220c252d6f4712e1dc3b26942f3d7fa2b017162d2cdebbad699b1c9fd51cea4f01a64736f6c63430008190033",
  "linkReferences": {},
  "deployedLinkReferences": {}
}