{
  "_format": "hh-sol-artifact-1",
  "contractName": "RootStorage",
  "sourceName": "contracts/nova/test/generated/merkel_root_strorage.sol",
  "abi": [
    {
      "inputs": [
        {
          "internalType": "uint256",
          "name": "",
          "type": "uint256"
        }
      ],
      "name": "latestBalanceRoots",
      "outputs": [
        {
          "internalType": "uint256",
          "name": "",
          "type": "uint256"
        }
      ],
      "stateMutability": "view",
      "type": "function"
    },
    {
      "inputs": [
        {
          "internalType": "uint256",
          "name": "addr",
          "type": "uint256"
        },
        {
          "internalType": "uint256",
          "name": "root",
          "type": "uint256"
        }
      ],
      "name": "queryBalanceRootExist",
      "outputs": [
        {
          "internalType": "uint256",
          "name": "",
          "type": "uint256"
        }
      ],
      "stateMutability": "view",
      "type": "function"
    },
    {
      "inputs": [
        {
          "internalType": "uint256",
          "name": "addr",
          "type": "uint256"
        }
      ],
      "name": "queryLatestBalanceRoot",
      "outputs": [
        {
          "internalType": "uint256",
          "name": "",
          "type": "uint256"
        }
      ],
      "stateMutability": "view",
      "type": "function"
    },
    {
      "inputs": [
        {
          "internalType": "uint256",
          "name": "addr",
          "type": "uint256"
        },
        {
          "internalType": "uint256",
          "name": "root",
          "type": "uint256"
        }
      ],
      "name": "queryTxRootExist",
      "outputs": [
        {
          "internalType": "uint256",
          "name": "",
          "type": "uint256"
        }
      ],
      "stateMutability": "view",
      "type": "function"
    },
    {
      "inputs": [
        {
          "internalType": "bytes",
          "name": "data",
          "type": "bytes"
        },
        {
          "internalType": "uint256",
          "name": "contractAddr",
          "type": "uint256"
        }
      ],
      "name": "verify",
      "outputs": [
        {
          "internalType": "Fr[]",
          "name": "",
          "type": "uint256[]"
        }
      ],
      "stateMutability": "nonpayable",
      "type": "function"
    }
  ],
  "bytecode": "0x6080604052346019576040516109f661001f82396109f690f35b600080fdfe6080604052600436101561001257600080fd5b60003560e01c80632d5bb9851461006257806346ddff421461005d578063527de68e14610058578063ac318c5d146100535763f346c5c80361006757610275565b61024d565b61014c565b610131565b61009d565b600080fd5b905035905b565b91906040838203126100675761009690602061008f828661006c565b940161006c565b90565b9052565b34610067576100c96100b96100b3366004610073565b906102a1565b6040519182918290815260200190565b0390f35b90602082820312610067576100969161006c565b6100966100966100969290565b906100f8906100e1565b600052602052604060002090565b610096916008021c81565b906100969154610106565b600061012c6100969260046100ee565b610111565b34610067576100c96100b96101473660046100cd565b61011c565b34610067576100c96100b9610162366004610073565b906102c9565b909182601f830112156100675781359167ffffffffffffffff831161006757602001926001830284011161006757565b9160408383031261006757823567ffffffffffffffff811161006757826101c6602094610096938701610168565b9490950161006c565b610099906100e1565b906101e5816020936101cf565b0190565b906102096102026101f8845190565b8084529260200190565b9260200190565b9060005b81811061021a5750505090565b90919261023461022d60019286516101d8565b9460200190565b92910161020d565b6020808252610096929101906101e9565b34610067576100c9610269610263366004610198565b91610502565b6040519182918261023c565b34610067576100c96100b961028b3660046100cd565b6105a6565b6100969081565b6100969054610290565b6100969160016102be6102c4936102b6600090565b5060006100ee565b016100ee565b610297565b6100969160006102be6102c4936102de600090565b50826100ee565b634e487b7160e01b600052604160045260246000fd5b90601f01601f1916810190811067ffffffffffffffff82111761031d57604052565b6102e5565b9061007161032f60405190565b92836102fb565b6100966020610322565b610348610336565b9060608252565b610096610340565b67ffffffffffffffff811161031d57602090601f01601f19160190565b90826000939282370152565b9092919261039561039082610357565b610322565b938185528183011161006757610071916020850190610374565b610096913691610380565b67ffffffffffffffff811161031d5760208091020190565b909291926103e2610390826103ba565b938185526020808601920283019281841161006757915b8383106104065750505050565b82518152602092830192016103f9565b9080601f83011215610067578151610096926020016103d2565b9160608383031261006757825192602081015167ffffffffffffffff8111610067578361045e918301610416565b92604082015167ffffffffffffffff8111610067576100969201610416565b60005b8381106104905750506000910152565b8181015183820152602001610480565b6104c16104ca6020936101e5936104b5815190565b80835293849260200190565b9586910161047d565b601f01601f191690565b5160208083526100969201906104a0565b6020808252610096929101906104d4565b6040513d6000823e3d90fd5b60009061052461055a9493610515606090565b5061051e61034f565b926103af565b8183015273__$4cf6926448a1f2f771afaf7bcac062e43d$__60405194859283918291632d03b6d960e01b8352600483016104e5565b03915af49182156105a157600092610578575b506100969082610708565b6105989061009692933d8091833e61059081836102fb565b810190610430565b5092915061056d565b6104f6565b6102c4610096916105b5600090565b5060046100ee565b906100966100966105cd926100e1565b9055565b156105d857565b60405162461bcd60e51b815260206004820152601c60248201527f726f6f74206c656e677468206d75737420657175616c20746f203138000000006044820152606490fd5b634e487b7160e01b600052603260045260246000fd5b9061063c825190565b81101561064d576020809102010190565b61061d565b9061065f61039083610357565b918252565b61066e6008610652565b6703a3c2937b7ba1d160c51b602082015290565b610096610664565b610694600d610652565b6c03130b630b731b2a937b7ba1d1609d1b602082015290565b61009661068a565b6106bf6015610652565b7403130b630b731b2a937b7ba1030ba1034b73232bc1605d1b602082015290565b6100966106b5565b6106f26002610652565b6101d160f51b602082015290565b6100966106e8565b906107149060016105bd565b80519061073460129261072e61072a60126100e1565b9190565b146105d1565b61076061075961075461075061074a60116100e1565b85610633565b5190565b6100e1565b60036105bd565b61078661076d6003610297565b61078161077a6001610297565b60046100ee565b6105bd565b6107a361079c61075461075061074a60006100e1565b60026105bd565b6107bd6107b06002610297565b6107b8610682565b6108c3565b6107d26107ca6003610297565b6107b86106ad565b6107e96100966107e26001610297565b60006100ee565b9161080b6107f76001610297565b610781856108056002610297565b906100ee565b600191829161081a60016100e1565b925b610828575b5050505050565b610831816100e1565b83101561089c5761089683610850610759610754610750899888610633565b61087461085d6003610297565b6108656106e0565b8361086e610700565b9161093f565b61089061088086610297565b610781878a016108056003610297565b60010190565b9261081c565b610821565b929160206108be61007193604087019087820360008901526104a0565b940152565b906108ff610071926108f06108d760405190565b632d839cb360e21b6020820152938492602484016108a1565b602082018103825203826102fb565b61096d565b9493916108be906100719461093261092a60609560808b01908b820360008d01526104a0565b9260208a0152565b87820360408901526104a0565b6108f0610071946108ff939461095460405190565b63c67ea9d160e01b602082015295869460248601610904565b6100719060016109b0565b6000809161098e6a636f6e736f6c652e6c6f6790565b602082519201905afa50565b634e487b7160e01b600052605160045260246000fd5b60010361099a576100719061097856fea26469706673582212206ff5067e4cf6f266c9359e3e9aaf3e3bcf5fa21b289fb566231d49e417dc87e564736f6c63430008190033",
  "linkReferences": {
    "contracts/nova/sol/verifier.sol": {
      "ZkVerifier": [
        {
          "length": 20,
          "start": 1353
        }
      ]
    }
  },
  "deployedLinkReferences": {
    "contracts/nova/sol/verifier.sol": {
      "ZkVerifier": [
        {
          "length": 20,
          "start": 1322
        }
      ]
    }
  }
}