{
  "_format": "hh-sol-artifact-1",
  "contractName": "RealDigitalDefaultAccount",
  "sourceName": "contracts/hamsa/drex-connect/RealDigitalDefaultAccount.sol",
  "abi": [
    {
      "inputs": [
        {
          "internalType": "contract RealDigital",
          "name": "token",
          "type": "address"
        },
        {
          "internalType": "address",
          "name": "_authority",
          "type": "address"
        },
        {
          "internalType": "address",
          "name": "_admin",
          "type": "address"
        }
      ],
      "stateMutability": "nonpayable",
      "type": "constructor"
    },
    {
      "inputs": [],
      "name": "AccessControlBadConfirmation",
      "type": "error"
    },
    {
      "inputs": [
        {
          "internalType": "address",
          "name": "account",
          "type": "address"
        },
        {
          "internalType": "bytes32",
          "name": "neededRole",
          "type": "bytes32"
        }
      ],
      "name": "AccessControlUnauthorizedAccount",
      "type": "error"
    },
    {
      "anonymous": false,
      "inputs": [
        {
          "indexed": true,
          "internalType": "bytes32",
          "name": "role",
          "type": "bytes32"
        },
        {
          "indexed": true,
          "internalType": "bytes32",
          "name": "previousAdminRole",
          "type": "bytes32"
        },
        {
          "indexed": true,
          "internalType": "bytes32",
          "name": "newAdminRole",
          "type": "bytes32"
        }
      ],
      "name": "RoleAdminChanged",
      "type": "event"
    },
    {
      "anonymous": false,
      "inputs": [
        {
          "indexed": true,
          "internalType": "bytes32",
          "name": "role",
          "type": "bytes32"
        },
        {
          "indexed": true,
          "internalType": "address",
          "name": "account",
          "type": "address"
        },
        {
          "indexed": true,
          "internalType": "address",
          "name": "sender",
          "type": "address"
        }
      ],
      "name": "RoleGranted",
      "type": "event"
    },
    {
      "anonymous": false,
      "inputs": [
        {
          "indexed": true,
          "internalType": "bytes32",
          "name": "role",
          "type": "bytes32"
        },
        {
          "indexed": true,
          "internalType": "address",
          "name": "account",
          "type": "address"
        },
        {
          "indexed": true,
          "internalType": "address",
          "name": "sender",
          "type": "address"
        }
      ],
      "name": "RoleRevoked",
      "type": "event"
    },
    {
      "inputs": [],
      "name": "DEFAULT_ADMIN_ROLE",
      "outputs": [
        {
          "internalType": "bytes32",
          "name": "",
          "type": "bytes32"
        }
      ],
      "stateMutability": "view",
      "type": "function"
    },
    {
      "inputs": [
        {
          "internalType": "uint256",
          "name": "cnpj8",
          "type": "uint256"
        },
        {
          "internalType": "address",
          "name": "wallet",
          "type": "address"
        }
      ],
      "name": "addDefaultAccount",
      "outputs": [],
      "stateMutability": "nonpayable",
      "type": "function"
    },
    {
      "inputs": [
        {
          "internalType": "uint256",
          "name": "cnpj8",
          "type": "uint256"
        }
      ],
      "name": "defaultAccount",
      "outputs": [
        {
          "internalType": "address",
          "name": "",
          "type": "address"
        }
      ],
      "stateMutability": "view",
      "type": "function"
    },
    {
      "inputs": [
        {
          "internalType": "bytes32",
          "name": "role",
          "type": "bytes32"
        }
      ],
      "name": "getRoleAdmin",
      "outputs": [
        {
          "internalType": "bytes32",
          "name": "",
          "type": "bytes32"
        }
      ],
      "stateMutability": "view",
      "type": "function"
    },
    {
      "inputs": [
        {
          "internalType": "bytes32",
          "name": "role",
          "type": "bytes32"
        },
        {
          "internalType": "address",
          "name": "account",
          "type": "address"
        }
      ],
      "name": "grantRole",
      "outputs": [],
      "stateMutability": "nonpayable",
      "type": "function"
    },
    {
      "inputs": [
        {
          "internalType": "bytes32",
          "name": "role",
          "type": "bytes32"
        },
        {
          "internalType": "address",
          "name": "account",
          "type": "address"
        }
      ],
      "name": "hasRole",
      "outputs": [
        {
          "internalType": "bool",
          "name": "",
          "type": "bool"
        }
      ],
      "stateMutability": "view",
      "type": "function"
    },
    {
      "inputs": [
        {
          "internalType": "bytes32",
          "name": "role",
          "type": "bytes32"
        },
        {
          "internalType": "address",
          "name": "callerConfirmation",
          "type": "address"
        }
      ],
      "name": "renounceRole",
      "outputs": [],
      "stateMutability": "nonpayable",
      "type": "function"
    },
    {
      "inputs": [
        {
          "internalType": "bytes32",
          "name": "role",
          "type": "bytes32"
        },
        {
          "internalType": "address",
          "name": "account",
          "type": "address"
        }
      ],
      "name": "revokeRole",
      "outputs": [],
      "stateMutability": "nonpayable",
      "type": "function"
    },
    {
      "inputs": [
        {
          "internalType": "bytes4",
          "name": "interfaceId",
          "type": "bytes4"
        }
      ],
      "name": "supportsInterface",
      "outputs": [
        {
          "internalType": "bool",
          "name": "",
          "type": "bool"
        }
      ],
      "stateMutability": "view",
      "type": "function"
    },
    {
      "inputs": [
        {
          "internalType": "uint256",
          "name": "cnpj8",
          "type": "uint256"
        },
        {
          "internalType": "address",
          "name": "newWallet",
          "type": "address"
        }
      ],
      "name": "updateDefaultWallet",
      "outputs": [],
      "stateMutability": "nonpayable",
      "type": "function"
    }
  ],
  "bytecode": "0x60806040523461002b5761001a6100146100fc565b91610175565b60405161087c610197823961087c90f35b600080fd5b634e487b7160e01b600052604160045260246000fd5b90601f01601f191681019081106001600160401b0382111761006757604052565b610030565b9061008061007960405190565b9283610046565b565b6001600160a01b031690565b90565b6001600160a01b0381165b0361002b57565b9050519061008082610091565b6001600160a01b03811661009c565b90505190610080826100b0565b909160608284031261002b5761008e6100e584846100a3565b9360406100f582602087016100bf565b94016100bf565b61011a610a138038038061010f8161006c565b9283398101906100cc565b909192565b61008e90610082906001600160a01b031682565b61008e9061011f565b61008e90610133565b9061015561008e6101719261013c565b82546001600160a01b0319166001600160a01b03919091161790565b9055565b610080929161018861018f926001610145565b6002610145565b600361014556fe6080604052600436101561001257600080fd5b60003560e01c806301ffc9a7146100b2578063248a9ca3146100ad5780632f2ff15d146100a857806336568abe146100a35780633f65c4a11461009e5780634ebc9e591461009957806391d14854146100945780639356cfc11461008f578063a217fddf1461008a5763d547741f036100ca576102c2565b6102a7565b610264565b610248565b61022f565b6101fa565b6101e1565b6101c3565b61014d565b6100f5565b6001600160e01b031981165b036100ca57565b600080fd5b905035906100dc826100b7565b565b906020828203126100ca576100f2916100cf565b90565b346100ca5761012261011061010b3660046100de565b6102db565b60405191829182901515815260200190565b0390f35b806100c3565b905035906100dc82610126565b906020828203126100ca576100f29161012c565b346100ca57610122610168610163366004610139565b610336565b6040519182918290815260200190565b6001600160a01b031690565b6001600160a01b0381166100c3565b905035906100dc82610184565b91906040838203126100ca576100f29060206101bc828661012c565b9401610193565b346100ca576101dc6101d63660046101a0565b90610378565b604051005b346100ca576101dc6101f43660046101a0565b90610382565b346100ca57610122610215610210366004610139565b6103c4565b604051918291826001600160a01b03909116815260200190565b346100ca576101dc6102423660046101a0565b90610618565b346100ca5761012261011061025e3660046101a0565b9061062c565b346100ca576101dc6102773660046101a0565b90610699565b60009103126100ca57565b6100f26100f26100f29290565b6100f26000610288565b6100f2610295565b346100ca576102b736600461027d565b61012261016861029f565b346100ca576101dc6102d53660046101a0565b906106db565b637965db0b60e01b6001600160e01b03198216149081156102fa575090565b6100f291506001600160e01b0319166301ffc9a760e01b1490565b905b600052602052604060002090565b6100f29081565b6100f29054610325565b600161034f6100f292610347600090565b506000610315565b0161032c565b906100dc9161036b61036682610336565b6106e5565b9061037591610710565b50565b906100dc91610355565b9061038c33610178565b6001600160a01b038216036103a45761037591610795565b60405163334bd91960e11b8152600490fd5b0390fd5b9061031790610288565b6103db6100f2916103d3600090565b5060046103ba565b546001600160a01b031690565b6100f290610178906001600160a01b031682565b6100f2906103e8565b6100f2906103fc565b634e487b7160e01b600052604160045260246000fd5b90601f01601f1916810190811067ffffffffffffffff82111761044657604052565b61040e565b8015156100c3565b905051906100dc8261044b565b906020828203126100ca576100f291610453565b6040513d6000823e3d90fd5b1561048757565b60405162461bcd60e51b8152602060048201526015602482015274135d5cdd0818994818481c185c9d1a58da5c185b9d605a1b6044820152606490fd5b906104df6104da6001546001600160a01b031690565b610405565b9160206104eb60405190565b63f16dfbe960e01b815233600482015293849060249082905afa928315610556576100dc9361052291600091610527575b50610480565b6105e3565b610549915060203d60201161054f575b6105418183610424565b810190610460565b3861051c565b503d610537565b610474565b1561056257565b60405162461bcd60e51b815260206004820152602360248201527f4d757374206265207468652063757272656e742064656661756c74206163636f6044820152621d5b9d60ea1b6064820152608490fd5b906001600160a01b03905b9181191691161790565b906105d86100f26105df92610405565b82546105b3565b9055565b906106136100dc9261060c6105fc6103db8360046103ba565b6001600160a01b0316331461055b565b60046103ba565b6105c8565b906100dc916104c4565b9061031790610405565b6100f291600061064861064e93610641600090565b5082610315565b01610622565b5460ff1690565b1561065c57565b60405162461bcd60e51b81526020600482015260156024820152744d7573742062652074686520617574686f7269747960581b6044820152606490fd5b906106136100dc9261060c6106b96101786002546001600160a01b031690565b3314610655565b906100dc916106d161036682610336565b9061037591610795565b906100dc916106c0565b6100dc90339061080e565b9060ff906105be565b906107096100f26105df92151590565b82546106f0565b61072161071d838361062c565b1590565b1561078e57610740600161073b8460006106488682610315565b6106f9565b61075a61075461074e339390565b93610405565b91610405565b917f2f8788117e7eff1d82e926ec794901d17c78024a50270940304540a733656f0d61078560405190565b600090a4600190565b5050600090565b61079f828261062c565b1561078e576107b8600061073b84826106488682610315565b6107c661075461074e339390565b917ff6391f5c32d9c69d2a47ea670b442974b53935d1edc7fd64eb21e047a839171b61078560405190565b6001600160a01b0390911681526040810192916100dc9160200152565b9061081c61071d828461062c565b610824575050565b6103b661083060405190565b63e2517d3f60e01b8152928392600484016107f156fea2646970667358221220bbfa8b65efced5ab198b1acc0811a19a596c7d1d82c296e3b132d424ab5c79de64736f6c63430008190033",
  "linkReferences": {},
  "deployedLinkReferences": {}
}