{
  "_format": "hh-sol-artifact-1",
  "contractName": "TPFtOperation1002",
  "sourceName": "contracts/hamsa/drex-connect/TPFtOperation1002.sol",
  "abi": [
    {
      "inputs": [
        {
          "internalType": "address",
          "name": "_centralBankAddress",
          "type": "address"
        }
      ],
      "stateMutability": "nonpayable",
      "type": "constructor"
    },
    {
      "anonymous": false,
      "inputs": [
        {
          "indexed": false,
          "internalType": "uint256",
          "name": "operationId",
          "type": "uint256"
        },
        {
          "indexed": false,
          "internalType": "uint256",
          "name": "cnpj8Sender",
          "type": "uint256"
        },
        {
          "indexed": false,
          "internalType": "uint256",
          "name": "cnpj8Receiver",
          "type": "uint256"
        },
        {
          "indexed": false,
          "internalType": "address",
          "name": "sender",
          "type": "address"
        },
        {
          "indexed": false,
          "internalType": "address",
          "name": "receiver",
          "type": "address"
        },
        {
          "indexed": false,
          "internalType": "enum ITPFtOperation1002.CallerPart",
          "name": "callerPart",
          "type": "uint8"
        },
        {
          "components": [
            {
              "internalType": "string",
              "name": "acronym",
              "type": "string"
            },
            {
              "internalType": "string",
              "name": "code",
              "type": "string"
            },
            {
              "internalType": "uint256",
              "name": "maturityDate",
              "type": "uint256"
            }
          ],
          "indexed": false,
          "internalType": "struct ITPFt.TPFtData",
          "name": "tpftData",
          "type": "tuple"
        },
        {
          "indexed": false,
          "internalType": "uint256",
          "name": "tpftAmount",
          "type": "uint256"
        },
        {
          "indexed": false,
          "internalType": "uint256",
          "name": "unitPrice",
          "type": "uint256"
        },
        {
          "indexed": false,
          "internalType": "uint256",
          "name": "financialValue",
          "type": "uint256"
        },
        {
          "indexed": false,
          "internalType": "string",
          "name": "status",
          "type": "string"
        },
        {
          "indexed": false,
          "internalType": "uint256",
          "name": "timestamp",
          "type": "uint256"
        }
      ],
      "name": "CommandEvent",
      "type": "event"
    },
    {
      "anonymous": false,
      "inputs": [
        {
          "indexed": false,
          "internalType": "uint256",
          "name": "operationId",
          "type": "uint256"
        },
        {
          "indexed": false,
          "internalType": "address",
          "name": "sender",
          "type": "address"
        },
        {
          "indexed": false,
          "internalType": "address",
          "name": "receiver",
          "type": "address"
        },
        {
          "indexed": false,
          "internalType": "enum ITPFtOperation1002.CallerPart",
          "name": "callerPart",
          "type": "uint8"
        },
        {
          "components": [
            {
              "internalType": "string",
              "name": "acronym",
              "type": "string"
            },
            {
              "internalType": "string",
              "name": "code",
              "type": "string"
            },
            {
              "internalType": "uint256",
              "name": "maturityDate",
              "type": "uint256"
            }
          ],
          "indexed": false,
          "internalType": "struct ITPFt.TPFtData",
          "name": "tpftData",
          "type": "tuple"
        },
        {
          "indexed": false,
          "internalType": "uint256",
          "name": "tpftAmount",
          "type": "uint256"
        },
        {
          "indexed": false,
          "internalType": "uint256",
          "name": "unitPrice",
          "type": "uint256"
        },
        {
          "indexed": false,
          "internalType": "uint256",
          "name": "financialValue",
          "type": "uint256"
        },
        {
          "indexed": false,
          "internalType": "string",
          "name": "status",
          "type": "string"
        },
        {
          "indexed": false,
          "internalType": "uint256",
          "name": "timestamp",
          "type": "uint256"
        }
      ],
      "name": "CommandTradeEvent",
      "type": "event"
    },
    {
      "anonymous": false,
      "inputs": [
        {
          "indexed": true,
          "internalType": "uint256",
          "name": "operationId",
          "type": "uint256"
        },
        {
          "indexed": false,
          "internalType": "address",
          "name": "sender",
          "type": "address"
        },
        {
          "indexed": false,
          "internalType": "address",
          "name": "senderToken",
          "type": "address"
        },
        {
          "indexed": false,
          "internalType": "address",
          "name": "receiver",
          "type": "address"
        },
        {
          "indexed": false,
          "internalType": "address",
          "name": "receiverToken",
          "type": "address"
        },
        {
          "components": [
            {
              "internalType": "string",
              "name": "acronym",
              "type": "string"
            },
            {
              "internalType": "string",
              "name": "code",
              "type": "string"
            },
            {
              "internalType": "uint256",
              "name": "maturityDate",
              "type": "uint256"
            }
          ],
          "indexed": false,
          "internalType": "struct ITPFt.TPFtData",
          "name": "tpftData",
          "type": "tuple"
        },
        {
          "indexed": false,
          "internalType": "uint256",
          "name": "tpftAmount",
          "type": "uint256"
        },
        {
          "indexed": false,
          "internalType": "uint256",
          "name": "unitPrice",
          "type": "uint256"
        },
        {
          "indexed": false,
          "internalType": "uint256",
          "name": "financialValue",
          "type": "uint256"
        },
        {
          "indexed": false,
          "internalType": "string",
          "name": "status",
          "type": "string"
        },
        {
          "indexed": false,
          "internalType": "uint256",
          "name": "timestamp",
          "type": "uint256"
        }
      ],
      "name": "OperationClientTradeEvent",
      "type": "event"
    },
    {
      "anonymous": false,
      "inputs": [
        {
          "indexed": true,
          "internalType": "uint256",
          "name": "operationId",
          "type": "uint256"
        },
        {
          "indexed": false,
          "internalType": "uint256",
          "name": "cnpj8Sender",
          "type": "uint256"
        },
        {
          "indexed": false,
          "internalType": "uint256",
          "name": "cnpj8Receiver",
          "type": "uint256"
        },
        {
          "indexed": false,
          "internalType": "address",
          "name": "sender",
          "type": "address"
        },
        {
          "indexed": false,
          "internalType": "address",
          "name": "receiver",
          "type": "address"
        },
        {
          "components": [
            {
              "internalType": "string",
              "name": "acronym",
              "type": "string"
            },
            {
              "internalType": "string",
              "name": "code",
              "type": "string"
            },
            {
              "internalType": "uint256",
              "name": "maturityDate",
              "type": "uint256"
            }
          ],
          "indexed": false,
          "internalType": "struct ITPFt.TPFtData",
          "name": "tpftData",
          "type": "tuple"
        },
        {
          "indexed": false,
          "internalType": "uint256",
          "name": "tpftAmount",
          "type": "uint256"
        },
        {
          "indexed": false,
          "internalType": "uint256",
          "name": "unitPrice",
          "type": "uint256"
        },
        {
          "indexed": false,
          "internalType": "uint256",
          "name": "financialValue",
          "type": "uint256"
        },
        {
          "indexed": false,
          "internalType": "string",
          "name": "status",
          "type": "string"
        },
        {
          "indexed": false,
          "internalType": "uint256",
          "name": "timestamp",
          "type": "uint256"
        }
      ],
      "name": "OperationEvent",
      "type": "event"
    },
    {
      "anonymous": false,
      "inputs": [
        {
          "indexed": true,
          "internalType": "uint256",
          "name": "operationId",
          "type": "uint256"
        },
        {
          "indexed": false,
          "internalType": "address",
          "name": "sender",
          "type": "address"
        },
        {
          "indexed": false,
          "internalType": "address",
          "name": "receiver",
          "type": "address"
        },
        {
          "components": [
            {
              "internalType": "string",
              "name": "acronym",
              "type": "string"
            },
            {
              "internalType": "string",
              "name": "code",
              "type": "string"
            },
            {
              "internalType": "uint256",
              "name": "maturityDate",
              "type": "uint256"
            }
          ],
          "indexed": false,
          "internalType": "struct ITPFt.TPFtData",
          "name": "tpftData",
          "type": "tuple"
        },
        {
          "indexed": false,
          "internalType": "uint256",
          "name": "tpftAmount",
          "type": "uint256"
        },
        {
          "indexed": false,
          "internalType": "uint256",
          "name": "unitPrice",
          "type": "uint256"
        },
        {
          "indexed": false,
          "internalType": "uint256",
          "name": "financialValue",
          "type": "uint256"
        },
        {
          "indexed": false,
          "internalType": "string",
          "name": "status",
          "type": "string"
        },
        {
          "indexed": false,
          "internalType": "uint256",
          "name": "timestamp",
          "type": "uint256"
        }
      ],
      "name": "OperationTradeEvent",
      "type": "event"
    },
    {
      "inputs": [
        {
          "internalType": "uint256",
          "name": "",
          "type": "uint256"
        }
      ],
      "name": "auctionOrders",
      "outputs": [
        {
          "internalType": "uint256",
          "name": "operationId",
          "type": "uint256"
        },
        {
          "internalType": "address",
          "name": "sender",
          "type": "address"
        },
        {
          "internalType": "address",
          "name": "receiver",
          "type": "address"
        },
        {
          "internalType": "enum ITPFtOperation1002.CallerPart",
          "name": "callerPart",
          "type": "uint8"
        },
        {
          "internalType": "uint256",
          "name": "tokenId",
          "type": "uint256"
        },
        {
          "internalType": "uint256",
          "name": "tpftAmount",
          "type": "uint256"
        },
        {
          "internalType": "uint256",
          "name": "unitPrice",
          "type": "uint256"
        },
        {
          "internalType": "uint256",
          "name": "timestamp",
          "type": "uint256"
        },
        {
          "internalType": "enum ITPFtOperation1002.OperationStatus",
          "name": "status",
          "type": "uint8"
        }
      ],
      "stateMutability": "view",
      "type": "function"
    },
    {
      "inputs": [
        {
          "internalType": "uint256",
          "name": "operationId",
          "type": "uint256"
        },
        {
          "internalType": "uint256",
          "name": "cnpj8Sender",
          "type": "uint256"
        },
        {
          "internalType": "uint256",
          "name": "cnpj8Receiver",
          "type": "uint256"
        },
        {
          "internalType": "address",
          "name": "sender",
          "type": "address"
        },
        {
          "internalType": "address",
          "name": "receiver",
          "type": "address"
        },
        {
          "internalType": "enum ITPFtOperation1002.CallerPart",
          "name": "callerPart",
          "type": "uint8"
        },
        {
          "components": [
            {
              "internalType": "string",
              "name": "acronym",
              "type": "string"
            },
            {
              "internalType": "string",
              "name": "code",
              "type": "string"
            },
            {
              "internalType": "uint256",
              "name": "maturityDate",
              "type": "uint256"
            }
          ],
          "internalType": "struct ITPFt.TPFtData",
          "name": "tpftData",
          "type": "tuple"
        },
        {
          "internalType": "uint256",
          "name": "tpftAmount",
          "type": "uint256"
        },
        {
          "internalType": "uint256",
          "name": "unitPrice",
          "type": "uint256"
        }
      ],
      "name": "auctionPlacement",
      "outputs": [],
      "stateMutability": "nonpayable",
      "type": "function"
    },
    {
      "inputs": [],
      "name": "centralBankAddress",
      "outputs": [
        {
          "internalType": "address",
          "name": "",
          "type": "address"
        }
      ],
      "stateMutability": "view",
      "type": "function"
    },
    {
      "inputs": [
        {
          "internalType": "uint256",
          "name": "operationId",
          "type": "uint256"
        },
        {
          "internalType": "address",
          "name": "sender",
          "type": "address"
        },
        {
          "internalType": "address",
          "name": "receiver",
          "type": "address"
        },
        {
          "internalType": "enum ITPFtOperation1002.CallerPart",
          "name": "callerPart",
          "type": "uint8"
        },
        {
          "components": [
            {
              "internalType": "string",
              "name": "acronym",
              "type": "string"
            },
            {
              "internalType": "string",
              "name": "code",
              "type": "string"
            },
            {
              "internalType": "uint256",
              "name": "maturityDate",
              "type": "uint256"
            }
          ],
          "internalType": "struct ITPFt.TPFtData",
          "name": "tpftData",
          "type": "tuple"
        },
        {
          "internalType": "uint256",
          "name": "tpftAmount",
          "type": "uint256"
        },
        {
          "internalType": "uint256",
          "name": "unitPrice",
          "type": "uint256"
        }
      ],
      "name": "matchOrder",
      "outputs": [
        {
          "internalType": "bool",
          "name": "",
          "type": "bool"
        }
      ],
      "stateMutability": "view",
      "type": "function"
    },
    {
      "inputs": [
        {
          "internalType": "address",
          "name": "_tpftAddress",
          "type": "address"
        }
      ],
      "name": "setTpftAddress",
      "outputs": [],
      "stateMutability": "nonpayable",
      "type": "function"
    },
    {
      "inputs": [],
      "name": "tpftAddress",
      "outputs": [
        {
          "internalType": "address",
          "name": "",
          "type": "address"
        }
      ],
      "stateMutability": "view",
      "type": "function"
    }
  ],
  "bytecode": "0x60806040523461002a576100196100146100c2565b610136565b6040516114ae61014282396114ae90f35b600080fd5b634e487b7160e01b600052604160045260246000fd5b90601f01601f191681019081106001600160401b0382111761006657604052565b61002f565b9061007f61007860405190565b9283610045565b565b6001600160a01b031690565b90565b6001600160a01b0381160361002a57565b9050519061007f82610090565b9060208282031261002a5761008d916100a1565b61008d6115f0803803806100d58161006b565b9283398101906100ae565b61008d90610081906001600160a01b031682565b61008d906100e0565b61008d906100f4565b9061011661008d610132926100fd565b82546001600160a01b0319166001600160a01b03919091161790565b9055565b61007f90600161010656fe610100604052600436101561001357600080fd5b60003560e01c80634ffc920414610073578063529085791461006e578063574e3283146100695780638bfe8b0114610064578063c304d5a21461005f5763ee1683cc0361008357610609565b61057c565b61054e565b610330565b610132565b6100d6565b600091031261008357565b600080fd5b61009d916008021c5b6001600160a01b031690565b90565b9061009d9154610088565b61009d600060016100a0565b6100c090610091565b9052565b6020810192916100d491906100b7565b565b34610083576100e6366004610078565b6100fd6100f16100ab565b604051918291826100c4565b0390f35b61010a81610091565b0361008357565b905035906100d482610101565b906020828203126100835761009d91610111565b346100835761014a61014536600461011e565b6106ee565b604051005b8061010a565b905035906100d48261014f565b906020828203126100835761009d91610155565b61009d61009d61009d9290565b9061018d90610176565b600052602052604060002090565b61009d9081565b61009d905461019b565b61009d90610091565b61009d90546101ac565b61009d9060a01c5b60ff1690565b61009d90546101bf565b61009d906101c7565b61009d90546101d7565b6101f5906000610183565b6101fe816101a2565b9161020b600183016101b5565b91610218600282016101b5565b91610225600283016101cd565b91610232600382016101a2565b9161023f600483016101a2565b9161024c600582016101a2565b9161009d600761025e600685016101a2565b93016101e0565b634e487b7160e01b600052602160045260246000fd5b6002111561028557565b610265565b906100d48261027b565b61009d9061028a565b6100c090610294565b6003111561028557565b906100d4826102a6565b61009d906102b0565b6100c0906102ba565b9694929099989795939161012088019a600089016102e8919052565b602088016102f5916100b7565b60408701610302916100b7565b6060860161030f9161029d565b608085015260a084015260c083015260e0820152610100016100d4916102c3565b34610083576100fd61034b610346366004610162565b6101ea565b9561035e99979995919594929460405190565b998a998a6102cc565b6002111561008357565b905035906100d482610367565b634e487b7160e01b600052604160045260246000fd5b90601f01601f1916810190811067ffffffffffffffff8211176103b657604052565b61037e565b906100d46103c860405190565b9283610394565b67ffffffffffffffff81116103b657602090601f01601f19160190565b0190565b90826000939282370152565b9092919261041161040c826103cf565b6103bb565b9381855281830111610083576100d49160208501906103f0565b9080601f830112156100835781602061009d933591016103fc565b9190916060818403126100835761045d60606103bb565b92813567ffffffffffffffff8111610083578161047b91840161042b565b8452602082013567ffffffffffffffff811161008357826104a3836040936104ae960161042b565b602087015201610155565b6040830152565b909161012082840312610083576104cc8383610155565b926104da8160208501610155565b926104e88260408301610155565b926104f68360608401610111565b926105048160808501610111565b926105128260a08301610371565b9260c082013567ffffffffffffffff8111610083576105368461009d928501610446565b936101006105478260e08701610155565b9401610155565b346100835761014a6105613660046104b5565b979690969591959492946107d1565b61009d600060026100a0565b346100835761058c366004610078565b6100fd6100f1610570565b60e081830312610083576105ab8282610155565b926105b98360208401610111565b926105c78160408501610111565b926105d58260608301610371565b92608082013567ffffffffffffffff8111610083576105f98461009d928501610446565b9360c06105478260a08701610155565b34610083576100fd61062b61061f366004610597565b95949094939193610b65565b60405191829182901515815260200190565b1561064457565b60405162461bcd60e51b815260206004820152602660248201527f4f6e6c792063656e7472616c2062616e6b2063616e207365742054504674206160448201526564647265737360d01b6064820152608490fd5b906001600160a01b03905b9181191691161790565b61009d90610091906001600160a01b031682565b61009d906106ad565b61009d906106c1565b906106e361009d6106ea926106ca565b8254610698565b9055565b6100d49061071661070761070260016101b5565b610091565b61071033610091565b1461063d565b60026106d3565b1561072457565b60405162461bcd60e51b815260206004820152602760248201527f4f6e6c79207468652063656e7472616c2062616e6b2063616e206265207468656044820152661039b2b73232b960c91b6064820152608490fd5b1561078057565b60405162461bcd60e51b815260206004820152602360248201527f43656e7472616c2062616e6b2063616e6e6f74206265207468652072656365696044820152623b32b960e91b6064820152608490fd5b906100d498979695949392916107fc6107ed61070260016101b5565b6107f686610091565b1461071d565b61081c61080c61070260016101b5565b61081587610091565b1415610779565b6110c6565b905051906100d48261014f565b906020828203126100835761009d91610821565b60005b8381106108555750506000910152565b8181015183820152602001610845565b61088661088f6020936103ec9361087a815190565b80835293849260200190565b95869101610842565b601f01601f191690565b9061009d906040806108cf6108bd6060850160008801518682036000880152610865565b60208701518582036020870152610865565b940151910152565b602080825261009d92910190610899565b6040513d6000823e3d90fd5b156108fb57565b60405162461bcd60e51b81526020600482015260136024820152721514119d08191bd95cc81b9bdd08195e1a5cdd606a1b6044820152606490fd5b906100c090610091565b906100c09061028a565b906100c0906102b0565b61009d6101206103bb565b906100d4610a276007610970610954565b9461098161097d826101a2565b8752565b610999610990600183016101b5565b60208801610936565b6109b16109a8600283016101b5565b60408801610936565b6109c96109c0600283016101cd565b60608801610940565b6109df6109d8600383016101a2565b6080880152565b6109f56109ee600483016101a2565b60a0880152565b610a0b610a04600583016101a2565b60c0880152565b610a21610a1a600683016101a2565b60e0880152565b016101e0565b610100840161094a565b61009d9061095f565b634e487b7160e01b600052601160045260246000fd5b9190610a5b565b9290565b91808302928184041490151715610a6e57565b610a3a565b61009d9051610091565b15610a8457565b60405162461bcd60e51b815260206004820152601460248201527309ee4c8cae440c8decae640dcdee840dac2e8c6d60631b6044820152606490fd5b61009d905161028a565b15610ad157565b60405162461bcd60e51b815260206004820152601d60248201527f43616c6c6572506172742063616e6e6f74206265207468652073616d650000006044820152606490fd5b61009d90516102b0565b15610b2757565b60405162461bcd60e51b815260206004820152601660248201527513dc99195c88185b1c9958591e48195e1958dd5d195960521b6044820152606490fd5b9492956020610bab939295610b78600090565b50610b8e610b89610b8960026101b5565b6106ca565b604051958692839182916386e36b1b60e01b8352600483016108d7565b03915afa928315610d5257600093610d21575b50600095610bcb87610176565b841415610bd7906108f4565b610be19087610183565b610bea90610a31565b90610bf86305f5e100610176565b610c0191610a50565b94610c0e60208301610a73565b90610c1890610091565b90610c2290610091565b148097610c60610c9d99610c9798610c9198610c8b9861010098610c8597610cf8575b5083610cdc575b5082610cc0575b5081610ca2575b50610a7d565b610c7e610c78610c7260608601610ac0565b9261028a565b9161028a565b1415610aca565b01610b16565b926102b0565b916102b0565b14610b20565b600190565b9050610cb9610cb5610a5760c088015190565b9190565b1438610c5a565b909150610cd4610cb5610a5760a089015190565b149038610c53565b909250610cf0610cb5610a5760808a015190565b149138610c4c565b909350610d19610d13610d0d60408b01610a73565b92610091565b91610091565b149238610c45565b610d4491935060203d602011610d4b575b610d3c8183610394565b81019061082e565b9138610bbe565b503d610d32565b6108e8565b61009161009d61009d9290565b61009d90610d57565b15610d7457565b60405162461bcd60e51b815260206004820152601a60248201527f496e76616c69642073656e646572206f722072656365697665720000000000006044820152606490fd5b15610dc057565b60405162461bcd60e51b815260206004820152602660248201527f53656e64657220616e642052656365697665722063616e6e6f74206265207468604482015265652073616d6560d01b6064820152608490fd5b15610e1b57565b60405162461bcd60e51b8152602060048201526012602482015271496e76616c696420706172616d657465727360701b6044820152606490fd5b15610e5c57565b60405162461bcd60e51b815260206004820152601360248201527210dbdb9d1c9858dd1cc81b9bdd08199bdd5b99606a1b6044820152606490fd5b9060ff906106a3565b90610eb061009d6106ea926102ba565b8254610e97565b999896610f21610f19610f2893610f4e988e610f0c6101209c9a6100d49f99610f2f9b610ef8610f0292610ef16101408801996000890152565b6020870152565b60408501906100b7565b60608301906100b7565b6080818403910152610899565b9560a08d0152565b60c08b0152565b60e0890152565b868103610100880152600381526241545560e81b602082015260400190565b940152565b90600019906106a3565b90610f6d61009d6106ea92610176565b8254610f53565b9060ff60a01b9060a01b6106a3565b90610f9361009d6106ea92610294565b8254610f74565b600761105c6101006100d494610fba610fb4600083015190565b86610f5d565b610fd2610fc960208301610a73565b600187016106d3565b61100060028601610fee610fe860408501610a73565b826106d3565b610ffa60608401610ac0565b90610f83565b61101761100e608083015190565b60038701610f5d565b61102e61102560a083015190565b60048701610f5d565b61104561103c60c083015190565b60058701610f5d565b610c8561105360e083015190565b60068701610f5d565b9101610ea0565b906100d491610f9a565b999896610f21610f19610f2893610f4e988e610f0c6101209c9a6100d49f996110a79b610ef8610f0292610ef16101408801996000890152565b86810361010088015260038152622620a760e91b602082015260400190565b9392919097959796949660805260a05260c05260e0526111666110e96000610d64565b6110f281610091565b6110fd60c051610091565b141580611457575b61110e90610d6d565b61112e61111c60e051610091565b61112760c051610091565b1415610db9565b6111386000610176565b831180611445575b8061142e575b61114f90610e14565b61115f610d13610d0d60026101b5565b1415610e55565b6111708383610a50565b94611181610b89610b8960026101b5565b94602061118d60405190565b9687906386e36b1b60e01b825281806111a987600483016108d7565b03915afa948515610d52577fccb757c839859eee5849aec3e7775f996721a031a9ef1225e74b5535a032a15296600096611409575b5061120b906111f86111f06000610176565b8814156108f4565b6112056305f5e100610176565b90610a50565b9461121a61009d856000610183565b611226600682016101a2565b611233610cb56000610176565b036112f55750926112ca6112cf9261128a6112f096611283611253610954565b9361125c878652565b61126b60c05160208701610936565b61127a60e05160408701610936565b60608501610940565b6080830152565b6112958760a0830152565b6112a08860c0830152565b6112ab4260e0830152565b6112ba6000610100830161094a565b6112c5836000610183565b611063565b610176565b956112d960405190565b948594429360e05160c05160a0516080518a61106d565b0390a2565b6001600782611358611377966112f09996611314866112ca98016101b5565b611322610d1360c051610091565b1490816113e6575b816113cb575b50806113b7575b80611398575b61134690610a7d565b610c7e610c78610c72600286016101cd565b01611372611365826101e0565b610c97610c9160006102b0565b610ea0565b9561138160405190565b948594429360e05160c05160a0516080518a610eb7565b506113468c6113af610cb5610a57600588016101a2565b14905061133d565b506113c4600484016101a2565b8b14611337565b90506113df610cb5610a57600387016101a2565b1438611330565b90506113f4600285016101b5565b611402610d1360e051610091565b149061132a565b61120b9196506114279060203d602011610d4b57610d3c8183610394565b95906111de565b5061114f61143c6000610176565b86119050611146565b506114506000610176565b8411611140565b5061110e61146482610091565b61146f60e051610091565b1415905061110556fea2646970667358221220b4702e1c67ec9c8a738dbab829fa81345f5fcfe2ec335631daee44bfdb5cf7b264736f6c63430008190033",
  "linkReferences": {},
  "deployedLinkReferences": {}
}