{
  "_format": "hh-sol-artifact-1",
  "contractName": "TPFtOperation1052",
  "sourceName": "contracts/hamsa/drex-connect/TPFtOperation1052.sol",
  "abi": [
    {
      "inputs": [
        {
          "internalType": "address",
          "name": "_centralBankAddress",
          "type": "address"
        }
      ],
      "stateMutability": "nonpayable",
      "type": "constructor"
    },
    {
      "anonymous": false,
      "inputs": [
        {
          "indexed": false,
          "internalType": "uint256",
          "name": "operationId",
          "type": "uint256"
        },
        {
          "indexed": false,
          "internalType": "address",
          "name": "sender",
          "type": "address"
        },
        {
          "indexed": false,
          "internalType": "contract IRealTokenizado",
          "name": "senderToken",
          "type": "address"
        },
        {
          "indexed": false,
          "internalType": "address",
          "name": "receiver",
          "type": "address"
        },
        {
          "indexed": false,
          "internalType": "contract IRealTokenizado",
          "name": "receiverToken",
          "type": "address"
        },
        {
          "components": [
            {
              "internalType": "string",
              "name": "acronym",
              "type": "string"
            },
            {
              "internalType": "string",
              "name": "code",
              "type": "string"
            },
            {
              "internalType": "uint256",
              "name": "maturityDate",
              "type": "uint256"
            }
          ],
          "indexed": false,
          "internalType": "struct ITPFt.TPFtData",
          "name": "tpftData",
          "type": "tuple"
        },
        {
          "indexed": false,
          "internalType": "uint256",
          "name": "tpftAmount",
          "type": "uint256"
        },
        {
          "indexed": false,
          "internalType": "uint256",
          "name": "unitPrice",
          "type": "uint256"
        },
        {
          "indexed": false,
          "internalType": "uint256",
          "name": "financialValue",
          "type": "uint256"
        },
        {
          "indexed": false,
          "internalType": "string",
          "name": "status",
          "type": "string"
        },
        {
          "indexed": false,
          "internalType": "uint256",
          "name": "timestamp",
          "type": "uint256"
        }
      ],
      "name": "OperationClientTradeEvent",
      "type": "event"
    },
    {
      "anonymous": false,
      "inputs": [
        {
          "indexed": false,
          "internalType": "uint256",
          "name": "operationId",
          "type": "uint256"
        },
        {
          "indexed": false,
          "internalType": "uint256",
          "name": "cnpj8Sender",
          "type": "uint256"
        },
        {
          "indexed": false,
          "internalType": "uint256",
          "name": "cnpj8Receiver",
          "type": "uint256"
        },
        {
          "indexed": false,
          "internalType": "address",
          "name": "sender",
          "type": "address"
        },
        {
          "indexed": false,
          "internalType": "address",
          "name": "receiver",
          "type": "address"
        },
        {
          "components": [
            {
              "internalType": "string",
              "name": "acronym",
              "type": "string"
            },
            {
              "internalType": "string",
              "name": "code",
              "type": "string"
            },
            {
              "internalType": "uint256",
              "name": "maturityDate",
              "type": "uint256"
            }
          ],
          "indexed": false,
          "internalType": "struct ITPFt.TPFtData",
          "name": "tpftData",
          "type": "tuple"
        },
        {
          "indexed": false,
          "internalType": "uint256",
          "name": "tpftAmount",
          "type": "uint256"
        },
        {
          "indexed": false,
          "internalType": "uint256",
          "name": "unitPrice",
          "type": "uint256"
        },
        {
          "indexed": false,
          "internalType": "uint256",
          "name": "financialValue",
          "type": "uint256"
        },
        {
          "indexed": false,
          "internalType": "string",
          "name": "status",
          "type": "string"
        },
        {
          "indexed": false,
          "internalType": "uint256",
          "name": "timestamp",
          "type": "uint256"
        }
      ],
      "name": "OperationEvent",
      "type": "event"
    },
    {
      "anonymous": false,
      "inputs": [
        {
          "indexed": false,
          "internalType": "uint256",
          "name": "operationId",
          "type": "uint256"
        },
        {
          "indexed": false,
          "internalType": "address",
          "name": "sender",
          "type": "address"
        },
        {
          "indexed": false,
          "internalType": "address",
          "name": "receiver",
          "type": "address"
        },
        {
          "components": [
            {
              "internalType": "string",
              "name": "acronym",
              "type": "string"
            },
            {
              "internalType": "string",
              "name": "code",
              "type": "string"
            },
            {
              "internalType": "uint256",
              "name": "maturityDate",
              "type": "uint256"
            }
          ],
          "indexed": false,
          "internalType": "struct ITPFt.TPFtData",
          "name": "tpftData",
          "type": "tuple"
        },
        {
          "indexed": false,
          "internalType": "uint256",
          "name": "tpftAmount",
          "type": "uint256"
        },
        {
          "indexed": false,
          "internalType": "uint256",
          "name": "unitPrice",
          "type": "uint256"
        },
        {
          "indexed": false,
          "internalType": "uint256",
          "name": "financialValue",
          "type": "uint256"
        },
        {
          "indexed": false,
          "internalType": "string",
          "name": "status",
          "type": "string"
        },
        {
          "indexed": false,
          "internalType": "uint256",
          "name": "timestamp",
          "type": "uint256"
        }
      ],
      "name": "OperationTradeEvent",
      "type": "event"
    },
    {
      "inputs": [],
      "name": "centralBankAddress",
      "outputs": [
        {
          "internalType": "address",
          "name": "",
          "type": "address"
        }
      ],
      "stateMutability": "view",
      "type": "function"
    },
    {
      "inputs": [
        {
          "internalType": "uint256",
          "name": "operationId",
          "type": "uint256"
        },
        {
          "internalType": "address",
          "name": "sender",
          "type": "address"
        },
        {
          "internalType": "address",
          "name": "receiver",
          "type": "address"
        },
        {
          "internalType": "enum ITPFtOperation1052.CallerPart",
          "name": "callerPart",
          "type": "uint8"
        },
        {
          "components": [
            {
              "internalType": "string",
              "name": "acronym",
              "type": "string"
            },
            {
              "internalType": "string",
              "name": "code",
              "type": "string"
            },
            {
              "internalType": "uint256",
              "name": "maturityDate",
              "type": "uint256"
            }
          ],
          "internalType": "struct ITPFt.TPFtData",
          "name": "tpftData",
          "type": "tuple"
        },
        {
          "internalType": "uint256",
          "name": "tpftAmount",
          "type": "uint256"
        },
        {
          "internalType": "uint256",
          "name": "unitPrice",
          "type": "uint256"
        }
      ],
      "name": "matchOrder",
      "outputs": [
        {
          "internalType": "bool",
          "name": "",
          "type": "bool"
        }
      ],
      "stateMutability": "view",
      "type": "function"
    },
    {
      "inputs": [
        {
          "internalType": "uint256",
          "name": "",
          "type": "uint256"
        }
      ],
      "name": "orders",
      "outputs": [
        {
          "internalType": "uint256",
          "name": "operationId",
          "type": "uint256"
        },
        {
          "internalType": "address",
          "name": "sender",
          "type": "address"
        },
        {
          "internalType": "address",
          "name": "receiver",
          "type": "address"
        },
        {
          "internalType": "enum ITPFtOperation1052.CallerPart",
          "name": "callerPart",
          "type": "uint8"
        },
        {
          "internalType": "uint256",
          "name": "tokenId",
          "type": "uint256"
        },
        {
          "internalType": "uint256",
          "name": "tpftAmount",
          "type": "uint256"
        },
        {
          "internalType": "uint256",
          "name": "unitPrice",
          "type": "uint256"
        },
        {
          "internalType": "uint256",
          "name": "timestamp",
          "type": "uint256"
        },
        {
          "internalType": "enum ITPFtOperation1052.OperationStatus",
          "name": "status",
          "type": "uint8"
        }
      ],
      "stateMutability": "view",
      "type": "function"
    },
    {
      "inputs": [
        {
          "internalType": "address",
          "name": "_tpftAddress",
          "type": "address"
        }
      ],
      "name": "setTpftAddress",
      "outputs": [],
      "stateMutability": "nonpayable",
      "type": "function"
    },
    {
      "inputs": [],
      "name": "tpftAddress",
      "outputs": [
        {
          "internalType": "address",
          "name": "",
          "type": "address"
        }
      ],
      "stateMutability": "view",
      "type": "function"
    },
    {
      "inputs": [
        {
          "internalType": "uint256",
          "name": "operationId",
          "type": "uint256"
        },
        {
          "internalType": "address",
          "name": "sender",
          "type": "address"
        },
        {
          "internalType": "contract IRealTokenizado",
          "name": "senderToken",
          "type": "address"
        },
        {
          "internalType": "address",
          "name": "receiver",
          "type": "address"
        },
        {
          "internalType": "contract IRealTokenizado",
          "name": "receiverToken",
          "type": "address"
        },
        {
          "internalType": "enum ITPFtOperation1052.CallerPart",
          "name": "callerPart",
          "type": "uint8"
        },
        {
          "components": [
            {
              "internalType": "string",
              "name": "acronym",
              "type": "string"
            },
            {
              "internalType": "string",
              "name": "code",
              "type": "string"
            },
            {
              "internalType": "uint256",
              "name": "maturityDate",
              "type": "uint256"
            }
          ],
          "internalType": "struct ITPFt.TPFtData",
          "name": "tpftData",
          "type": "tuple"
        },
        {
          "internalType": "uint256",
          "name": "tpftAmount",
          "type": "uint256"
        },
        {
          "internalType": "uint256",
          "name": "unitPrice",
          "type": "uint256"
        }
      ],
      "name": "trade",
      "outputs": [],
      "stateMutability": "nonpayable",
      "type": "function"
    },
    {
      "inputs": [
        {
          "internalType": "uint256",
          "name": "operationId",
          "type": "uint256"
        },
        {
          "internalType": "address",
          "name": "sender",
          "type": "address"
        },
        {
          "internalType": "address",
          "name": "receiver",
          "type": "address"
        },
        {
          "internalType": "enum ITPFtOperation1052.CallerPart",
          "name": "callerPart",
          "type": "uint8"
        },
        {
          "components": [
            {
              "internalType": "string",
              "name": "acronym",
              "type": "string"
            },
            {
              "internalType": "string",
              "name": "code",
              "type": "string"
            },
            {
              "internalType": "uint256",
              "name": "maturityDate",
              "type": "uint256"
            }
          ],
          "internalType": "struct ITPFt.TPFtData",
          "name": "tpftData",
          "type": "tuple"
        },
        {
          "internalType": "uint256",
          "name": "tpftAmount",
          "type": "uint256"
        },
        {
          "internalType": "uint256",
          "name": "unitPrice",
          "type": "uint256"
        }
      ],
      "name": "trade",
      "outputs": [],
      "stateMutability": "nonpayable",
      "type": "function"
    }
  ],
  "bytecode": "0x60806040523461002a576100196100146100c2565b610136565b60405161190b610142823961190b90f35b600080fd5b634e487b7160e01b600052604160045260246000fd5b90601f01601f191681019081106001600160401b0382111761006657604052565b61002f565b9061007f61007860405190565b9283610045565b565b6001600160a01b031690565b90565b6001600160a01b0381160361002a57565b9050519061007f82610090565b9060208282031261002a5761008d916100a1565b61008d611a4d803803806100d58161006b565b9283398101906100ae565b61008d90610081906001600160a01b031682565b61008d906100e0565b61008d906100f4565b9061011661008d610132926100fd565b82546001600160a01b0319166001600160a01b03919091161790565b9055565b61007f90600261010656fe6080604052600436101561001257600080fd5b60003560e01c8063349c535f146100825780634ffc92041461007d5780635290857914610078578063a85c38ef14610073578063c304d5a21461006e578063c5af9b34146100695763ee1683cc0361009057610638565b610619565b61058c565b610549565b610364565b61031b565b6102b6565b805b0361009057565b600080fd5b905035906100a282610087565b565b6001600160a01b031690565b90565b6001600160a01b038116610089565b905035906100a2826100b3565b6002111561009057565b905035906100a2826100cf565b634e487b7160e01b600052604160045260246000fd5b90601f01601f1916810190811067ffffffffffffffff82111761011e57604052565b6100e6565b906100a261013060405190565b92836100fc565b67ffffffffffffffff811161011e57602090601f01601f19160190565b0190565b90826000939282370152565b9092919261017961017482610137565b610123565b9381855281830111610090576100a2916020850190610158565b9080601f83011215610090578160206100b093359101610164565b919091606081840312610090576101c56060610123565b92813567ffffffffffffffff811161009057816101e3918401610193565b8452602082013567ffffffffffffffff8111610090578261020b836040936102169601610193565b602087015201610095565b6040830152565b909161012082840312610090576102348383610095565b9261024281602085016100c2565b9261025082604083016100c2565b9261025e83606084016100c2565b9261026c81608085016100c2565b9261027a8260a083016100d9565b9260c082013567ffffffffffffffff81116100905761029e846100b09285016101ae565b936101006102af8260e08701610095565b9401610095565b34610090576102d86102c936600461021d565b97969096959195949294610921565b604051005b0390f35b600091031261009057565b6100b0916008021c6001600160a01b031690565b906100b091546102ec565b6100b060006002610300565b9052565b346100905761032b3660046102e1565b6102dd61033661030b565b604051918291826001600160a01b03909116815260200190565b90602082820312610090576100b0916100c2565b34610090576102d8610377366004610350565b610b59565b90602082820312610090576100b091610095565b6100b06100b06100b09290565b906103a790610390565b600052602052604060002090565b6100b09081565b6100b090546103b5565b6100b09060a01c5b60ff1690565b6100b090546103c6565b6100b0906103ce565b6100b090546103de565b6103fc90600061039d565b610405816103bc565b9161041a60018301546001600160a01b031690565b9161042f60028201546001600160a01b031690565b9161043c600283016103d4565b91610449600382016103bc565b91610456600483016103bc565b91610463600582016103bc565b916100b06007610475600685016103bc565b93016103e7565b634e487b7160e01b600052602160045260246000fd5b6002111561049c57565b61047c565b906100a282610492565b6100b0906104a1565b610317906104ab565b6003111561049c57565b906100a2826104bd565b6100b0906104c7565b610317906104d1565b9694929099989795939161012088019a600089016104ff919052565b6001600160a01b031660208801526001600160a01b0316604087015260608601610528916104b4565b608085015260a084015260c083015260e0820152610100016100a2916104da565b34610090576102dd61056461055f36600461037c565b6103f1565b9561057799979995919594929460405190565b998a998a6104e3565b6100b060006001610300565b346100905761059c3660046102e1565b6102dd610336610580565b60e081830312610090576105bb8282610095565b926105c983602084016100c2565b926105d781604085016100c2565b926105e582606083016100d9565b92608082013567ffffffffffffffff811161009057610609846100b09285016101ae565b9360c06102af8260a08701610095565b34610090576102d861062c3660046105a7565b95949094939193610b83565b34610090576102dd61065a61064e3660046105a7565b95949094939193610d92565b60405191829182901515815260200190565b6100a46100b06100b09290565b6100b09061066c565b1561068957565b60405162461bcd60e51b815260206004820152601a60248201527f496e76616c69642073656e646572206f722072656365697665720000000000006044820152606490fd5b156106d557565b60405162461bcd60e51b815260206004820152602660248201527f53656e64657220616e642052656365697665722063616e6e6f74206265207468604482015265652073616d6560d01b6064820152608490fd5b1561073057565b60405162461bcd60e51b8152602060048201526012602482015271496e76616c696420706172616d657465727360701b6044820152606490fd5b1561077157565b60405162461bcd60e51b81526020600482015260146024820152731514119d081859191c995cdcc81b9bdd081cd95d60621b6044820152606490fd5b6100b0906100a4906001600160a01b031682565b6100b0906107ad565b6100b0906107c1565b905051906100a282610087565b90602082820312610090576100b0916107d3565b60005b8381106108075750506000910152565b81810151838201526020016107f7565b6108386108416020936101549361082c815190565b80835293849260200190565b958691016107f4565b601f01601f191690565b906100b09060408061088161086f6060850160008801518682036000880152610817565b60208701518582036020870152610817565b940151910152565b60208082526100b09291019061084b565b6040513d6000823e3d90fd5b156108ad57565b60405162461bcd60e51b81526020600482015260136024820152721514119d08191bd95cc81b9bdd08195e1a5cdd606a1b6044820152606490fd5b634e487b7160e01b600052601160045260246000fd5b9190610909565b9290565b9180830292818404149015171561091c57565b6108e8565b96939097949195926000966109d061093889610679565b6001600160a01b0381166001600160a01b038d1614158015610ab8575b61095e90610682565b6109848c61097d6001600160a01b0387165b916001600160a01b031690565b14156106ce565b61098d8a610390565b8b1180610aa7575b80610a90575b6109a490610729565b6109c96109706109bc6001546001600160a01b031690565b926001600160a01b031690565b141561076a565b6109ed6109e86109e86001546001600160a01b031690565b6107ca565b9960206109f960405190565b9b8c906386e36b1b60e01b82528180610a158b60048301610889565b03915afa988915610a8b576100a29b60009a610a52575b50610a39610a4291610390565b8a5b14156108a6565b610a4c88886108fe565b996111e3565b610a42919a50610a7c610a399160203d602011610a84575b610a7481836100fc565b8101906107e0565b9a9150610a2c565b503d610a6a565b61089a565b506109a4610a9d8b610390565b8a5b11905061099b565b50610ab18a610390565b8811610995565b506001600160a01b038481169082161415610955565b15610ad557565b60405162461bcd60e51b815260206004820152602660248201527f4f6e6c792063656e7472616c2062616e6b2063616e207365742054504674206160448201526564647265737360d01b6064820152608490fd5b906001600160a01b03905b9181191691161790565b90610b4e6100b0610b55926107ca565b8254610b29565b9055565b6100a290610b7c610b756100a46002546001600160a01b031690565b3314610ace565b6001610b3e565b906100a296959493929161157c565b90610317906104a1565b90610317906104c7565b6100b0610120610123565b906100a2610c976007610bc2610ba6565b94610bd3610bcf826103bc565b8752565b610bfa610bea60018301546001600160a01b031690565b6001600160a01b03166020880152565b610c21610c1160028301546001600160a01b031690565b6001600160a01b03166040880152565b610c39610c30600283016103d4565b60608801610b92565b610c4f610c48600383016103bc565b6080880152565b610c65610c5e600483016103bc565b60a0880152565b610c7b610c74600583016103bc565b60c0880152565b610c91610c8a600683016103bc565b60e0880152565b016103e7565b6101008401610b9c565b6100b090610bb1565b15610cb157565b60405162461bcd60e51b815260206004820152601460248201527309ee4c8cae440c8decae640dcdee840dac2e8c6d60631b6044820152606490fd5b6100b090516104a1565b15610cfe57565b60405162461bcd60e51b815260206004820152601d60248201527f43616c6c6572506172742063616e6e6f74206265207468652073616d650000006044820152606490fd5b6100b090516104c7565b15610d5457565b60405162461bcd60e51b815260206004820152601660248201527513dc99195c88185b1c9958591e48195e1958dd5d195960521b6044820152606490fd5b9492956020610ddc939295610da5600090565b50610dbe6109e86109e86001546001600160a01b031690565b604051958692839182916386e36b1b60e01b5b835260048301610889565b03915afa928315610a8b57600093610f56575b50600095610dfc87610390565b841415610e08906108a6565b610e12908761039d565b610e1b90610ca1565b90610e296305f5e100610390565b610e32916108fe565b94610e4760208301516001600160a01b031690565b906001600160a01b0316906001600160a01b0316148097610e99610ed699610ed098610eca98610ec49861010098610ebe97610f31575b5083610f15575b5082610ef9575b5081610edb575b50610caa565b610eb7610eb1610eab60608601610ced565b926104a1565b916104a1565b1415610cf7565b01610d43565b926104c7565b916104c7565b14610d4d565b600190565b9050610ef2610eee61090560c088015190565b9190565b1438610e93565b909150610f0d610eee61090560a089015190565b149038610e8c565b909250610f29610eee61090560808a015190565b149138610e85565b909350610f4e6109706109bc60408b01516001600160a01b031690565b149238610e7e565b610f7091935060203d602011610a8457610a7481836100fc565b9138610def565b9060ff90610b34565b90610f906100b0610b55926104d1565b8254610f77565b610317906107ca565b9a99979061102061102891611056988e6110136101409c9a6100a29f996110379b610ff961100992610fef61102f9d610fdf6101608a019b60008b0152565b6001600160a01b03166020890152565b6040870190610f97565b6001600160a01b03166060850152565b6080830190610f97565b60a081840391015261084b565b9560c08d0152565b60e08b0152565b610100890152565b868103610120880152600381526241545560e81b602082015260400190565b940152565b9060001990610b34565b906110756100b0610b5592610390565b825461105b565b9060ff60a01b9060a01b610b34565b9061109b6100b0610b55926104ab565b825461107c565b60076111746101006100a2946110c26110bc600083015190565b86611065565b6110e26110d960208301516001600160a01b031690565b60018701610b3e565b6111186002860161110661110060408501516001600160a01b031690565b82610b3e565b61111260608401610ced565b9061108b565b61112f611126608083015190565b60038701611065565b61114661113d60a083015190565b60048701611065565b61115d61115460c083015190565b60058701611065565b610ebe61116b60e083015190565b60068701611065565b9101610f80565b906100a2916110a2565b9a99979061102061102891611056988e6110136101409c9a6100a29f996111c49b610ff961100992610fef61102f9d610fdf6101608a019b60008b0152565b86810361012088015260038152622620a760e91b602082015260400190565b969391989995929490996000916112146112006100b08b8661039d565b9a61120e6305f5e100610390565b906108fe565b9661122160068c016103bc565b61122d610eee86610390565b036113245789846112b07fa47f37d81ecef7374405d992ff245d682d375ecbf941cfe012fd8c2523e344539f956112a9849d9c9b9a99989661131f9f6112e4976112996112e99b611289610c3094611283610ba6565b9d8e0152565b6001600160a01b031660208c0152565b6001600160a01b031660408a0152565b6080860152565b6112bb8860a0860152565b6112c68960c0860152565b6112d14260e0860152565b6112df816101008601610b9c565b61039d565b61117b565b611311600261130260018b01546001600160a01b031690565b9901546001600160a01b031690565b604051998a9942988b611185565b0390a1565b91909899939b6113446109706109bc60018801546001600160a01b031690565b14918261146c575b5081611451575b508061143d575b80611424575b61136990610caa565b6002820196611377886103d4565b90611381906104a1565b9061138b906104a1565b141561139690610cf7565b60078201906113a4826103e7565b906113ae906104c7565b906113b8906104c7565b146113c290610d4d565b60016113cd91610f80565b600101546001600160a01b031694546001600160a01b0316976113ef60405190565b98899842976113fe998b610fa0565b037fa47f37d81ecef7374405d992ff245d682d375ecbf941cfe012fd8c2523e3445391a1565b50611369611434600584016103bc565b86149050611360565b5061144a600483016103bc565b841461135a565b9050611465610eee610905600386016103bc565b1438611353565b9091506114896109706109bc60028701546001600160a01b031690565b14903861134c565b989795611503906114fc6114f46100a29a94611056988e6114e76101009c9a6114d761150a9b6114c76101208601976000870152565b6001600160a01b03166020850152565b6001600160a01b03166040830152565b606081840391015261084b565b9560808d0152565b60a08b0152565b60c0890152565b86810360e0880152600381526241545560e81b602082015260400190565b989795611503906114fc6114f46100a29a94611056988e6114e76101009c9a6114d761155e9b6114c76101208601976000870152565b86810360e088015260038152622620a760e91b602082015260400190565b92909395919460006115f161159082610679565b6001600160a01b0381166001600160a01b038916141580156118bf575b6115b690610682565b6115d26001600160a01b038a166001600160a01b038a1661097d565b6115db83610390565b8711806118ae575b8061189b576109a490610729565b6116316115fe85846108fe565b9460208a61161a6109e86109e86001546001600160a01b031690565b604051948592839182916386e36b1b60e01b610dd1565b03915afa918215610a8b57600092611876575b506116689061165b61165585610390565b84610a3b565b61120e6305f5e100610390565b936116766100b0888561039d565b611682600682016103bc565b61168e610eee86610390565b036117095750826112e48880989796956116e57f776a244a8d8dcb055a35e992aea4afdf27f814db470a0820be8bc1beeb8aaf0c9e966112a98f978f61131f9f99611299610c30926112896116fb9d611283610ba6565b6116f08760a0860152565b6112c68860c0860152565b604051978897429689611528565b9398919096976117296109706109bc60018801546001600160a01b031690565b149182611851575b5081611836575b5080611822575b80611809575b61174e90610caa565b600282019461175c866103d4565b90611766906104a1565b90611770906104a1565b141561177b90610cf7565b6007820190611789826103e7565b90611793906104c7565b9061179d906104c7565b146117a790610d4d565b60016117b291610f80565b600101546001600160a01b031692546001600160a01b0316946117d460405190565b96879642956117e39789611491565b037f776a244a8d8dcb055a35e992aea4afdf27f814db470a0820be8bc1beeb8aaf0c91a1565b5061174e611819600584016103bc565b84149050611745565b5061182f600483016103bc565b871461173f565b905061184a610eee610905600386016103bc565b1438611738565b90915061186e6109706109bc60028701546001600160a01b031690565b149038611731565b6116689192506118949060203d602011610a8457610a7481836100fc565b9190611644565b506109a46118a884610390565b87610a9f565b506118b883610390565b84116115e3565b506001600160a01b0389811690821614156115ad56fea26469706673582212201a4eb6641d92410a787bd81605f75ed9f1ed9250bed618b737574578cefe2b1164736f6c63430008190033",
  "linkReferences": {},
  "deployedLinkReferences": {}
}