{
  "_format": "hh-sol-artifact-1",
  "contractName": "PoseidonU2bn256Hasher",
  "sourceName": "contracts/hamsa/poseidon/PoseidonHasher.sol",
  "abi": [
    {
      "inputs": [
        {
          "internalType": "bytes32",
          "name": "input0",
          "type": "bytes32"
        },
        {
          "internalType": "bytes32",
          "name": "input1",
          "type": "bytes32"
        }
      ],
      "name": "hash2",
      "outputs": [
        {
          "internalType": "bytes32",
          "name": "",
          "type": "bytes32"
        }
      ],
      "stateMutability": "pure",
      "type": "function"
    },
    {
      "inputs": [
        {
          "internalType": "bytes32",
          "name": "input0",
          "type": "bytes32"
        },
        {
          "internalType": "bytes32",
          "name": "input1",
          "type": "bytes32"
        },
        {
          "internalType": "bytes32",
          "name": "input2",
          "type": "bytes32"
        }
      ],
      "name": "hash3",
      "outputs": [
        {
          "internalType": "bytes32",
          "name": "",
          "type": "bytes32"
        }
      ],
      "stateMutability": "pure",
      "type": "function"
    },
    {
      "inputs": [
        {
          "internalType": "bytes32",
          "name": "input0",
          "type": "bytes32"
        },
        {
          "internalType": "bytes32",
          "name": "input1",
          "type": "bytes32"
        },
        {
          "internalType": "bytes32",
          "name": "input2",
          "type": "bytes32"
        },
        {
          "internalType": "bytes32",
          "name": "input3",
          "type": "bytes32"
        }
      ],
      "name": "hash4",
      "outputs": [
        {
          "internalType": "bytes32",
          "name": "",
          "type": "bytes32"
        }
      ],
      "stateMutability": "pure",
      "type": "function"
    },
    {
      "inputs": [
        {
          "internalType": "bytes32[]",
          "name": "inputs",
          "type": "bytes32[]"
        }
      ],
      "name": "hasha",
      "outputs": [
        {
          "internalType": "bytes32",
          "name": "",
          "type": "bytes32"
        }
      ],
      "stateMutability": "pure",
      "type": "function"
    }
  ],
  "bytecode": "0x608060405234601d5760405161334d61002382393081505061334d90f35b600080fdfe6080604052600436101561001257600080fd5b60003560e01c8063b30c0b6a14610052578063b94b446c1461004d578063cb85e2ea146100485763dc51437c036100575761023b565b6101f0565b6100dd565b610089565b600080fd5b905035905b565b91906040838203126100575761008690602061007f828661005c565b940161005c565b90565b6100b06100a061009a366004610063565b9061029e565b6040519182918290815260200190565b0390f35b9091606082840312610057576100866100cd848461005c565b93604061007f826020870161005c565b6100b06100a06100ee3660046100b4565b91610301565b634e487b7160e01b600052604160045260246000fd5b90601f01601f1916810190811067ffffffffffffffff82111761012c57604052565b6100f4565b9061006161013e60405190565b928361010a565b67ffffffffffffffff811161012c5760208091020190565b9092919261017261016d82610145565b610131565b938185526020808601920283019281841161005757915b8383106101965750505050565b602080916101a4848661005c565b815201920191610189565b9080601f83011215610057578160206100869335910161015d565b9060208282031261005757813567ffffffffffffffff81116100575761008692016101af565b6100b06100a06102013660046101ca565b610436565b6080818303126100575761021a828261005c565b9261008661022b846020850161005c565b93606061007f826040870161005c565b6100b06100a061024c366004610206565b92919091610513565b6100866100866100869290565b61008690610255565b6100866060610131565b6100867f30644e72e131a029b85045b68181585d2833e84879b9709143e1f593f0000001610255565b610086916102ee6102c36102bd6102fc946102b7600090565b50610262565b92610262565b6102e76102ce61026b565b936102e06102dc6000610255565b8652565b6020850152565b6040830152565b6102f6610275565b906105ff565b610255565b9061038161037d6100869461032461031e6102fc966102b7600090565b94610262565b61034661032f61026b565b916102e761033d6000610255565b976102e0898652565b6103786102e7610354610275565b9361037361036286866105ff565b9861036f602087019a8b52565b8552565b610262565b6105ff565b8252565b5190565b1561038c57565b60405162461bcd60e51b815260206004820152602360248201527f506f736569646f6e4861736865723a20696e76616c696420696e70757420636f6044820152621d5b9d60ea1b6064820152608490fd5b6103e561026b565b600080825260208201819052604082015290565b6100866103dd565b634e487b7160e01b600052603260045260246000fd5b90610420825190565b811015610431576020809102010190565b610401565b805161045560019161044f61044b6001610255565b9190565b11610385565b61045d6103f9565b6000926104796103736103816104736000610255565b84610417565b9361048660208401958652565b836104916001610255565b905b6104a8575b50505050506102fc610086915190565b6104b3610086845190565b81101561050e57610508906104d06104ca84610255565b84870152565b6104ea6104e36103736103818488610417565b6040870152565b6105026104fe6104f8610275565b876105ff565b8852565b60010190565b84610493565b610498565b61037d610086946102fc94610378610539610533610381966102b7600090565b96610262565b9161056a61054561026b565b936105636105536000610255565b9961055c8b8852565b6020870152565b6040850152565b6105bf610575610275565b9461037361058387876105ff565b99610590602088019b8c52565b869461059e90610373838852565b946105ab60408901968752565b6105bc6105b88a8a6105ff565b8d52565b52565b9052565b156105ca57565b60405162461bcd60e51b815260206004820152600d60248201526c1253959053125117d253941555609a1b6044820152606490fd5b6103816100869261060e600090565b5061062361061a845190565b82905b106105c3565b602083019261063a610633855190565b839061061d565b610648610633604083015190565b6106e561065361026b565b61067f61037d7f1051abd795bb781c5bcb3d4c7320b88f033cb1904c5b8559bf08995be4d6305d610255565b6106b26106ab7f2680c4e5e102394a8c53c7ca99003cbeb3422caedbfa62c2373862e367a3dd00610255565b6020830152565b6106de6102e77f132e8252ba372e32578a441ca6b0865f73d890c968dd8b7642f5b483676160b6610255565b8383612e80565b6106ef8282612f09565b6106f9828261300b565b61078861070461026b565b61073061037d7f0dff6973df3b1f559d2e21ede06b857c63e4da1bd50a03e4d500e226dd108be7610255565b61075c6106ab7f05e9463e0290d75eb2948587b1f9a7ca52ea91c9e57b322cdfab3c4822f1abbd610255565b6106de6102e77f2365c6a8b9928e31609cb8190336a6a2eebf69b015bc7958840576fd4e42da38610255565b6107928282612f09565b61079c828261300b565b61082b6107a761026b565b6107d361037d7f16aa8ba01611f750811cbb3d4257f53a969fccaec3130b7a6441c39c9bae8458610255565b6107ff6106ab7f2717b1a58bf1978c6af4069069429e64ea024efd3b9be8fe8aa2bf1d8c28f42d610255565b6106de6102e77f2d26bd604c702d7c74850099492efb38bc836c3cb88602e1679ddb53557292bf610255565b6108358282612f09565b61083f828261300b565b6108ce61084a61026b565b61087661037d7f174a4de6c44cab3c9781597fa27c024f7c7a114632a541ed7fed2deb245a85e1610255565b6108a26106ab7f1d3e5ecbb083875c59541464dc6e7d1a59b4f68d985a213b28314a3004ec6809610255565b6106de6102e77f014edb6e589987b69e282db5f52c1b0bbe8704e601154c6a0afe84b52f9a4aae610255565b6108d88282612f09565b6108e2828261300b565b6109716108ed61026b565b61091961037d7f0e0d8d1e063d74b601a548eae7d368fd8ac907dd9145beaf63f2e2a6a28fccd5610255565b6109456106ab7f0602ae8ffb9d13f3cce1e3ae3c2f494b03d3fc2fc6426d5fe6cc1c312d068da2610255565b6106de6102e77f23868f037d108e9346a8d63130d6d9aab87e701c1828c574fa67cc8c1177a6b3610255565b61097b82826132b3565b610985828261300b565b610a1461099061026b565b6109bc61037d7f1073b5a9ce850e2d6f16e5776b4ee254146ed65bbd8f50d36e17747778af00d2610255565b6109e86106ab7f073da226b5a2639fe26496cdc3dbd5fd769984dc39e44003781d9140596543c4610255565b6106de6102e77f2cfbfacaaab3b3526fd0dc6d369646f3fe3948da0fa8a132f0dbde96b5ddc9e6610255565b610a1e82826132b3565b610a28828261300b565b610ab7610a3361026b565b610a5f61037d7f0fc0855a69b277b726ac164b86ffba19954c0d59802838c4f032df5ca38ae88e610255565b610a8b6106ab7f2649f096f1e407adbe09b44a07c54ec03f23cdef4b1e4c96d81f632df917e0e0610255565b6106de6102e77f0f9c0aa8c10f48a205c7ed49d1cffa12829b53ac76840f3a0aff6cb10418ca40610255565b610ac182826132b3565b610acb828261300b565b610b5a610ad661026b565b610b0261037d7f11547a7f704f1eb0394663d4afc2fe19823910bebe3147b6f0ffb7f8433838e1610255565b610b2e6106ab7f16aff7c7076d3487c8d10e640da7652a5f3a007967eaa7282ced25e89b61787d610255565b6106de6102e77f011a06492822359dbd9406c3afba3bfa469147f483f0ae78c80f9077de480b86610255565b610b6482826132b3565b610b6e828261300b565b610bfd610b7961026b565b610ba561037d7f0d7f084fe4f168dd3b06a36866399b1c4c3c6a7f247f317d8463d9e447608134610255565b610bd16106ab7f078b6029f46dc32407770079ff46c9b20accea7cd0120ef5fdca18a7cb65b127610255565b6106de6102e77f2dea4e22de864b493684aebb0a692f939ce841aebf83330c13f2ee57071793ae610255565b610c0782826132b3565b610c11828261300b565b610ca0610c1c61026b565b610c4861037d7f08cbcba0c91b3981c0207f75e4b0f032feaf5480e4aa243c946d938a2a57645f610255565b610c746106ab7f02d8f99ea79dbde1025ea741c56c3e6978e7eb7b820eb30148d6c059bb8c365e610255565b6106de6102e77f109b2d0bcdbd121d2764beeec0284a1b13cdb171ab316e729f6980adb7e219a3610255565b610caa82826132b3565b610cb4828261300b565b610d43610cbf61026b565b610ceb61037d7f06a25826dc6271bf8c924962da4cda44dc320d0c66f31fd2efef0bd9b9f8fe35610255565b610d176106ab7f1a63e4e11c99ecbb52b14e202fd651a9872e560e9403fa2d9f33d20bcc32bca4610255565b6106de6102e77f03fb5deb4cdadf1ce955fa3c091f2dfb8c58951760769d1484f06ccf3a687d5b610255565b610d4d82826132b3565b610d57828261300b565b610de6610d6261026b565b610d8e61037d7f0bdac171754f43976c5cafd607771b9c7704e9d1c5576b87fe2aa0d80ab0fe01610255565b610dba6106ab7f253a502bcfb721c80a2774434713ef20fad993dc5751c0673f44ef976d5ce751610255565b6106de6102e77f0e21300aec534829255add130d31da0dc54282656e893cba45b81b123671c2c5610255565b610df082826132b3565b610dfa828261300b565b610e89610e0561026b565b610e3161037d7f0d9d748361f6bbb3782751508fd274913d9153eff951dba21f3b20e69f229a36610255565b610e5d6106ab7f1eafe91d860ad0794059d7abe25ffa38d1e0229f64f81d34eeffadb1575edfc8610255565b6106de6102e77f1208792af32377cd04bf0b77947ef589d4069b8743bc8b4878d09daa669b6b9b610255565b610e9382826132b3565b610e9d828261300b565b610f2c610ea861026b565b610ed461037d7f0c8593f0fd900eba22c520adca2fac43ef1e22676c396804a421cb9b10ec78a4610255565b610f006106ab7f1bd21887ff52ef7fc2535b98dc27cf269baa0905b006bc8c347518da237c0eba610255565b6106de6102e77f1f286d70c425a4f9c587777c055274940a860def2ee096dd382b3098b526a211610255565b610f3682826132b3565b610f40828261300b565b610fcf610f4b61026b565b610f7761037d7f12f295cba6747661e15782c98dfc37986ff39910b5ade0af270359a0240ac15c610255565b610fa36106ab7f27b574790203bde222f06ec565eeb97b5cb638d48b91d696406ad922c5cef4aa610255565b6106de6102e77f0b48c200ed9b9c2e06ccf0b4bf7879aa04a4f3c96a123c76b141014cf1cf3db7610255565b610fd982826132b3565b610fe3828261300b565b611072610fee61026b565b61101a61037d7f102542507dd3efd2985a8c1f32b693db8bbdb68915ddfcde0495319274cb805e610255565b6110466106ab7f179ecf51290f06d865c9a5f2b0e0c0d8538f1e0cd827aeebc17a52243892961a610255565b6106de6102e77f095495252df2a4b0436c4ed7475418d3ddbceeedefa21c93f869d2ef7af8d0e7610255565b61107c82826132b3565b611086828261300b565b61111561109161026b565b6110bd61037d7f0199f70bfee188c09adc670d87ab0faf853a05009f4bf5f02ccc1118ebddfd04610255565b6110e96106ab7f2c4424651e6612ac440f1a0337c11ab8de4e454b02e541f0d9fd94c71fe8894e610255565b6106de6102e77f1026a6b199faf95f5d25039aa4ac197858efccc396d022ef2a91b6e8daefd401610255565b61111f82826132b3565b611129828261300b565b6111b761113461026b565b61116061037d7f1592410f12e9ed7cb9a4e179545bb25e1ccd1fe651a357384c25c4069c91f447610255565b61118c6106ab7f2eb2a6361decccd18af7220bf07acaba1aa2f72df3c8987f2de50550e2958ec1610255565b6106de6102e77e4e18672f832f967bc48680deea67cfaa5239523c8300431b3a5d6841c6c83a610255565b6111c182826132b3565b6111cb828261300b565b61125a6111d661026b565b61120261037d7f15d58a38461f1a3ff4fa48c05893549ccc347de223c3defa6b62ad235f8f273c610255565b61122e6106ab7f2f8b363cb00ed6b4c59cdccdd8bc00c2b74a20692f50684554d26aded7e536fe610255565b6106de6102e77f29723a5dce93cca5d1b5fa130caa23df1a0dc60d1b04a5af92cee4f9725c35c7610255565b61126482826132b3565b61126e828261300b565b6112fd61127961026b565b6112a561037d7f2c54d95a6a6f7e09e4c3562ecf6d09641e29a72cc7a46e97555232044a6a8aaa610255565b6112d16106ab7f2a62c847a7404e47d198158bc9783f57a7e9e936a512ebdb6ed07ed81040f9d1610255565b6106de6102e77f1276cfc056c55b3a9feb8734289c38bb99f2d4adb5df85b9c6baff7f42489ddc610255565b61130782826132b3565b611311828261300b565b6113a061131c61026b565b61134861037d7f27074fb9a068da4dc423e47f968c2967012a8238c74008a2d3cfae739a454417610255565b6113746106ab7f13b3cc235d66d3f0db7862ee5b3e78a7ae3fbcb379571af077693fa3a318baf6610255565b6106de6102e77f1d4f5cbb8ed933063b61afb45c92a6e42cb80baac351ddd75efd8ada23535e31610255565b6113aa82826132b3565b6113b4828261300b565b6114436113bf61026b565b6113eb61037d7f2d4a0453f7e3632194d15444457f033b28822ac9e46aa9e8141ec98968666229610255565b6114176106ab7f0996408db77890304cec004cff24e7031f20d91245bf698b8d85185ba4c6ca3c610255565b6106de6102e77f154c4433d7bc73b4bcbd880f933fd7ae87e618b381b3529bcffc2281cbb1ba7f610255565b61144d82826132b3565b611457828261300b565b6114e561146261026b565b61148e61037d7f0dfe738c2dfa783eeb594adf67c5e2b5581de47f8c9cfa8a37fffde204eeb4fd610255565b6114b96106ab7e9517fcab532346f0c8b3dbce4a6b24e901772bd3bfb55dd4f4cc1886be22cb610255565b6106de6102e77f0e87f69b7ba84abd34fb9822c91cc4053914904860eb136b5f24dc56c7ea4ef2610255565b6114ef82826132b3565b6114f9828261300b565b61158861150461026b565b61153061037d7f20f6ebe7f3b318d178af7fb4ebfe5e71b5d3380ee0ce07f275051f52fbce3d50610255565b61155c6106ab7f1f93934dc4dd378c4ef0c106dd721e55d59db5910d92cc721dbd1b71e8b16ac9610255565b6106de6102e77f1c9601af9f45092f62ed342e62ce154a3ee2583025f089235ced1ae2f1f84f9d610255565b61159282826132b3565b61159c828261300b565b61162b6115a761026b565b6115d361037d7f04dd1e6797a385c12d4b7f911a28ac12149e3ebbe1ad536870725a7b494b13b0610255565b6115ff6106ab7f23e7a5d59830db614d16a0ed4eeaeaee5b793aa39af8ff56aa7ca3bfefcdefba610255565b6106de6102e77f12f8f2d6c41e9d384e01d138695acff6a73b557f5d2606e598cb0ffec69f091d610255565b61163582826132b3565b61163f828261300b565b6116ce61164a61026b565b61167661037d7f01376653f8bcf8fcec5ed8c851453e6bdc678f31fc9c8b94453230e99068d2b7610255565b6116a26106ab7f26b0bf23169407407b4c3b437d920b74c7ba13058818edcbe4eed125540eea78610255565b6106de6102e77f03a8a2797f6d8244e383f51fdc0edc69873d81d75b6ac0b92643e4b02f67113d610255565b6116d882826132b3565b6116e2828261300b565b6117716116ed61026b565b61171961037d7f0758e495264cace99acef218843149d62c2de064a62936ad4161a862198b697f610255565b6117456106ab7f1973c04a42a8996d5f38671e71d3be5778de8bd4854259e8bb461ffc56399278610255565b6106de6102e77f2ff27debeb99ece34cb68ad054c3725eb8ee3857dc97961896e1691a1e76a6e5610255565b61177b82826132b3565b611785828261300b565b61181461179061026b565b6117bc61037d7f1b2316eab766bda304543e47474aef9ce91830a717686d5f74891d25eda9e3d2610255565b6117e86106ab7f29186c9e4543d1e838518a836cd160fea11d0399d40d4a44248b5b86773454d3610255565b6106de6102e77f2fb5e09aaf4fb0f3e29d8037046242dfcfc25e0acb6942d709f339c80d62156f610255565b61181e82826132b3565b611828828261300b565b6118b761183361026b565b61185f61037d7f2d026814a08dc4497c6e249debdf0be4584d75fc1565dccb36549687fcdce5f7610255565b61188b6106ab7f1f530540f99193b2535359650505dcdbabd5dae0e7a25029eb427da77dfd29d5610255565b6106de6102e77f059f1ad84cfaf236838c5dd78cf530e0f008631d7b911b108f9e9e35927a6a0c610255565b6118c182826132b3565b6118cb828261300b565b61195a6118d661026b565b61190261037d7f0f0cb8516e7358e13f8d29e3d7ca3b8772da3f34c38dd54b79f32a64d3a173a9610255565b61192e6106ab7f0a7b0e2f1fa2d3b05d30ba4010d38a04a413e0b31aefd44a62cfd75bdefaacb9610255565b6106de6102e77f29785cee4a463f7c6a9d0faf92b5d7835e2cf7ed758ece279a896d3165f06e2a610255565b61196482826132b3565b61196e828261300b565b6119fd61197961026b565b6119a561037d7f0550c951520a57c7ea1253ce4198f5151aaa801da0c49b6b1599e1c4e9cd4a41610255565b6119d16106ab7f0e4f3013a99a670d3b60456f721932b60627daa3be8aedfe7e4d84d5528d5a94610255565b6106de6102e77f116159f5f5be7755a0d02232fed8d99f2bcf672536c1373bcbddc83cfe7fa461610255565b611a0782826132b3565b611a11828261300b565b611aa0611a1c61026b565b611a4861037d7f05f3b1526b9d0dcaec2d707ac31e87e8699a46c852ac9ef94abd5767de5cff47610255565b611a746106ab7f095e04894544e210764ff538802121e800b39970585063fe611136276aa16fe5610255565b6106de6102e77f2ade487b239c12bb48ff17f278758dca8dd1278972daef778f4c118dec3dcf39610255565b611aaa82826132b3565b611ab4828261300b565b611b43611abf61026b565b611aeb61037d7f053e3aa1aba2476edb26d2463332a0e186ed428adeee869d822401930f9e4128610255565b611b176106ab7f2df9eb23269d857b49c76080928a62e518402ec26aeace0c0d88790830e5e23f610255565b6106de6102e77f224883469ecba978372e4e9412c3a434b7058d9d76f1d1869ca187ba7c1590d5610255565b611b4d82826132b3565b611b57828261300b565b611be6611b6261026b565b611b8e61037d7f0e0dba4c312b41bb89edcff913835681a106d97ea723735220c2cd806f16968b610255565b611bba6106ab7f2d9ce08f05ffc1eced293bd9f8fb89d7bef456b2b0fec016e795c4159325337b610255565b6106de6102e77f162b649549c5adc5f781e37b7df61e7ce65f084b9825a23d9b6aa4bdc248e998610255565b611bf082826132b3565b611bfa828261300b565b611c89611c0561026b565b611c3161037d7f2323a160c2346980dabf302e69e2cd88f307c1741dd583d36a06733f0a0936c8610255565b611c5d6106ab7f047d629034c42906bff290342b2bafa612f08b0f888fd5c5ea02384c639adb87610255565b6106de6102e77f16749375afac68bb87291b6167aa55e389e69932dacacbf3762fea925d7ee5c1610255565b611c9382826132b3565b611c9d828261300b565b611d2c611ca861026b565b611cd461037d7f14f633ba5f21231117f4d938bdba1ad6587f37312dd852ae22e508b2557524f9610255565b611d006106ab7f2d02f2b341f65ad9d99e89cba23a797806168efeb2da8169f7893783c9acb782610255565b6106de6102e77f25f565e2ea7cb2faff221c35deec04b825960e1b26edd936b39fd2c55a48bffa610255565b611d3682826132b3565b611d40828261300b565b611dcf611d4b61026b565b611d7761037d7f0febd4fef89c49b6b12c353e3efb358203aef5f13e2e25cdc88a9fae17a48ba9610255565b611da36106ab7f11d001a9456099cd86c95cdef6bfda0434d6f52394944335cd6513bb41add7c3610255565b6106de6102e77f1cc2b66fcd7d66e5ff81955bed3ce8d976aae481f100e40a5078171cfad690b4610255565b611dd982826132b3565b611de3828261300b565b611e72611dee61026b565b611e1a61037d7f16a755dc1ad34b4562a9d57dd375ba68bbe5424df505a5df3d1d1c16fc6f516e610255565b611e466106ab7f1c6d0e7f77d871f89f0324dad2cf370292f81cd8d567129b56384ebe8f14b078610255565b6106de6102e77f278006a7fd3b154b9f25be54a013734b0a5372ff88377c26eb219039558a281d610255565b611e7c82826132b3565b611e86828261300b565b611f15611e9161026b565b611ebd61037d7f22eb2867a539a9b6ff51d4a48b4cd8419252d07c0665d0baf82acf8aef7de8ad610255565b611ee96106ab7f1a128b7188d4e3f1c22aa4bc4525bb26b50ebd80f50f267988bfe2e466e56a94610255565b6106de6102e77f1d2faa5c28aa1d533513cba89750b93ce71b4510c4c215eb1974a59051c5b093610255565b611f1f82826132b3565b611f29828261300b565b611fb8611f3461026b565b611f6061037d7f28eb1c41a050dc8aa3f9a8037cb81f575e5b1acadc49e886e90bee7f1a485149610255565b611f8c6106ab7f1e2586cbca2364027ac96ad1490271b866e723385e96c9f720a72b1f67078e6e610255565b6106de6102e77f13c7e5c7724e33d7acec9e42ff8a4ee4f1ac8b6d0038f0faf4908e74ed06c9ba610255565b611fc282826132b3565b611fcc828261300b565b61205b611fd761026b565b61200361037d7f09bf059ab4925c39c6df84371572785d35e40be573fdf1be914ff6a87066923e610255565b61202f6106ab7f1b7375f3920e121871cbc71e92a2f47518d26a20f236f9194a5c48f86dfabd38610255565b6106de6102e77f1494848f10672e535de527d6d0591019987f6e11ba33b6f6eb73dc59289c2e36610255565b61206582826132b3565b61206f828261300b565b6120fe61207a61026b565b6120a661037d7f195378dcafdea646a00ae78d9e30487a41aa8b8864ef4035a751c3b8ece36b0c610255565b6120d26106ab7f0b6a5c76a2a2a0db3843ef11176411388025f380e7a2d7ef1a6acafda5899b0e610255565b6106de6102e77f0823e1d157f7c4712b4988af4a0396edb0950b1ccd001692e4eff681e14c2fef610255565b61210882826132b3565b612112828261300b565b6121a161211d61026b565b61214961037d7f1633b048d2f14628309dbdf5a52736c0c5de9bf96d7fb9d13a2cb4562074b222610255565b6121756106ab7f1f77ddd90f1eab23737895ec06a295467086513dec30b69738d226c82ed5e430610255565b6106de6102e77f09c71939b3672bf6aaaebcf3717dab67765d8b94726c19d76d57e7aec751b94f610255565b6121ab82826132b3565b6121b5828261300b565b6122436121c061026b565b6121ec61037d7f048139270f0ef8f68d0b07c5d0005d7ad91d41fe306c8587bcf32d742ca1937d610255565b6122176106ab7e3adfb1444cbf59321984d74e4434f3ed8a2f2376a41f5b9f52b1a6172c03e5610255565b6106de6102e77f2eec4a7de823bf9531d3f842e9a9c74b0d0c4f8b56a5a25ede19b11f868b89ce610255565b61224d82826132b3565b612257828261300b565b6122e661226261026b565b61228e61037d7f0ea574b644b9f4cba43338122827d08f07484a4ceb24ac9d00c4a668838900af610255565b6122ba6106ab7f054da055cd915cca9a0da4dd2cc86d99f08b287bba925305ecc28ed0bdd28990610255565b6106de6102e77f02965a1d1f26fcd147af96711976f84bc3f08a50e8b8c38f7e83e8638b8f4706610255565b6122f082826132b3565b6122fa828261300b565b61238961230561026b565b61233161037d7f1f97b34b9622f33893182c89f86ef052ce8e46a3bfe2e33fa2a34c5e051d91b8610255565b61235d6106ab7f09a063b0b5ea468d93edeecfc089699f815eddbeb5e9369046740c7fea6d1cb5610255565b6106de6102e77f1242820c24afd7cc595f7a3dd0534c6cf1f00c6a84291c65417397c07d46b778610255565b61239382826132b3565b61239d828261300b565b61242c6123a861026b565b6123d461037d7f2983c402aec15b1d15f86a8d0378769832f0d5ed57aab1d11cc08b4509512da6610255565b6124006106ab7f136371a4b44febffc233bd009ba8673764d2a73512e0eab44024cb97134a3dd8610255565b6106de6102e77f2970729690bd8c8362bf5d0a76c215a03c26ef8a3e01eb91cb0e0c70ee25525e610255565b61243682826132b3565b612440828261300b565b6124cf61244b61026b565b61247761037d7f1c395ca2c5db9b254b9b0ef75ba5c0961750f646f9a6a68d60e33ca2ce84427d610255565b6124a36106ab7f02356c76528c4b9ae14f13f529206cce462782256984db7e1c3aad5d6f367f68610255565b6106de6102e77f0c5a67378876463bdb3ff94d63e062ecef7bd040316eae92c8b035f693ec388e610255565b6124d982826132b3565b6124e3828261300b565b6125726124ee61026b565b61251a61037d7f1b2aafe5f720bfc99ef31b5e48b35df72fcc920e66c3d90d86537ae35ce6bff5610255565b6125466106ab7f067987b7638b9b082848f8eba41ee203d3e90fc591407a4d87f81f088f9612a5610255565b6106de6102e77f148d4b0218744bcaccceb62b6313a57272a1545fd75d1a8ebbd736e4276d5e6d610255565b61257c82826132b3565b612586828261300b565b61261561259161026b565b6125bd61037d7f043f8986cc56fcf8e88680a1e8f1c247165bcdb9a6ca2d94c7418d10ad8ef847610255565b6125e96106ab7f1ef035d9ff4391c8001fbec565a65ca3cd3b7d0823bb062a9141503a79731f81610255565b6106de6102e77f0a5162e6b35a320dec11ba8639a1192f6a0a464f84dd3899c4dab9d4ebbfe024610255565b61261f82826132b3565b612629828261300b565b6126b861263461026b565b61266061037d7f2b5c89e9872aed76baa36b83f87eb830fe16d34169f9eb1628e6fbeaa940cf3b610255565b61268c6106ab7f0625c126499750374f2d3fd08940d1c0238fbd8da85bdf47928188e3f9010627610255565b6106de6102e77f116bb85cfe6730c6448192438af1748221d2bb302b3258350cbebb1c5eccd965610255565b6126c282826132b3565b6126cc828261300b565b61275b6126d761026b565b61270361037d7f11aa65a2b09da598bb66377e54458c1dc4a7a3775f9c9cf51b2ebea5c871abfb610255565b61272f6106ab7f280fbd8eb1ccc50603dbc78eb0bf9cb903cd9df30f0f25f215ad4c3e1fb6baf5610255565b6106de6102e77f0761a3e812087679e2748d24993af14664667aa3d713796c79507f2a63f8ed76610255565b61276582826132b3565b61276f828261300b565b6127fe61277a61026b565b6127a661037d7f2ba668f10abf878c8010155d539eb3cc30bb698f0062b1ed338c526fd12ac96d610255565b6127d26106ab7f2f4e05914ef7c1b2edf41c51266d3dc3e75c91b4c8dcefef873287120021ce0c610255565b6106de6102e77f29274bd37d7863d5ec7a82f28bce6cf183fffd4f8176ad07b158f1df83c64804610255565b61280882826132b3565b612812828261300b565b6128a061281d61026b565b61284961037d7f0c48fad80901003d9b0da5451971f8eee03e4c394ec29da5bf20a7bfad98e41b610255565b6128756106ab7f16cf2cf2b9da985924e713d6559192ca6128ccf71b4fc7c7ee0142d1c32f20d9610255565b6106de6102e77eb7d9233273de8b110605a3a7820c13cf7019bacf7e5882a85d5689f15c8cc1610255565b6128aa82826132b3565b6128b4828261300b565b6129436128bf61026b565b6128eb61037d7f0f291f5ae7e99aabc73894608962de3b6b76490754c0861de32a58b1cdb86e18610255565b6129176106ab7f253406b596a33f5cf4b7e83f26116eb40d9707911b4290b2af400d58d92cf210610255565b6106de6102e77f0812a4144d0d74bead1c5710d5239b640ccfc39fb66dab8eaf7cb3160fe35861610255565b61294d82826132b3565b612957828261300b565b6129e661296261026b565b61298e61037d7f2d81a6da9eebc5d5d239d13b961bdeebadcce19f0625de11a866bbcd0ef6f174610255565b6129ba6106ab7f1a22dafad979cab2f645899290eb4daccd04feef3155d88567324d23646f5064610255565b6106de6102e77f1bff73ae8dcaec7d09db8cdaf9ca7a9a5d685a1665855b0fd4ab9c15289f181a610255565b6129f082826132b3565b6129fa828261300b565b612a89612a0561026b565b612a3161037d7f0a16f8b0834ada0c92b57e0f3e79e31f4bc6c4fbfe1e1c8a22cce904c33ee709610255565b612a5d6106ab7f0ce7964c214c6389d581357e69009a141e16451def5e801d313bad966d99548e610255565b6106de6102e77f2825c06bf975dfd5e8466bee81947fc45b6a3e704dfe0350a04a9ed19293b3e0610255565b612a9382826132b3565b612a9d828261300b565b612b2c612aa861026b565b612ad461037d7f265917cf756c617609b958a33522fbaad9bdef1dfde2da8fc4d33b067058283f610255565b612b006106ab7f305a6987d779fbb9c92aad8c64fd4398a501b347cf24d3ac0374379c3b988e0c610255565b6106de6102e77f19ba5a328c09be61df3216db8ccfca1392a45d45ef73c6d0bbdf798f52b0caea610255565b612b3682826132b3565b612b40828261300b565b612bcf612b4b61026b565b612b7761037d7f0569057f32180f19cf467121a3ff492228542300b440840ead6ed63ff96fc92e610255565b612ba36106ab7f300ade0e02d409aa9cbd650c5018bf52c8aa6b46c3523664404942451cdfd7f3610255565b6106de6102e77f13e7afc3e5b8ae05421d3101c6dcd069e9730f8b9a4d28b707919627d82ed576610255565b612bd982826132b3565b612be3828261300b565b612c72612bee61026b565b612c1a61037d7f302cebb80f47bc0d048b047e3ec4370a824d7741209189d6fafb2e923c95f674610255565b612c466106ab7f0fec1e8606f9c19f09f3f6cbca8690f2a82c728121731c10b70a0a27425b7617610255565b6106de6102e77f01b36c8b38abe36f31c85dfa0a4223c2127f9e70d6cb00acca7b4b820c42b4f8610255565b612c7c8282612f09565b612c86828261300b565b612d15612c9161026b565b612cbd61037d7f1ae800dfd62a6f893226eaf46ed30630be2e658ca33bb2f8cb64a0ef6936167e610255565b612ce96106ab7f043f80240127ebfdfe64478e6b490c262943c0891c090e4f9e5da3a777397962610255565b6106de6102e77f284cc004329f4e38c3ca0e7b3148a180f6769757d97698a510f153ed07c0618b610255565b612d1f8282612f09565b612d29828261300b565b612db8612d3461026b565b612d6061037d7f0a18cfea20c4b70b9cfafbd495e4fb978527dd3adcbb2a1b51338f37b58eef02610255565b612d8c6106ab7f1bc11b2f6acc89e45bfc09641d1f50fe735abfd0fe6b4485e134afe45ad302a4610255565b6106de6102e77f27af048a94639f26777e999118a6a53c031cc694291d09c52dc41cfbf548c07f610255565b612dc28282612f09565b612dcc828261300b565b612e5b612dd761026b565b612e0361037d7f226ab5b34d54c58d1b8fdfa18c3718e0adb3382accc596eaaa90c06d43d6e8fd610255565b612e2f6106ab7f2434cc868807d7dc6385a67ab520f6908cd692288595b76156d7b1191d024617610255565b6106de6102e77f05f662504bc7e177ef21ed6b4d8ef9a3dce1e82b88b2d48c35c0e23b405a15cf610255565b612e658282612f09565b61300b565b634e487b7160e01b600052601260045260246000fd5b90612e896103f9565b82519293849381518415612f045784910882526020840180518392906020820151908615612f045760409187910896612ec460208701988952565b0195612ed96040612ed3895190565b93015190565b918615612f0457610061986105bf6103819661038160406105bf9b6105bf9861038197089a01998a52565b612e6a565b612f116103f9565b90918291612f1d835190565b84518315612f04578391098082528190808415612f0457612f3f918591098252565b84518151908415612f0457612f55918591098252565b602084018051808515612f045785910994612f7260208501968752565b8551808615612f0457612f86918791098752565b815190612f91875190565b8615612f045786612fa491604094098852565b0194612fae865190565b86518615612f045786604091612fc693099501948552565b8351808615612f0457612fda918791098552565b855190612fe5855190565b958015612f0457610061986105bf61038196610381610381946105bf9b6105bf98098a52565b6130136103f9565b9161301e6000610255565b83613027828252565b805193948594613035865190565b8515612f045785906130667f2042def740cbc01bd03583cf0100e59370229adafbd0f5b62d414e62a0000001610255565b9009908515612f045761307a918691088352565b81516020860191613089835190565b917f244b3ad628e5381f4a3c3448e1210245de26ee365b4b146cf2e9782ef4000001928715612f045787906130bd85610255565b9009908715612f04576130d1918891088552565b60406130db855190565b9701966130e6885190565b907f135b52945a13d9aa49b9b57c33cd568ba9ae5ce9ca4a2d06e7f3fbd4c6666667918815612f0457889061311a84610255565b9009908815612f045761312e918991088652565b602082019261313b878552565b8351906131468b5190565b8915612f04576131568a92610255565b9009908815612f045761316a918991088452565b825184518815612f0457889061317f84610255565b9009908815612f0457613193918991088452565b82519161319e895190565b927f285396b510feb022c442e4c2c1411ef84c2b4191bac53323b891a1fb48000001938915612f045789906131d286610255565b9009918915612f04576131eb8a6131f194604094088752565b01968752565b8551906131fc8a5190565b8815612f045761320c8992610255565b9009908715612f0457613220918891088652565b84519061322b845190565b8715612f045761323b8892610255565b9009908615612f045761324f918791088552565b83519061325a875190565b8615612f0457869061328b7f06e9c21069503b73ac9dc0d0edede80d4ee2d80a5a8834a709b290cbfdb6db6e610255565b9009958015612f0457610061986105bf61038196610381610381946105bf9b6105bf98088a52565b60006132bd6103f9565b9101906132c8825190565b82518415612f0457846000916132e093099201918252565b8051808415612f04576132f4918591098252565b8151906132ff815190565b918415612f0457610061946105bf936103819209825256fea26469706673582212207bda64e463f4ab7bf576647095084c0153d42eada80ef1468d58f54de914e3d764736f6c63430008190033",
  "linkReferences": {},
  "deployedLinkReferences": {}
}