{
  "_format": "hh-sol-artifact-1",
  "contractName": "RealDigital",
  "sourceName": "contracts/hamsa/drex-connect/RealDigital.sol",
  "abi": [
    {
      "inputs": [
        {
          "internalType": "string",
          "name": "_name",
          "type": "string"
        },
        {
          "internalType": "string",
          "name": "_symbol",
          "type": "string"
        },
        {
          "internalType": "address",
          "name": "_authority",
          "type": "address"
        }
      ],
      "stateMutability": "nonpayable",
      "type": "constructor"
    },
    {
      "inputs": [],
      "name": "AccessControlBadConfirmation",
      "type": "error"
    },
    {
      "inputs": [
        {
          "internalType": "address",
          "name": "account",
          "type": "address"
        },
        {
          "internalType": "bytes32",
          "name": "neededRole",
          "type": "bytes32"
        }
      ],
      "name": "AccessControlUnauthorizedAccount",
      "type": "error"
    },
    {
      "inputs": [
        {
          "internalType": "address",
          "name": "spender",
          "type": "address"
        },
        {
          "internalType": "uint256",
          "name": "allowance",
          "type": "uint256"
        },
        {
          "internalType": "uint256",
          "name": "needed",
          "type": "uint256"
        }
      ],
      "name": "ERC20InsufficientAllowance",
      "type": "error"
    },
    {
      "inputs": [
        {
          "internalType": "address",
          "name": "sender",
          "type": "address"
        },
        {
          "internalType": "uint256",
          "name": "balance",
          "type": "uint256"
        },
        {
          "internalType": "uint256",
          "name": "needed",
          "type": "uint256"
        }
      ],
      "name": "ERC20InsufficientBalance",
      "type": "error"
    },
    {
      "inputs": [
        {
          "internalType": "address",
          "name": "approver",
          "type": "address"
        }
      ],
      "name": "ERC20InvalidApprover",
      "type": "error"
    },
    {
      "inputs": [
        {
          "internalType": "address",
          "name": "receiver",
          "type": "address"
        }
      ],
      "name": "ERC20InvalidReceiver",
      "type": "error"
    },
    {
      "inputs": [
        {
          "internalType": "address",
          "name": "sender",
          "type": "address"
        }
      ],
      "name": "ERC20InvalidSender",
      "type": "error"
    },
    {
      "inputs": [
        {
          "internalType": "address",
          "name": "spender",
          "type": "address"
        }
      ],
      "name": "ERC20InvalidSpender",
      "type": "error"
    },
    {
      "inputs": [],
      "name": "EnforcedPause",
      "type": "error"
    },
    {
      "inputs": [],
      "name": "ExpectedPause",
      "type": "error"
    },
    {
      "anonymous": false,
      "inputs": [
        {
          "indexed": true,
          "internalType": "address",
          "name": "owner",
          "type": "address"
        },
        {
          "indexed": true,
          "internalType": "address",
          "name": "spender",
          "type": "address"
        },
        {
          "indexed": false,
          "internalType": "uint256",
          "name": "value",
          "type": "uint256"
        }
      ],
      "name": "Approval",
      "type": "event"
    },
    {
      "anonymous": false,
      "inputs": [
        {
          "indexed": true,
          "internalType": "address",
          "name": "member",
          "type": "address"
        }
      ],
      "name": "DisabledAccount",
      "type": "event"
    },
    {
      "anonymous": false,
      "inputs": [
        {
          "indexed": true,
          "internalType": "address",
          "name": "member",
          "type": "address"
        }
      ],
      "name": "EnabledAccount",
      "type": "event"
    },
    {
      "anonymous": false,
      "inputs": [
        {
          "indexed": true,
          "internalType": "address",
          "name": "wallet",
          "type": "address"
        },
        {
          "indexed": false,
          "internalType": "uint256",
          "name": "amount",
          "type": "uint256"
        }
      ],
      "name": "FrozenBalance",
      "type": "event"
    },
    {
      "anonymous": false,
      "inputs": [
        {
          "indexed": false,
          "internalType": "address",
          "name": "account",
          "type": "address"
        }
      ],
      "name": "Paused",
      "type": "event"
    },
    {
      "anonymous": false,
      "inputs": [
        {
          "indexed": true,
          "internalType": "bytes32",
          "name": "role",
          "type": "bytes32"
        },
        {
          "indexed": true,
          "internalType": "bytes32",
          "name": "previousAdminRole",
          "type": "bytes32"
        },
        {
          "indexed": true,
          "internalType": "bytes32",
          "name": "newAdminRole",
          "type": "bytes32"
        }
      ],
      "name": "RoleAdminChanged",
      "type": "event"
    },
    {
      "anonymous": false,
      "inputs": [
        {
          "indexed": true,
          "internalType": "bytes32",
          "name": "role",
          "type": "bytes32"
        },
        {
          "indexed": true,
          "internalType": "address",
          "name": "account",
          "type": "address"
        },
        {
          "indexed": true,
          "internalType": "address",
          "name": "sender",
          "type": "address"
        }
      ],
      "name": "RoleGranted",
      "type": "event"
    },
    {
      "anonymous": false,
      "inputs": [
        {
          "indexed": true,
          "internalType": "bytes32",
          "name": "role",
          "type": "bytes32"
        },
        {
          "indexed": true,
          "internalType": "address",
          "name": "account",
          "type": "address"
        },
        {
          "indexed": true,
          "internalType": "address",
          "name": "sender",
          "type": "address"
        }
      ],
      "name": "RoleRevoked",
      "type": "event"
    },
    {
      "anonymous": false,
      "inputs": [
        {
          "indexed": true,
          "internalType": "address",
          "name": "from",
          "type": "address"
        },
        {
          "indexed": true,
          "internalType": "address",
          "name": "to",
          "type": "address"
        },
        {
          "indexed": false,
          "internalType": "uint256",
          "name": "value",
          "type": "uint256"
        }
      ],
      "name": "Transfer",
      "type": "event"
    },
    {
      "anonymous": false,
      "inputs": [
        {
          "indexed": false,
          "internalType": "address",
          "name": "account",
          "type": "address"
        }
      ],
      "name": "Unpaused",
      "type": "event"
    },
    {
      "inputs": [],
      "name": "ACCESS_ROLE",
      "outputs": [
        {
          "internalType": "bytes32",
          "name": "",
          "type": "bytes32"
        }
      ],
      "stateMutability": "view",
      "type": "function"
    },
    {
      "inputs": [],
      "name": "BURNER_ROLE",
      "outputs": [
        {
          "internalType": "bytes32",
          "name": "",
          "type": "bytes32"
        }
      ],
      "stateMutability": "view",
      "type": "function"
    },
    {
      "inputs": [],
      "name": "DEFAULT_ADMIN_ROLE",
      "outputs": [
        {
          "internalType": "bytes32",
          "name": "",
          "type": "bytes32"
        }
      ],
      "stateMutability": "view",
      "type": "function"
    },
    {
      "inputs": [],
      "name": "FREEZER_ROLE",
      "outputs": [
        {
          "internalType": "bytes32",
          "name": "",
          "type": "bytes32"
        }
      ],
      "stateMutability": "view",
      "type": "function"
    },
    {
      "inputs": [],
      "name": "MINTER_ROLE",
      "outputs": [
        {
          "internalType": "bytes32",
          "name": "",
          "type": "bytes32"
        }
      ],
      "stateMutability": "view",
      "type": "function"
    },
    {
      "inputs": [],
      "name": "MOVER_ROLE",
      "outputs": [
        {
          "internalType": "bytes32",
          "name": "",
          "type": "bytes32"
        }
      ],
      "stateMutability": "view",
      "type": "function"
    },
    {
      "inputs": [],
      "name": "PAUSER_ROLE",
      "outputs": [
        {
          "internalType": "bytes32",
          "name": "",
          "type": "bytes32"
        }
      ],
      "stateMutability": "view",
      "type": "function"
    },
    {
      "inputs": [
        {
          "internalType": "address",
          "name": "owner",
          "type": "address"
        },
        {
          "internalType": "address",
          "name": "spender",
          "type": "address"
        }
      ],
      "name": "allowance",
      "outputs": [
        {
          "internalType": "uint256",
          "name": "",
          "type": "uint256"
        }
      ],
      "stateMutability": "view",
      "type": "function"
    },
    {
      "inputs": [
        {
          "internalType": "address",
          "name": "spender",
          "type": "address"
        },
        {
          "internalType": "uint256",
          "name": "amount",
          "type": "uint256"
        }
      ],
      "name": "approve",
      "outputs": [
        {
          "internalType": "bool",
          "name": "",
          "type": "bool"
        }
      ],
      "stateMutability": "nonpayable",
      "type": "function"
    },
    {
      "inputs": [
        {
          "internalType": "address",
          "name": "account",
          "type": "address"
        }
      ],
      "name": "balanceOf",
      "outputs": [
        {
          "internalType": "uint256",
          "name": "",
          "type": "uint256"
        }
      ],
      "stateMutability": "view",
      "type": "function"
    },
    {
      "inputs": [
        {
          "internalType": "uint256",
          "name": "amount",
          "type": "uint256"
        }
      ],
      "name": "burn",
      "outputs": [],
      "stateMutability": "nonpayable",
      "type": "function"
    },
    {
      "inputs": [
        {
          "internalType": "address",
          "name": "account",
          "type": "address"
        },
        {
          "internalType": "uint256",
          "name": "amount",
          "type": "uint256"
        }
      ],
      "name": "burnFrom",
      "outputs": [],
      "stateMutability": "nonpayable",
      "type": "function"
    },
    {
      "inputs": [],
      "name": "decimals",
      "outputs": [
        {
          "internalType": "uint8",
          "name": "",
          "type": "uint8"
        }
      ],
      "stateMutability": "view",
      "type": "function"
    },
    {
      "inputs": [
        {
          "internalType": "address",
          "name": "spender",
          "type": "address"
        },
        {
          "internalType": "uint256",
          "name": "subtractedValue",
          "type": "uint256"
        }
      ],
      "name": "decreaseAllowance",
      "outputs": [
        {
          "internalType": "bool",
          "name": "",
          "type": "bool"
        }
      ],
      "stateMutability": "nonpayable",
      "type": "function"
    },
    {
      "inputs": [
        {
          "internalType": "address",
          "name": "from",
          "type": "address"
        },
        {
          "internalType": "uint256",
          "name": "amount",
          "type": "uint256"
        }
      ],
      "name": "decreaseFrozenBalance",
      "outputs": [],
      "stateMutability": "nonpayable",
      "type": "function"
    },
    {
      "inputs": [
        {
          "internalType": "address",
          "name": "member",
          "type": "address"
        }
      ],
      "name": "disableAccount",
      "outputs": [],
      "stateMutability": "nonpayable",
      "type": "function"
    },
    {
      "inputs": [
        {
          "internalType": "address",
          "name": "member",
          "type": "address"
        }
      ],
      "name": "enableAccount",
      "outputs": [],
      "stateMutability": "nonpayable",
      "type": "function"
    },
    {
      "inputs": [
        {
          "internalType": "address",
          "name": "account",
          "type": "address"
        }
      ],
      "name": "frozenBalanceOf",
      "outputs": [
        {
          "internalType": "uint256",
          "name": "",
          "type": "uint256"
        }
      ],
      "stateMutability": "view",
      "type": "function"
    },
    {
      "inputs": [
        {
          "internalType": "bytes32",
          "name": "role",
          "type": "bytes32"
        }
      ],
      "name": "getRoleAdmin",
      "outputs": [
        {
          "internalType": "bytes32",
          "name": "",
          "type": "bytes32"
        }
      ],
      "stateMutability": "view",
      "type": "function"
    },
    {
      "inputs": [
        {
          "internalType": "address",
          "name": "account",
          "type": "address"
        }
      ],
      "name": "grantAdminRole",
      "outputs": [],
      "stateMutability": "nonpayable",
      "type": "function"
    },
    {
      "inputs": [
        {
          "internalType": "bytes32",
          "name": "role",
          "type": "bytes32"
        },
        {
          "internalType": "address",
          "name": "account",
          "type": "address"
        }
      ],
      "name": "grantRole",
      "outputs": [],
      "stateMutability": "nonpayable",
      "type": "function"
    },
    {
      "inputs": [
        {
          "internalType": "bytes32",
          "name": "role",
          "type": "bytes32"
        },
        {
          "internalType": "address",
          "name": "account",
          "type": "address"
        }
      ],
      "name": "hasRole",
      "outputs": [
        {
          "internalType": "bool",
          "name": "",
          "type": "bool"
        }
      ],
      "stateMutability": "view",
      "type": "function"
    },
    {
      "inputs": [
        {
          "internalType": "address",
          "name": "spender",
          "type": "address"
        },
        {
          "internalType": "uint256",
          "name": "addedValue",
          "type": "uint256"
        }
      ],
      "name": "increaseAllowance",
      "outputs": [
        {
          "internalType": "bool",
          "name": "",
          "type": "bool"
        }
      ],
      "stateMutability": "nonpayable",
      "type": "function"
    },
    {
      "inputs": [
        {
          "internalType": "address",
          "name": "from",
          "type": "address"
        },
        {
          "internalType": "uint256",
          "name": "amount",
          "type": "uint256"
        }
      ],
      "name": "increaseFrozenBalance",
      "outputs": [],
      "stateMutability": "nonpayable",
      "type": "function"
    },
    {
      "inputs": [
        {
          "internalType": "address",
          "name": "to",
          "type": "address"
        },
        {
          "internalType": "uint256",
          "name": "amount",
          "type": "uint256"
        }
      ],
      "name": "mint",
      "outputs": [],
      "stateMutability": "nonpayable",
      "type": "function"
    },
    {
      "inputs": [
        {
          "internalType": "address",
          "name": "from",
          "type": "address"
        },
        {
          "internalType": "address",
          "name": "to",
          "type": "address"
        },
        {
          "internalType": "uint256",
          "name": "amount",
          "type": "uint256"
        }
      ],
      "name": "move",
      "outputs": [],
      "stateMutability": "nonpayable",
      "type": "function"
    },
    {
      "inputs": [
        {
          "internalType": "address",
          "name": "from",
          "type": "address"
        },
        {
          "internalType": "uint256",
          "name": "amount",
          "type": "uint256"
        }
      ],
      "name": "moveAndBurn",
      "outputs": [],
      "stateMutability": "nonpayable",
      "type": "function"
    },
    {
      "inputs": [],
      "name": "name",
      "outputs": [
        {
          "internalType": "string",
          "name": "",
          "type": "string"
        }
      ],
      "stateMutability": "view",
      "type": "function"
    },
    {
      "inputs": [],
      "name": "pause",
      "outputs": [],
      "stateMutability": "nonpayable",
      "type": "function"
    },
    {
      "inputs": [],
      "name": "paused",
      "outputs": [
        {
          "internalType": "bool",
          "name": "",
          "type": "bool"
        }
      ],
      "stateMutability": "view",
      "type": "function"
    },
    {
      "inputs": [
        {
          "internalType": "bytes32",
          "name": "role",
          "type": "bytes32"
        },
        {
          "internalType": "address",
          "name": "callerConfirmation",
          "type": "address"
        }
      ],
      "name": "renounceRole",
      "outputs": [],
      "stateMutability": "nonpayable",
      "type": "function"
    },
    {
      "inputs": [
        {
          "internalType": "bytes32",
          "name": "role",
          "type": "bytes32"
        },
        {
          "internalType": "address",
          "name": "account",
          "type": "address"
        }
      ],
      "name": "revokeRole",
      "outputs": [],
      "stateMutability": "nonpayable",
      "type": "function"
    },
    {
      "inputs": [
        {
          "internalType": "address",
          "name": "caller",
          "type": "address"
        },
        {
          "internalType": "address",
          "name": "account",
          "type": "address"
        }
      ],
      "name": "safeBalanceOf",
      "outputs": [
        {
          "internalType": "uint256",
          "name": "",
          "type": "uint256"
        }
      ],
      "stateMutability": "view",
      "type": "function"
    },
    {
      "inputs": [
        {
          "internalType": "bytes4",
          "name": "interfaceId",
          "type": "bytes4"
        }
      ],
      "name": "supportsInterface",
      "outputs": [
        {
          "internalType": "bool",
          "name": "",
          "type": "bool"
        }
      ],
      "stateMutability": "view",
      "type": "function"
    },
    {
      "inputs": [],
      "name": "symbol",
      "outputs": [
        {
          "internalType": "string",
          "name": "",
          "type": "string"
        }
      ],
      "stateMutability": "view",
      "type": "function"
    },
    {
      "inputs": [],
      "name": "totalSupply",
      "outputs": [
        {
          "internalType": "uint256",
          "name": "",
          "type": "uint256"
        }
      ],
      "stateMutability": "view",
      "type": "function"
    },
    {
      "inputs": [
        {
          "internalType": "address",
          "name": "to",
          "type": "address"
        },
        {
          "internalType": "uint256",
          "name": "amount",
          "type": "uint256"
        }
      ],
      "name": "transfer",
      "outputs": [
        {
          "internalType": "bool",
          "name": "",
          "type": "bool"
        }
      ],
      "stateMutability": "nonpayable",
      "type": "function"
    },
    {
      "inputs": [
        {
          "internalType": "address",
          "name": "from",
          "type": "address"
        },
        {
          "internalType": "address",
          "name": "to",
          "type": "address"
        },
        {
          "internalType": "uint256",
          "name": "amount",
          "type": "uint256"
        }
      ],
      "name": "transferFrom",
      "outputs": [
        {
          "internalType": "bool",
          "name": "",
          "type": "bool"
        }
      ],
      "stateMutability": "nonpayable",
      "type": "function"
    },
    {
      "inputs": [],
      "name": "unpause",
      "outputs": [],
      "stateMutability": "nonpayable",
      "type": "function"
    },
    {
      "inputs": [
        {
          "internalType": "address",
          "name": "account",
          "type": "address"
        }
      ],
      "name": "verifyAccount",
      "outputs": [
        {
          "internalType": "bool",
          "name": "",
          "type": "bool"
        }
      ],
      "stateMutability": "view",
      "type": "function"
    }
  ],
  "bytecode": "0x60806040523461002b5761001a61001461018c565b916101af565b604051611ec66106f68239611ec690f35b600080fd5b634e487b7160e01b600052604160045260246000fd5b90601f01601f191681019081106001600160401b0382111761006757604052565b610030565b9061008061007960405190565b9283610046565b565b6001600160401b03811161006757602090601f01601f19160190565b60005b8381106100b15750506000910152565b81810151838201526020016100a1565b909291926100d66100d182610082565b61006c565b938185528183011161002b5761008091602085019061009e565b9080601f8301121561002b57815161010a926020016100c1565b90565b6001600160a01b031690565b6001600160a01b0381160361002b57565b9050519061008082610119565b909160608284031261002b5781516001600160401b03811161002b578361015f9184016100f0565b602083015190936001600160401b03821161002b5760406101858261010a9487016100f0565b940161012a565b6101aa6125bc8038038061019f8161006c565b928339810190610137565b909192565b610080926101e2565b9060ff905b9181191691161790565b906101d761010a6101de92151590565b82546101b8565b9055565b906101ed9291610210565b610080600060076101c7565b61010a61010a61010a9290565b61010a60006101f9565b9161021a91610374565b610222610206565b61022c338261059a565b507f7def632d64a7259044c921303d544f945a340c8d4334adc0e0bd830a54deb52891610259818461059a565b50817f9f2df0fed2c77648de5860a4cc508cd0818c85b8b8a1ab4ceeef8d981c8956a6610286838261059a565b50817f3c11d16cbaffd01df69ce1c404f6340ee057498f5f00246190ea54220576a8486102b3858261059a565b50817fe5ed70e23144309ce456cb48bf5e6d0d8e160f094a6d65ecf1d5b03cf292d8e6936102e1878661059a565b507f92de27771f92d6942691d73358b3a4673e4880de8356f8f2cf452be87e02d3639661030e908861059a565b50817f65d7a28e3265b37a6474929f336521b332c1681b933f6cb9f3376673440d862a998161033d338d61059a565b5061034791610649565b61035091610649565b61035991610649565b61036291610649565b61036b91610649565b61008091610649565b61008091829182918291610544565b634e487b7160e01b600052602260045260246000fd5b90600160028304921680156103b9575b60208310146103b457565b610383565b91607f16916103a9565b9160001960089290920291821b911b6101bd565b91906103e861010a6101de936101f9565b9083546103c3565b610080916000916103d7565b818110610407575050565b8061041560006001936103f0565b016103fc565b9190601f811161042a57505050565b61043c61008093600052602060002090565b906020601f84018190048301931061045e575b6020601f9091010401906103fc565b909150819061044f565b90610471815190565b906001600160401b038211610067576104948261048e8554610399565b8561041b565b602090601f83116001146104cf576101de9291600091836104c4575b5050600019600883021c1916906002021790565b0151905038806104b0565b601f198316916104e485600052602060002090565b9260005b81811061052257509160029391856001969410610509575b50505002019055565b01516000196008601f8516021c19169055388080610500565b919360206001819287870151815501950192016104e8565b9061008091610468565b9061055361008092600361053a565b600461053a565b905b600052602052604060002090565b61010a9061010d906001600160a01b031682565b61010a9061056a565b61010a9061057e565b9061055c90610587565b6105ab6105a783836106a9565b1590565b15610623576105d160016105cc8460006105c686600561055a565b01610590565b6101c7565b6105ef6105e96105e3339390565b9390565b93610587565b91610587565b917f2f8788117e7eff1d82e926ec794901d17c78024a50270940304540a733656f0d61061a60405190565b600090a4600190565b5050600090565b90600019906101bd565b9061064261010a6101de9290565b825461062a565b906106786106746105df61065c856106de565b9461010a85600161066e84600561055a565b01610634565b9190565b917fbd79b86ffe0ab8e8776151514217cd7cacd52c909f66475c3af44e129f0b00ff6106a360405190565b600090a4565b61010a9160006105c66106c6936106be600090565b50600561055a565b5460ff1690565b61010a9081565b61010a90546106cd565b60016106ef61010a926106be600090565b016106d456fe6080604052600436101561001257600080fd5b60003560e01c806301ffc9a71461029257806306a85f0f1461028d57806306fdde0314610288578063095ea7b31461028357806316df06c41461027e57806318160ddd146102795780631a3f51521461027457806323b872dd1461026f578063248a9ca31461026a578063282c51f314610265578063286041bd146102605780632b218c6a1461025b5780632f2ff15d14610256578063313ce5671461025157806336568abe1461024c57806339509351146102475780633f4ba83a1461024257806340c10f191461023d57806342966c681461023857806356b855aa146102335780635c975abb1461022e57806370a082311461022957806379cc6790146102245780638456cb591461021f57806384b615811461021a5780638c79ba3a1461021557806391d148541461021057806395d89b411461020b578063a217fddf14610206578063a457c2d714610201578063a9059cbb146101fc578063b4a4ed39146101f7578063bb35783b146101f2578063be91de53146101ed578063c634b78e146101e8578063d5391393146101e3578063d547741f146101de578063dd62ed3e146101d9578063e63ab1e9146101d45763f16dfbe9036102aa57610956565b61091d565b610901565b6108e8565b6108af565b610897565b61087c565b610863565b61084a565b61082e565b610812565b6107f7565b6107bd565b6107a1565b610789565b610771565b610759565b610740565b610725565b6106f6565b6106bd565b6106a5565b61068c565b610674565b610658565b61063f565b610610565b6105f7565b6105c2565b610589565b610550565b610535565b610505565b6104be565b6104a3565b610487565b610448565b6103c3565b610311565b6102d5565b6001600160e01b031981165b036102aa57565b600080fd5b905035906102bc82610297565b565b906020828203126102aa576102d2916102af565b90565b346102aa576103026102f06102eb3660046102be565b610971565b60405191829182901515815260200190565b0390f35b60009103126102aa57565b346102aa57610321366004610306565b6103027f92de27771f92d6942691d73358b3a4673e4880de8356f8f2cf452be87e02d3635b6040515b9182918290815260200190565b60005b83811061036a5750506000910152565b818101518382015260200161035a565b61039b6103a46020936103ae9361038f815190565b80835293849260200190565b95869101610357565b601f01601f191690565b0190565b60208082526102d29291019061037a565b346102aa576103d3366004610306565b6103026103de610ae0565b604051918291826103b2565b6001600160a01b031690565b6001600160a01b0381166102a3565b905035906102bc826103f6565b806102a3565b905035906102bc82610412565b91906040838203126102aa576102d29060206104418286610405565b9401610418565b346102aa576103026102f061045e366004610425565b90610b73565b91906040838203126102aa576102d29060206104808286610405565b9401610405565b346102aa5761030261034661049d366004610464565b90610c08565b346102aa576104b3366004610306565b610302610346610c25565b346102aa576104d76104d1366004610425565b90610cb8565b604051005b90916060828403126102aa576102d26104f58484610405565b9360406104418260208701610405565b346102aa576103026102f061051b3660046104dc565b91610e3d565b906020828203126102aa576102d291610418565b346102aa5761030261034661054b366004610521565b610e5a565b346102aa57610560366004610306565b6103027f3c11d16cbaffd01df69ce1c404f6340ee057498f5f00246190ea54220576a848610346565b346102aa57610599366004610306565b6103027fe5ed70e23144309ce456cb48bf5e6d0d8e160f094a6d65ecf1d5b03cf292d8e6610346565b346102aa576104d76105d5366004610425565b90610f72565b91906040838203126102aa576102d29060206104808286610418565b346102aa576104d761060a3660046105db565b90610f9a565b346102aa57610620366004610306565b61030261062b610fb7565b6040519182918260ff909116815260200190565b346102aa576104d76106523660046105db565b90610fc1565b346102aa576103026102f061066e366004610425565b9061107f565b346102aa57610684366004610306565b6104d76110ca565b346102aa576104d761069f366004610425565b90611146565b346102aa576104d76106b8366004610521565b6111a3565b346102aa576106cd366004610306565b6103027f7def632d64a7259044c921303d544f945a340c8d4334adc0e0bd830a54deb528610346565b346102aa57610706366004610306565b6103026102f06111bf565b906020828203126102aa576102d291610405565b346102aa5761030261034661073b366004610711565b6111c9565b346102aa576104d7610753366004610425565b90611270565b346102aa57610769366004610306565b6104d76112b9565b346102aa576104d7610784366004610711565b611362565b346102aa576104d761079c366004610711565b6113d6565b346102aa576103026102f06107b73660046105db565b906113df565b346102aa576107cd366004610306565b6103026103de6113ff565b6102d26102d26102d29290565b6102d260006107d8565b6102d26107e5565b346102aa57610807366004610306565b6103026103466107ef565b346102aa576103026102f0610828366004610425565b906114ab565b346102aa576103026102f0610844366004610425565b9061154a565b346102aa576104d761085d366004610425565b9061164c565b346102aa576104d76108763660046104dc565b916116a9565b346102aa57610302610346610892366004610711565b6116b4565b346102aa576104d76108aa366004610711565b6116eb565b346102aa576108bf366004610306565b6103027f9f2df0fed2c77648de5860a4cc508cd0818c85b8b8a1ab4ceeef8d981c8956a6610346565b346102aa576104d76108fb3660046105db565b9061170f565b346102aa57610302610346610917366004610464565b90611719565b346102aa5761092d366004610306565b6103027f65d7a28e3265b37a6474929f336521b332c1681b933f6cb9f3376673440d862a610346565b346102aa576103026102f061096c366004610711565b611734565b637965db0b60e01b6001600160e01b0319821614908115610990575090565b6102d291506001600160e01b0319166301ffc9a760e01b1490565b634e487b7160e01b600052602260045260246000fd5b90600160028304921680156109e1575b60208310146109dc57565b6109ab565b91607f16916109d1565b80546000939291610a086109fe836109c1565b8085529360200190565b9160018116908115610a5a5750600114610a2157505050565b610a349192939450600052602060002090565b916000925b818410610a465750500190565b805484840152602090930192600101610a39565b92949550505060ff1916825215156020020190565b906102d2916109eb565b634e487b7160e01b600052604160045260246000fd5b90601f01601f1916810190811067ffffffffffffffff821117610ab157604052565b610a79565b906102bc610ad092610ac760405190565b93848092610a6f565b0383610a8f565b6102d290610ab6565b6102d26003610ad7565b906102d29291610af861174b565b610b51565b15610b0457565b60405162461bcd60e51b815280610b4d600482016020808252818101527f53656e646572206163636f756e74206973206e6f7420617574686f72697a6564604082015260600190565b0390fd5b50610b6e9190610b68610b6333611734565b610afd565b3361176b565b600190565b6102d291906000610aea565b15610b8657565b60405162461bcd60e51b815260206004820152600d60248201526c1058d8d95cdcc819195b9a5959609a1b6044820152606490fd5b906102d29291610bd282610bcd6107e5565b6113df565b8015610be7575b610be290610b7f565b610bfc565b506001600160a01b0382811690841614610bd9565b6102d292915050611778565b6102d291906000610bbb565b6102d29081565b6102d29054610c14565b6102d26002610c1b565b906102bc91610c3c61174b565b6102bc9190610c6f7fe5ed70e23144309ce456cb48bf5e6d0d8e160f094a6d65ecf1d5b03cf292d8e661178f565b61178f565b610c9a565b6102d2906103ea906001600160a01b031682565b6102d290610c74565b6102d290610c88565b906102bc91610cb382610cac30610c91565b80936116a9565b61179a565b906102bc91610c2f565b906102d2939291610cd161174b565b610dbb565b15610cdd57565b60405162461bcd60e51b815260206004820152602860248201527f45524332303a207472616e7366657220616d6f756e74206578636565647320616044820152676c6c6f77616e636560c01b6064820152608490fd5b15610d3a57565b60405162461bcd60e51b815260206004820152602b60248201527f4569746865722066726f6d206f7220746f206163636f756e74206973206e6f7460448201526a08185d5d1a1bdc9a5e995960aa1b6064820152608490fd5b634e487b7160e01b600052601160045260246000fd5b91908203918211610db657565b610d93565b92610dff81610e0e9394610b6e9650610de1610dd73388611719565b83905b1015610cd6565b610dea86611734565b80610e29575b610df990610d33565b856116a9565b610e093384611719565b610da9565b90610e22610e1c60006107d8565b83610dda565b339061176b565b50610df9610e3682611734565b9050610df0565b6102d29291906000610cc2565b905b600052602052604060002090565b6001610e736102d292610e6b600090565b506005610e4a565b01610c1b565b906102bc91610e8661174b565b6102bc9190610eb47f92de27771f92d6942691d73358b3a4673e4880de8356f8f2cf452be87e02d36361178f565b610efb565b90610e4c90610c91565b91908201809211610db657565b90600019905b9181191691161790565b90610ef06102d2610ef7926107d8565b8254610ed0565b9055565b90610f2390610f1d610f0e846008610eb9565b91610f1883610c1b565b610ec3565b90610ee0565b7fd2dc74064ce9979876047afc7922931592038bce8a7fbaf28417799c138e4e4d610f6d610f63610f5d610f58856008610eb9565b610c1b565b93610c91565b9261034a60405190565b0390a2565b906102bc91610e79565b906102bc91610f8d610c6a82610e5a565b90610f97916117fc565b50565b906102bc91610f7c565b610fb16102d26102d29290565b60ff1690565b6102d26002610fa4565b90610fcb336103ea565b6001600160a01b03821603610fe357610f9791611877565b60405163334bd91960e11b8152600490fd5b906102d2929161100361174b565b611054565b1561100f57565b60405162461bcd60e51b815260206004820152601960248201527f4163636f756e74206973206e6f7420617574686f72697a6564000000000000006044820152606490fd5b50610b6e916110789061106e61106933611734565b611008565b610f188333611719565b903361176b565b6102d291906000610ff5565b6110936118d4565b6102bc6110bf7f65d7a28e3265b37a6474929f336521b332c1681b933f6cb9f3376673440d862a61178f565b6102bc6102bc611953565b6102bc61108b565b906102bc916110df61174b565b6102bc919061110d7f9f2df0fed2c77648de5860a4cc508cd0818c85b8b8a1ab4ceeef8d981c8956a661178f565b611128565b6103ea6102d26102d29290565b6102d290611112565b906102bc91611141828261113c600061111f565b611ac4565b611acf565b906102bc916110d2565b6102bc9061117d7f3c11d16cbaffd01df69ce1c404f6340ee057498f5f00246190ea54220576a84861178f565b6102bc9061118961174b565b6102bc90335b610cb38261119d600061111f565b83611ac4565b6102bc90611150565b6102d290610fb1565b6102d290546111ac565b6102d260076111b5565b6102d29033610c08565b906102bc916111e061174b565b61123d565b156111ec57565b60405162461bcd60e51b8152602060048201526024808201527f45524332303a206275726e20616d6f756e74206578636565647320616c6c6f77604482015263616e636560e01b6064820152608490fd5b6102bc919061118f3361125b6112538285611719565b8511156111e5565b61126984610e098386611719565b908361176b565b906102bc916111d3565b61128261174b565b6102bc6112ae7f65d7a28e3265b37a6474929f336521b332c1681b933f6cb9f3376673440d862a61178f565b6102bc6102bc611b71565b6102bc61127a565b6102bc906112ee7f7def632d64a7259044c921303d544f945a340c8d4334adc0e0bd830a54deb52861178f565b611313565b9060ff90610ed6565b9061130c6102d2610ef792151590565b82546112f3565b6113319061132c6001611327836006610eb9565b6112fc565b610c91565b7f0211b3717a1e4e9d5dbd306d57337bd16341444ff1a3ca9d920060322b1aa64061135b60405190565b8080610f6d565b6102bc906112c1565b6102bc906113987f7def632d64a7259044c921303d544f945a340c8d4334adc0e0bd830a54deb52861178f565b6113ac9061132c6000611327836006610eb9565b7fa1505d69e69c406db19c16f3ec0bf25ae47eefb6ae68ab936d75df946fcd14cf61135b60405190565b6102bc9061136b565b6102d29160006113f46113fa93610e6b600090565b01610eb9565b6111b5565b6102d26004610ad7565b906102d2929161141761174b565b611476565b1561142357565b60405162461bcd60e51b815260206004820152602560248201527f45524332303a2064656372656173656420616c6c6f77616e63652062656c6f77604482015264207a65726f60d81b6064820152608490fd5b50610b6e916114959061148b61106933611734565b610e098333611719565b90610b686114a360006107d8565b83101561141c565b6102d291906000611409565b906102d292916114c561174b565b611521565b156114d157565b60405162461bcd60e51b815260206004820152602260248201527f5265636569766572206163636f756e74206973206e6f7420617574686f72697a604482015261195960f21b6064820152608490fd5b50610b6e9190611533610b6333611734565b61154461153f82611734565b6114ca565b336116a9565b6102d2919060006114b7565b906102bc9161156361174b565b6102bc91906115917f92de27771f92d6942691d73358b3a4673e4880de8356f8f2cf452be87e02d36361178f565b6115e2565b1561159d57565b60405162461bcd60e51b815260206004820152601c60248201527f46726f7a656e2062616c616e6365206973206e6f7420656e6f756768000000006044820152606490fd5b90610f6d610f63610f5d610f58857fd2dc74064ce9979876047afc7922931592038bce8a7fbaf28417799c138e4e4d95611647600891611630611628610f588686610eb9565b821115611596565b610f1d61163d8585610eb9565b91610e0983610c1b565b610eb9565b906102bc91611556565b906102bc929161166461174b565b6102bc9291906116937fe5ed70e23144309ce456cb48bf5e6d0d8e160f094a6d65ecf1d5b03cf292d8e661178f565b906102bc92916116a4838383611ac4565b611b79565b906102bc9291611656565b610f586102d2916116c3600090565b506008610eb9565b6102bc906116da610c6a6107e5565b610f97906116e66107e5565b6117fc565b6102bc906116cb565b906102bc91611705610c6a82610e5a565b90610f9791611877565b906102bc916116f4565b6102d291611647610f589261172c600090565b506001610eb9565b6113fa6102d291611743600090565b506006610eb9565b6117536111bf565b61175957565b60405163d93c066560e01b8152600490fd5b916001916102bc93611bde565b610f586102d291611787600090565b506000610eb9565b6102bc903390611d01565b91906117a6600061111f565b926001600160a01b0384166001600160a01b038216146117cb57926102bc9293611d60565b610b4d846117d860405190565b634b637e8f60e11b8152918291600483016001600160a01b03909116815260200190565b61180d61180983836113df565b1590565b156118705761182860016113278460006113f4866005610e4a565b61183c611836610f5d339390565b91610c91565b917f2f8788117e7eff1d82e926ec794901d17c78024a50270940304540a733656f0d61186760405190565b600090a4600190565b5050600090565b61188182826113df565b156118705761189b600061132784826113f4866005610e4a565b6118a9611836610f5d339390565b917ff6391f5c32d9c69d2a47ea670b442974b53935d1edc7fd64eb21e047a839171b61186760405190565b6118df6118096111bf565b6118e557565b604051638dfc202b60e01b8152600490fd5b6118ff6118d4565b6102bc61190e600060076112fc565b7f5db9ee0a495bf2e6ff9c91a7834c1ba4fdd244a5e8aa4e537bd38aeae4b073aa61194e335b604051918291826001600160a01b03909116815260200190565b0390a1565b6102bc6118f7565b906102bc929161196961174b565b6119c4565b1561197557565b60405162461bcd60e51b815260206004820152602160248201527f5265616c4469676974616c3a20696e73756666696369656e742062616c616e636044820152606560f81b6064820152608490fd5b906102bc92916119d76103ea600061111f565b6001600160a01b03821614611a0d57611a0d611a056119f68380610c08565b6119ff846116b4565b90610da9565b84111561196e565b9150611a19600061111f565b6001600160a01b0381166001600160a01b03841614158080611aa8575b15611a66575050611a496102bc92611734565b9081611a56575b50610b7f565b611a609150611734565b38611a50565b15611a7e575050611a796102bc91611734565b610b7f565b9091506001600160a01b03166001600160a01b03821603611a9c5750565b611a796102bc91611734565b506001600160a01b0382166001600160a01b0384161415611a36565b906102bc929161195b565b9190611adb600061111f565b926001600160a01b0384166001600160a01b03821614611aff576102bc9293611d60565b610b4d84611b0c60405190565b63ec442f0560e01b8152918291600483016001600160a01b03909116815260200190565b611b3861174b565b6102bc611b47600160076112fc565b7f62e78cea01bee320cd4e420270b5ea74000d11b0c9f74754ebdbfc544b05a25861194e33611934565b6102bc611b30565b929190611b86600061111f565b936001600160a01b0385166001600160a01b03821614611bd1576001600160a01b0385166001600160a01b03831614611bc4576102bc939450611d60565b610b4d85611b0c60405190565b610b4d856117d860405190565b909192611beb600061111f565b6001600160a01b0381166001600160a01b03841614611caf576001600160a01b0381166001600160a01b03851614611c7e5750611c3684611c3185611647866001610eb9565b610ee0565b611c3f57505050565b611c79611c6f610f5d7f8c5be1e5ebec7d5bd14f71427d1e84f3dd0314c0f7b2291e5b200ac8c7c3b92593610c91565b9361034a60405190565b0390a3565b610b4d90611c8b60405190565b634a1406b160e11b8152918291600483016001600160a01b03909116815260200190565b610b4d90611cbc60405190565b63e602df0560e01b8152918291600483016001600160a01b03909116815260200190565b6001600160a01b0390911681526040810192916102bc9160200152565b0152565b90611d0f61180982846113df565b611d17575050565b610b4d611d2360405190565b63e2517d3f60e01b815292839260048401611ce0565b6001600160a01b0390911681526060810193926102bc929091604091611cfd906020830152565b816000611d6c8161111f565b6001600160a01b0381166001600160a01b03851603611e0e577fddf252ad1be2c89b69c2b068fc378daa952ba7f163c4a11628f55a4df523b3ef93611c7993611c6f93611dce610f5d946103ea611dc78c610f186002610c1b565b6002610ee0565b6001600160a01b03831603611df457505061132c611dc788611df06002610c1b565b0390565b61132c91611e0191610eb9565b610f1d896103ae83610c1b565b909150611e1e610f588484610eb9565b858110611e6c577fddf252ad1be2c89b69c2b068fc378daa952ba7f163c4a11628f55a4df523b3ef9385611c7994611dce611c6f956103ea611e628c610f5d980390565b611c318786610eb9565b83610b4d87611e7a60405190565b63391434e360e21b815293849360048501611d3956fea2646970667358221220352f5422d2d0214fd51c2cc50e9bdcd9b34325fb8a5224d511a8cefa4d62093964736f6c63430008190033",
  "linkReferences": {},
  "deployedLinkReferences": {}
}