{
  "_format": "hh-sol-artifact-1",
  "contractName": "AddressDiscovery",
  "sourceName": "contracts/hamsa/drex-connect/AddressDiscovery.sol",
  "abi": [
    {
      "inputs": [
        {
          "internalType": "address",
          "name": "_authority",
          "type": "address"
        }
      ],
      "stateMutability": "nonpayable",
      "type": "constructor"
    },
    {
      "inputs": [],
      "name": "AccessControlBadConfirmation",
      "type": "error"
    },
    {
      "inputs": [
        {
          "internalType": "address",
          "name": "account",
          "type": "address"
        },
        {
          "internalType": "bytes32",
          "name": "neededRole",
          "type": "bytes32"
        }
      ],
      "name": "AccessControlUnauthorizedAccount",
      "type": "error"
    },
    {
      "anonymous": false,
      "inputs": [
        {
          "indexed": true,
          "internalType": "bytes32",
          "name": "role",
          "type": "bytes32"
        },
        {
          "indexed": true,
          "internalType": "bytes32",
          "name": "previousAdminRole",
          "type": "bytes32"
        },
        {
          "indexed": true,
          "internalType": "bytes32",
          "name": "newAdminRole",
          "type": "bytes32"
        }
      ],
      "name": "RoleAdminChanged",
      "type": "event"
    },
    {
      "anonymous": false,
      "inputs": [
        {
          "indexed": true,
          "internalType": "bytes32",
          "name": "role",
          "type": "bytes32"
        },
        {
          "indexed": true,
          "internalType": "address",
          "name": "account",
          "type": "address"
        },
        {
          "indexed": true,
          "internalType": "address",
          "name": "sender",
          "type": "address"
        }
      ],
      "name": "RoleGranted",
      "type": "event"
    },
    {
      "anonymous": false,
      "inputs": [
        {
          "indexed": true,
          "internalType": "bytes32",
          "name": "role",
          "type": "bytes32"
        },
        {
          "indexed": true,
          "internalType": "address",
          "name": "account",
          "type": "address"
        },
        {
          "indexed": true,
          "internalType": "address",
          "name": "sender",
          "type": "address"
        }
      ],
      "name": "RoleRevoked",
      "type": "event"
    },
    {
      "inputs": [],
      "name": "ACCESS_ROLE",
      "outputs": [
        {
          "internalType": "bytes32",
          "name": "",
          "type": "bytes32"
        }
      ],
      "stateMutability": "view",
      "type": "function"
    },
    {
      "inputs": [],
      "name": "DEFAULT_ADMIN_ROLE",
      "outputs": [
        {
          "internalType": "bytes32",
          "name": "",
          "type": "bytes32"
        }
      ],
      "stateMutability": "view",
      "type": "function"
    },
    {
      "inputs": [
        {
          "internalType": "bytes32",
          "name": "",
          "type": "bytes32"
        }
      ],
      "name": "addressDiscovery",
      "outputs": [
        {
          "internalType": "address",
          "name": "",
          "type": "address"
        }
      ],
      "stateMutability": "view",
      "type": "function"
    },
    {
      "inputs": [
        {
          "internalType": "bytes32",
          "name": "role",
          "type": "bytes32"
        }
      ],
      "name": "getRoleAdmin",
      "outputs": [
        {
          "internalType": "bytes32",
          "name": "",
          "type": "bytes32"
        }
      ],
      "stateMutability": "view",
      "type": "function"
    },
    {
      "inputs": [
        {
          "internalType": "bytes32",
          "name": "role",
          "type": "bytes32"
        },
        {
          "internalType": "address",
          "name": "account",
          "type": "address"
        }
      ],
      "name": "grantRole",
      "outputs": [],
      "stateMutability": "nonpayable",
      "type": "function"
    },
    {
      "inputs": [
        {
          "internalType": "bytes32",
          "name": "role",
          "type": "bytes32"
        },
        {
          "internalType": "address",
          "name": "account",
          "type": "address"
        }
      ],
      "name": "hasRole",
      "outputs": [
        {
          "internalType": "bool",
          "name": "",
          "type": "bool"
        }
      ],
      "stateMutability": "view",
      "type": "function"
    },
    {
      "inputs": [
        {
          "internalType": "bytes32",
          "name": "role",
          "type": "bytes32"
        },
        {
          "internalType": "address",
          "name": "callerConfirmation",
          "type": "address"
        }
      ],
      "name": "renounceRole",
      "outputs": [],
      "stateMutability": "nonpayable",
      "type": "function"
    },
    {
      "inputs": [
        {
          "internalType": "bytes32",
          "name": "role",
          "type": "bytes32"
        },
        {
          "internalType": "address",
          "name": "account",
          "type": "address"
        }
      ],
      "name": "revokeRole",
      "outputs": [],
      "stateMutability": "nonpayable",
      "type": "function"
    },
    {
      "inputs": [
        {
          "internalType": "bytes4",
          "name": "interfaceId",
          "type": "bytes4"
        }
      ],
      "name": "supportsInterface",
      "outputs": [
        {
          "internalType": "bool",
          "name": "",
          "type": "bool"
        }
      ],
      "stateMutability": "view",
      "type": "function"
    },
    {
      "inputs": [
        {
          "internalType": "bytes32",
          "name": "smartContract",
          "type": "bytes32"
        },
        {
          "internalType": "address",
          "name": "newAddress",
          "type": "address"
        }
      ],
      "name": "updateAddress",
      "outputs": [],
      "stateMutability": "nonpayable",
      "type": "function"
    }
  ],
  "bytecode": "0x60806040523461002a576100196100146100c2565b61011e565b6040516106a861037282396106a890f35b600080fd5b634e487b7160e01b600052604160045260246000fd5b90601f01601f191681019081106001600160401b0382111761006657604052565b61002f565b9061007f61007860405190565b9283610045565b565b6001600160a01b031690565b90565b6001600160a01b0381160361002a57565b9050519061007f82610090565b9060208282031261002a5761008d916100a1565b61008d610a1a803803806100d58161006b565b9283398101906100ae565b61008d61008d61008d9290565b61008d60006100e0565b61010a906001600160a01b031660601b90565b9052565b61011a816014936100f7565b0190565b61019e9061013461012d6100ed565b339061020b565b507f7def632d64a7259044c921303d544f945a340c8d4334adc0e0bd830a54deb52861019961016260405190565b6101808160208101610174878261010e565b90810382520382610045565b61019261018b825190565b9160200190565b20826102b9565b61020b565b50565b905b600052602052604060002090565b61008d90610081906001600160a01b031682565b61008d906101b1565b61008d906101c5565b906101a3906101ce565b9060ff905b9181191691161790565b9061020061008d61020792151590565b82546101e1565b9055565b61021c6102188383610320565b1590565b1561029357610241600161023c84600061023686826101a1565b016101d7565b6101f0565b61025f610259610253339390565b9390565b936101ce565b916101ce565b917f2f8788117e7eff1d82e926ec794901d17c78024a50270940304540a733656f0d61028a60405190565b600090a4600190565b5050600090565b90600019906101e6565b906102b261008d6102079290565b825461029a565b906102e86102e461024f6102cc85610352565b9461008d8560016102de8460006101a1565b016102a4565b9190565b917fbd79b86ffe0ab8e8776151514217cd7cacd52c909f66475c3af44e129f0b00ff61031360405190565b600090a4565b5460ff1690565b61008d91600061023661033c93610335600090565b50826101a1565b610319565b61008d9081565b61008d9054610341565b600161036b61008d92610363600090565b5060006101a1565b0161034856fe6080604052600436101561001257600080fd5b60003560e01c806301ffc9a7146100b2578063118c894b146100ad578063248a9ca3146100a85780632f2ff15d146100a357806336568abe1461009e57806340129a401461009957806356b855aa1461009457806391d148541461008f578063a217fddf1461008a5763d547741f036100ca57610324565b610309565b6102ce565b610295565b610271565b610258565b61023a565b6101d6565b6101af565b6100f9565b6001600160e01b031981165b036100ca57565b600080fd5b905035906100dc826100b7565b565b906020828203126100ca576100f2916100cf565b90565b9052565b346100ca5761012661011461010f3660046100de565b61033d565b60405191829182901515815260200190565b0390f35b806100c3565b905035906100dc8261012a565b906020828203126100ca576100f291610130565b905b600052602052604060002090565b6100f2916008021c5b6001600160a01b031690565b906100f29154610161565b60006101916100f2926001610151565b610176565b6100f59061016a565b6020810192916100dc9190610196565b346100ca576101266101ca6101c536600461013d565b610181565b6040519182918261019f565b346100ca576101266101f16101ec36600461013d565b610388565b6040519182918290815260200190565b6100c38161016a565b905035906100dc82610201565b91906040838203126100ca576100f29060206102338286610130565b940161020a565b346100ca5761025361024d366004610217565b906103ca565b604051005b346100ca5761025361026b366004610217565b906103d4565b346100ca57610253610284366004610217565b906104a8565b60009103126100ca57565b346100ca576102a536600461028a565b6101267f7def632d64a7259044c921303d544f945a340c8d4334adc0e0bd830a54deb5286101f1565b346100ca576101266101146102e4366004610217565b906104c3565b6100f26100f26100f29290565b6100f260006102ea565b6100f26102f7565b346100ca5761031936600461028a565b6101266101f1610301565b346100ca57610253610337366004610217565b90610505565b637965db0b60e01b6001600160e01b031982161490811561035c575090565b6100f291506001600160e01b0319166301ffc9a760e01b1490565b6100f29081565b6100f29054610377565b60016103a16100f292610399600090565b506000610151565b0161037e565b906100dc916103bd6103b882610388565b61050f565b906103c79161053a565b50565b906100dc916103a7565b906103de3361016a565b6103e78261016a565b036103f5576103c7916105bf565b60405163334bd91960e11b8152600490fd5b0390fd5b6100dc91906104397f7def632d64a7259044c921303d544f945a340c8d4334adc0e0bd830a54deb52861050f565b610494565b906001600160a01b03905b9181191691161790565b6100f29061016a906001600160a01b031682565b6100f290610453565b6100f290610467565b906104896100f261049092610470565b825461043e565b9055565b906104a36100dc926001610151565b610479565b906100dc9161040b565b9061015390610470565b5460ff1690565b6100f29160006104df6104e5936104d8600090565b5082610151565b016104b2565b6104bc565b906100dc916104fb6103b882610388565b906103c7916105bf565b906100dc916104ea565b6100dc90339061063a565b9060ff90610449565b906105336100f261049092151590565b825461051a565b61054b61054783836104c3565b1590565b156105b85761056a60016105658460006104df8682610151565b610523565b61058461057e610578339390565b93610470565b91610470565b917f2f8788117e7eff1d82e926ec794901d17c78024a50270940304540a733656f0d6105af60405190565b600090a4600190565b5050600090565b6105c982826104c3565b156105b8576105e2600061056584826104df8682610151565b6105f061057e610578339390565b917ff6391f5c32d9c69d2a47ea670b442974b53935d1edc7fd64eb21e047a839171b6105af60405190565b9160206100dc92949361063660408201966000830190610196565b0152565b9061064861054782846104c3565b610650575050565b61040761065c60405190565b63e2517d3f60e01b81529283926004840161061b56fea26469706673582212204b718ebb7e1b75843ef901496a34802366828c23a8d0fd3323a6865520db24e164736f6c63430008190033",
  "linkReferences": {},
  "deployedLinkReferences": {}
}