{
  "_format": "hh-sol-artifact-1",
  "contractName": "ProxyAdmin",
  "sourceName": "@openzeppelin/contracts/proxy/transparent/ProxyAdmin.sol",
  "abi": [
    {
      "inputs": [
        {
          "internalType": "address",
          "name": "initialOwner",
          "type": "address"
        }
      ],
      "stateMutability": "nonpayable",
      "type": "constructor"
    },
    {
      "inputs": [
        {
          "internalType": "address",
          "name": "owner",
          "type": "address"
        }
      ],
      "name": "OwnableInvalidOwner",
      "type": "error"
    },
    {
      "inputs": [
        {
          "internalType": "address",
          "name": "account",
          "type": "address"
        }
      ],
      "name": "OwnableUnauthorizedAccount",
      "type": "error"
    },
    {
      "anonymous": false,
      "inputs": [
        {
          "indexed": true,
          "internalType": "address",
          "name": "previousOwner",
          "type": "address"
        },
        {
          "indexed": true,
          "internalType": "address",
          "name": "newOwner",
          "type": "address"
        }
      ],
      "name": "OwnershipTransferred",
      "type": "event"
    },
    {
      "inputs": [],
      "name": "UPGRADE_INTERFACE_VERSION",
      "outputs": [
        {
          "internalType": "string",
          "name": "",
          "type": "string"
        }
      ],
      "stateMutability": "view",
      "type": "function"
    },
    {
      "inputs": [],
      "name": "owner",
      "outputs": [
        {
          "internalType": "address",
          "name": "",
          "type": "address"
        }
      ],
      "stateMutability": "view",
      "type": "function"
    },
    {
      "inputs": [],
      "name": "renounceOwnership",
      "outputs": [],
      "stateMutability": "nonpayable",
      "type": "function"
    },
    {
      "inputs": [
        {
          "internalType": "address",
          "name": "newOwner",
          "type": "address"
        }
      ],
      "name": "transferOwnership",
      "outputs": [],
      "stateMutability": "nonpayable",
      "type": "function"
    },
    {
      "inputs": [
        {
          "internalType": "contract ITransparentUpgradeableProxy",
          "name": "proxy",
          "type": "address"
        },
        {
          "internalType": "address",
          "name": "implementation",
          "type": "address"
        },
        {
          "internalType": "bytes",
          "name": "data",
          "type": "bytes"
        }
      ],
      "name": "upgradeAndCall",
      "outputs": [],
      "stateMutability": "payable",
      "type": "function"
    }
  ],
  "bytecode": "0x60806040523461002a576100196100146100c2565b6100e0565b6040516105f461022782396105f490f35b600080fd5b634e487b7160e01b600052604160045260246000fd5b90601f01601f191681019081106001600160401b0382111761006657604052565b61002f565b9061007f61007860405190565b9283610045565b565b6001600160a01b031690565b90565b6001600160a01b0381160361002a57565b9050519061007f82610090565b9060208282031261002a5761008d916100a1565b61008d61081b803803806100d58161006b565b9283398101906100ae565b61007f90610112565b61008161008d61008d9290565b61008d906100e9565b6001600160a01b03909116815260200190565b61011c60006100f6565b6001600160a01b0381166001600160a01b0383161461013f575061007f906101cf565b6101629061014c60405190565b631e4fbdf760e01b8152918291600483016100ff565b0390fd5b61008d90610081565b61008d9054610166565b61008d90610081906001600160a01b031682565b61008d90610179565b61008d9061018d565b906101af61008d6101cb92610196565b82546001600160a01b0319166001600160a01b03919091161790565b9055565b6101f56101ef6101df600061016f565b6101ea84600061019f565b610196565b91610196565b907f8be0079c531659141344cd1fd0a4f28419497f9722a3daafe3b4186f6b6457e061022060405190565b600090a356fe6080604052600436101561001257600080fd5b60003560e01c8063715018a6146100625780638da5cb5b1461005d5780639623609d14610058578063ad3cb1cc146100535763f2fde38b036100725761031f565b6102e4565b610223565b6100a9565b610077565b600091031261007257565b600080fd5b3461007257610087366004610067565b61008f61036f565b604051005b0390f35b6001600160a01b031690565b90565b565b34610072576100b9366004610067565b6100946100c4610377565b604051918291826001600160a01b03909116815260200190565b6001600160a01b0381165b0361007257565b905035906100a7826100de565b6001600160a01b0381166100e9565b905035906100a7826100fd565b634e487b7160e01b600052604160045260246000fd5b90601f01601f1916810190811067ffffffffffffffff82111761015157604052565b610119565b906100a761016360405190565b928361012f565b67ffffffffffffffff811161015157602090601f01601f19160190565b0190565b90826000939282370152565b909291926101ac6101a78261016a565b610156565b9381855281830111610072576100a791602085019061018b565b9080601f83011215610072578160206100a493359101610197565b91606083830312610072576101f682846100f0565b92610204836020830161010c565b92604082013567ffffffffffffffff8111610072576100a492016101c6565b61008f6102313660046101e1565b9161045f565b906102446101a78361016a565b918252565b6102536005610237565b640352e302e360dc1b602082015290565b6100a4610249565b6100a4610264565b6100a461026c565b60005b83811061028f5750506000910152565b818101518382015260200161027f565b6102c06102c9602093610187936102b4815190565b80835293849260200190565b9586910161027c565b601f01601f191690565b60208082526100a49291019061029f565b34610072576102f4366004610067565b6100946102ff610274565b604051918291826102d3565b90602082820312610072576100a49161010c565b346100725761008f61033236600461030b565b6104d8565b61033f6104e1565b6100a761035d565b6100986100a46100a49290565b6100a490610347565b6100a761036a6000610354565b61055f565b6100a7610337565b6000546001600160a01b031690565b906100a792916103946104e1565b6103ee565b6100a490610098906001600160a01b031682565b6100a490610399565b6100a4906103ad565b6001600160a01b0390911681526100a4916040820191602081840391015261029f565b6040513d6000823e3d90fd5b6103f7906103b6565b90634f1ef28691803b156100725761042460009361042f61041760405190565b9687958694859460e01b90565b8452600484016103bf565b039134905af1801561045a576104425750565b6100a7906000610452818361012f565b810190610067565b6103e2565b906100a79291610386565b6100a7906104766104e1565b6104806000610354565b6001600160a01b0381166001600160a01b038316146104a357506100a79061055f565b6104d4906104b060405190565b631e4fbdf760e01b8152918291600483016001600160a01b03909116815260200190565b0390fd5b6100a79061046a565b6104e9610377565b339081906001600160a01b0316036104fe5750565b6104d49061050b60405190565b63118cdaa760e01b8152918291600483016001600160a01b03909116815260200190565b9061053f6100a461055b926103b6565b82546001600160a01b0319166001600160a01b03919091161790565b9055565b61058d6105876105776000546001600160a01b031690565b61058284600061052f565b6103b6565b916103b6565b907f8be0079c531659141344cd1fd0a4f28419497f9722a3daafe3b4186f6b6457e06105b860405190565b600090a356fea264697066735822122057fdfb78dd7c00abe7a51e7501fd8954c2cfe0bd58bfe71dcb66edb481f2060364736f6c63430008190033",
  "linkReferences": {},
  "deployedLinkReferences": {}
}